{
	"contracts/firstTestContract.sol": {
		"Property": {
			"abi": [
				{
					"inputs": [],
					"name": "addToString",
					"outputs": [],
					"stateMutability": "nonpayable",
					"type": "function"
				},
				{
					"inputs": [],
					"name": "bytesString",
					"outputs": [
						{
							"internalType": "bytes",
							"name": "",
							"type": "bytes"
						}
					],
					"stateMutability": "view",
					"type": "function"
				},
				{
					"inputs": [
						{
							"internalType": "uint256",
							"name": "i",
							"type": "uint256"
						}
					],
					"name": "getElementFromBytes",
					"outputs": [
						{
							"internalType": "bytes1",
							"name": "",
							"type": "bytes1"
						}
					],
					"stateMutability": "view",
					"type": "function"
				},
				{
					"inputs": [],
					"name": "getStringFromBytes",
					"outputs": [
						{
							"internalType": "string",
							"name": "",
							"type": "string"
						}
					],
					"stateMutability": "view",
					"type": "function"
				},
				{
					"inputs": [],
					"name": "location",
					"outputs": [
						{
							"internalType": "string",
							"name": "",
							"type": "string"
						}
					],
					"stateMutability": "view",
					"type": "function"
				},
				{
					"inputs": [],
					"name": "regularString",
					"outputs": [
						{
							"internalType": "string",
							"name": "",
							"type": "string"
						}
					],
					"stateMutability": "view",
					"type": "function"
				}
			],
			"devdoc": {
				"kind": "dev",
				"methods": {},
				"version": 1
			},
			"evm": {
				"assembly": "    /* \"contracts/firstTestContract.sol\":75:3739  contract Property{... */\n  mstore(0x40, 0x80)\n    /* \"contracts/firstTestContract.sol\":234:277  bytes public bytesString = 'can be changed' */\n  mload(0x40)\n  dup1\n  0x40\n  add\n  0x40\n  mstore\n  dup1\n  0x0e\n  dup2\n  mstore\n  0x20\n  add\n  0x63616e206265206368616e676564000000000000000000000000000000000000\n  dup2\n  mstore\n  pop\n  0x02\n  swap1\n  dup2\n  tag_1\n  swap2\n  swap1\n  tag_2\n  jump\t// in\ntag_1:\n  pop\n    /* \"contracts/firstTestContract.sol\":284:333  string public regularString = 'cannot be changes' */\n  mload(0x40)\n  dup1\n  0x40\n  add\n  0x40\n  mstore\n  dup1\n  0x11\n  dup2\n  mstore\n  0x20\n  add\n  0x63616e6e6f74206265206368616e676573000000000000000000000000000000\n  dup2\n  mstore\n  pop\n  0x03\n  swap1\n  dup2\n  tag_3\n  swap2\n  swap1\n  tag_4\n  jump\t// in\ntag_3:\n  pop\n    /* \"contracts/firstTestContract.sol\":75:3739  contract Property{... */\n  callvalue\n  dup1\n  iszero\n  tag_5\n  jumpi\n  0x00\n  dup1\n  revert\ntag_5:\n  pop\n  jump(tag_6)\n    /* \"#utility.yul\":7:106   */\ntag_7:\n    /* \"#utility.yul\":59:65   */\n  0x00\n    /* \"#utility.yul\":93:98   */\n  dup2\n    /* \"#utility.yul\":87:99   */\n  mload\n    /* \"#utility.yul\":77:99   */\n  swap1\n  pop\n    /* \"#utility.yul\":7:106   */\n  swap2\n  swap1\n  pop\n  jump\t// out\n    /* \"#utility.yul\":112:292   */\ntag_8:\n    /* \"#utility.yul\":160:237   */\n  0x4e487b7100000000000000000000000000000000000000000000000000000000\n    /* \"#utility.yul\":157:158   */\n  0x00\n    /* \"#utility.yul\":150:238   */\n  mstore\n    /* \"#utility.yul\":257:261   */\n  0x41\n    /* \"#utility.yul\":254:255   */\n  0x04\n    /* \"#utility.yul\":247:262   */\n  mstore\n    /* \"#utility.yul\":281:285   */\n  0x24\n    /* \"#utility.yul\":278:279   */\n  0x00\n    /* \"#utility.yul\":271:286   */\n  revert\n    /* \"#utility.yul\":298:478   */\ntag_9:\n    /* \"#utility.yul\":346:423   */\n  0x4e487b7100000000000000000000000000000000000000000000000000000000\n    /* \"#utility.yul\":343:344   */\n  0x00\n    /* \"#utility.yul\":336:424   */\n  mstore\n    /* \"#utility.yul\":443:447   */\n  0x22\n    /* \"#utility.yul\":440:441   */\n  0x04\n    /* \"#utility.yul\":433:448   */\n  mstore\n    /* \"#utility.yul\":467:471   */\n  0x24\n    /* \"#utility.yul\":464:465   */\n  0x00\n    /* \"#utility.yul\":457:472   */\n  revert\n    /* \"#utility.yul\":484:804   */\ntag_10:\n    /* \"#utility.yul\":528:534   */\n  0x00\n    /* \"#utility.yul\":565:566   */\n  0x02\n    /* \"#utility.yul\":559:563   */\n  dup3\n    /* \"#utility.yul\":555:567   */\n  div\n    /* \"#utility.yul\":545:567   */\n  swap1\n  pop\n    /* \"#utility.yul\":612:613   */\n  0x01\n    /* \"#utility.yul\":606:610   */\n  dup3\n    /* \"#utility.yul\":602:614   */\n  and\n    /* \"#utility.yul\":633:651   */\n  dup1\n    /* \"#utility.yul\":623:704   */\n  tag_34\n  jumpi\n    /* \"#utility.yul\":689:693   */\n  0x7f\n    /* \"#utility.yul\":681:687   */\n  dup3\n    /* \"#utility.yul\":677:694   */\n  and\n    /* \"#utility.yul\":667:694   */\n  swap2\n  pop\n    /* \"#utility.yul\":623:704   */\ntag_34:\n    /* \"#utility.yul\":751:753   */\n  0x20\n    /* \"#utility.yul\":743:749   */\n  dup3\n    /* \"#utility.yul\":740:754   */\n  lt\n    /* \"#utility.yul\":720:738   */\n  dup2\n    /* \"#utility.yul\":717:755   */\n  sub\n    /* \"#utility.yul\":714:798   */\n  tag_35\n  jumpi\n    /* \"#utility.yul\":770:788   */\n  tag_36\n  tag_9\n  jump\t// in\ntag_36:\n    /* \"#utility.yul\":714:798   */\ntag_35:\n    /* \"#utility.yul\":535:804   */\n  pop\n    /* \"#utility.yul\":484:804   */\n  swap2\n  swap1\n  pop\n  jump\t// out\n    /* \"#utility.yul\":810:950   */\ntag_11:\n    /* \"#utility.yul\":858:862   */\n  0x00\n    /* \"#utility.yul\":881:884   */\n  dup2\n    /* \"#utility.yul\":873:884   */\n  swap1\n  pop\n    /* \"#utility.yul\":904:907   */\n  dup2\n    /* \"#utility.yul\":901:902   */\n  0x00\n    /* \"#utility.yul\":894:908   */\n  mstore\n    /* \"#utility.yul\":938:942   */\n  0x20\n    /* \"#utility.yul\":935:936   */\n  0x00\n    /* \"#utility.yul\":925:943   */\n  keccak256\n    /* \"#utility.yul\":917:943   */\n  swap1\n  pop\n    /* \"#utility.yul\":810:950   */\n  swap2\n  swap1\n  pop\n  jump\t// out\n    /* \"#utility.yul\":956:1049   */\ntag_12:\n    /* \"#utility.yul\":993:999   */\n  0x00\n    /* \"#utility.yul\":1040:1042   */\n  0x20\n    /* \"#utility.yul\":1035:1037   */\n  0x1f\n    /* \"#utility.yul\":1028:1033   */\n  dup4\n    /* \"#utility.yul\":1024:1038   */\n  add\n    /* \"#utility.yul\":1020:1043   */\n  div\n    /* \"#utility.yul\":1010:1043   */\n  swap1\n  pop\n    /* \"#utility.yul\":956:1049   */\n  swap2\n  swap1\n  pop\n  jump\t// out\n    /* \"#utility.yul\":1055:1162   */\ntag_13:\n    /* \"#utility.yul\":1099:1107   */\n  0x00\n    /* \"#utility.yul\":1149:1154   */\n  dup3\n    /* \"#utility.yul\":1143:1147   */\n  dup3\n    /* \"#utility.yul\":1139:1155   */\n  shl\n    /* \"#utility.yul\":1118:1155   */\n  swap1\n  pop\n    /* \"#utility.yul\":1055:1162   */\n  swap3\n  swap2\n  pop\n  pop\n  jump\t// out\n    /* \"#utility.yul\":1168:1561   */\ntag_14:\n    /* \"#utility.yul\":1237:1243   */\n  0x00\n    /* \"#utility.yul\":1287:1288   */\n  0x08\n    /* \"#utility.yul\":1275:1285   */\n  dup4\n    /* \"#utility.yul\":1271:1289   */\n  mul\n    /* \"#utility.yul\":1310:1407   */\n  tag_41\n    /* \"#utility.yul\":1340:1406   */\n  0xffffffffffffffffffffffffffffffffffffffffffffffffffffffffffffffff\n    /* \"#utility.yul\":1329:1338   */\n  dup3\n    /* \"#utility.yul\":1310:1407   */\n  tag_13\n  jump\t// in\ntag_41:\n    /* \"#utility.yul\":1428:1467   */\n  tag_42\n    /* \"#utility.yul\":1458:1466   */\n  dup7\n    /* \"#utility.yul\":1447:1456   */\n  dup4\n    /* \"#utility.yul\":1428:1467   */\n  tag_13\n  jump\t// in\ntag_42:\n    /* \"#utility.yul\":1416:1467   */\n  swap6\n  pop\n    /* \"#utility.yul\":1500:1504   */\n  dup1\n    /* \"#utility.yul\":1496:1505   */\n  not\n    /* \"#utility.yul\":1489:1494   */\n  dup5\n    /* \"#utility.yul\":1485:1506   */\n  and\n    /* \"#utility.yul\":1476:1506   */\n  swap4\n  pop\n    /* \"#utility.yul\":1549:1553   */\n  dup1\n    /* \"#utility.yul\":1539:1547   */\n  dup7\n    /* \"#utility.yul\":1535:1554   */\n  and\n    /* \"#utility.yul\":1528:1533   */\n  dup5\n    /* \"#utility.yul\":1525:1555   */\n  or\n    /* \"#utility.yul\":1515:1555   */\n  swap3\n  pop\n    /* \"#utility.yul\":1244:1561   */\n  pop\n  pop\n    /* \"#utility.yul\":1168:1561   */\n  swap4\n  swap3\n  pop\n  pop\n  pop\n  jump\t// out\n    /* \"#utility.yul\":1567:1644   */\ntag_15:\n    /* \"#utility.yul\":1604:1611   */\n  0x00\n    /* \"#utility.yul\":1633:1638   */\n  dup2\n    /* \"#utility.yul\":1622:1638   */\n  swap1\n  pop\n    /* \"#utility.yul\":1567:1644   */\n  swap2\n  swap1\n  pop\n  jump\t// out\n    /* \"#utility.yul\":1650:1710   */\ntag_16:\n    /* \"#utility.yul\":1678:1681   */\n  0x00\n    /* \"#utility.yul\":1699:1704   */\n  dup2\n    /* \"#utility.yul\":1692:1704   */\n  swap1\n  pop\n    /* \"#utility.yul\":1650:1710   */\n  swap2\n  swap1\n  pop\n  jump\t// out\n    /* \"#utility.yul\":1716:1858   */\ntag_17:\n    /* \"#utility.yul\":1766:1775   */\n  0x00\n    /* \"#utility.yul\":1799:1852   */\n  tag_46\n    /* \"#utility.yul\":1817:1851   */\n  tag_47\n    /* \"#utility.yul\":1826:1850   */\n  tag_48\n    /* \"#utility.yul\":1844:1849   */\n  dup5\n    /* \"#utility.yul\":1826:1850   */\n  tag_15\n  jump\t// in\ntag_48:\n    /* \"#utility.yul\":1817:1851   */\n  tag_16\n  jump\t// in\ntag_47:\n    /* \"#utility.yul\":1799:1852   */\n  tag_15\n  jump\t// in\ntag_46:\n    /* \"#utility.yul\":1786:1852   */\n  swap1\n  pop\n    /* \"#utility.yul\":1716:1858   */\n  swap2\n  swap1\n  pop\n  jump\t// out\n    /* \"#utility.yul\":1864:1939   */\ntag_18:\n    /* \"#utility.yul\":1907:1910   */\n  0x00\n    /* \"#utility.yul\":1928:1933   */\n  dup2\n    /* \"#utility.yul\":1921:1933   */\n  swap1\n  pop\n    /* \"#utility.yul\":1864:1939   */\n  swap2\n  swap1\n  pop\n  jump\t// out\n    /* \"#utility.yul\":1945:2214   */\ntag_19:\n    /* \"#utility.yul\":2055:2094   */\n  tag_51\n    /* \"#utility.yul\":2086:2093   */\n  dup4\n    /* \"#utility.yul\":2055:2094   */\n  tag_17\n  jump\t// in\ntag_51:\n    /* \"#utility.yul\":2116:2207   */\n  tag_52\n    /* \"#utility.yul\":2165:2206   */\n  tag_53\n    /* \"#utility.yul\":2189:2205   */\n  dup3\n    /* \"#utility.yul\":2165:2206   */\n  tag_18\n  jump\t// in\ntag_53:\n    /* \"#utility.yul\":2157:2163   */\n  dup5\n    /* \"#utility.yul\":2150:2154   */\n  dup5\n    /* \"#utility.yul\":2144:2155   */\n  sload\n    /* \"#utility.yul\":2116:2207   */\n  tag_14\n  jump\t// in\ntag_52:\n    /* \"#utility.yul\":2110:2114   */\n  dup3\n    /* \"#utility.yul\":2103:2208   */\n  sstore\n    /* \"#utility.yul\":2021:2214   */\n  pop\n    /* \"#utility.yul\":1945:2214   */\n  pop\n  pop\n  pop\n  jump\t// out\n    /* \"#utility.yul\":2220:2293   */\ntag_20:\n    /* \"#utility.yul\":2265:2268   */\n  0x00\n    /* \"#utility.yul\":2220:2293   */\n  swap1\n  jump\t// out\n    /* \"#utility.yul\":2299:2488   */\ntag_21:\n    /* \"#utility.yul\":2376:2408   */\n  tag_56\n  tag_20\n  jump\t// in\ntag_56:\n    /* \"#utility.yul\":2417:2482   */\n  tag_57\n    /* \"#utility.yul\":2475:2481   */\n  dup2\n    /* \"#utility.yul\":2467:2473   */\n  dup5\n    /* \"#utility.yul\":2461:2465   */\n  dup5\n    /* \"#utility.yul\":2417:2482   */\n  tag_19\n  jump\t// in\ntag_57:\n    /* \"#utility.yul\":2352:2488   */\n  pop\n    /* \"#utility.yul\":2299:2488   */\n  pop\n  pop\n  jump\t// out\n    /* \"#utility.yul\":2494:2680   */\ntag_22:\n    /* \"#utility.yul\":2554:2674   */\ntag_59:\n    /* \"#utility.yul\":2571:2574   */\n  dup2\n    /* \"#utility.yul\":2564:2569   */\n  dup2\n    /* \"#utility.yul\":2561:2575   */\n  lt\n    /* \"#utility.yul\":2554:2674   */\n  iszero\n  tag_61\n  jumpi\n    /* \"#utility.yul\":2625:2664   */\n  tag_62\n    /* \"#utility.yul\":2662:2663   */\n  0x00\n    /* \"#utility.yul\":2655:2660   */\n  dup3\n    /* \"#utility.yul\":2625:2664   */\n  tag_21\n  jump\t// in\ntag_62:\n    /* \"#utility.yul\":2598:2599   */\n  0x01\n    /* \"#utility.yul\":2591:2596   */\n  dup2\n    /* \"#utility.yul\":2587:2600   */\n  add\n    /* \"#utility.yul\":2578:2600   */\n  swap1\n  pop\n    /* \"#utility.yul\":2554:2674   */\n  jump(tag_59)\ntag_61:\n    /* \"#utility.yul\":2494:2680   */\n  pop\n  pop\n  jump\t// out\n    /* \"#utility.yul\":2686:3227   */\ntag_23:\n    /* \"#utility.yul\":2786:2788   */\n  0x1f\n    /* \"#utility.yul\":2781:2784   */\n  dup3\n    /* \"#utility.yul\":2778:2789   */\n  gt\n    /* \"#utility.yul\":2775:3220   */\n  iszero\n  tag_64\n  jumpi\n    /* \"#utility.yul\":2820:2857   */\n  tag_65\n    /* \"#utility.yul\":2851:2856   */\n  dup2\n    /* \"#utility.yul\":2820:2857   */\n  tag_11\n  jump\t// in\ntag_65:\n    /* \"#utility.yul\":2903:2932   */\n  tag_66\n    /* \"#utility.yul\":2921:2931   */\n  dup5\n    /* \"#utility.yul\":2903:2932   */\n  tag_12\n  jump\t// in\ntag_66:\n    /* \"#utility.yul\":2893:2901   */\n  dup2\n    /* \"#utility.yul\":2889:2933   */\n  add\n    /* \"#utility.yul\":3086:3088   */\n  0x20\n    /* \"#utility.yul\":3074:3084   */\n  dup6\n    /* \"#utility.yul\":3071:3089   */\n  lt\n    /* \"#utility.yul\":3068:3117   */\n  iszero\n  tag_67\n  jumpi\n    /* \"#utility.yul\":3107:3115   */\n  dup2\n    /* \"#utility.yul\":3092:3115   */\n  swap1\n  pop\n    /* \"#utility.yul\":3068:3117   */\ntag_67:\n    /* \"#utility.yul\":3130:3210   */\n  tag_68\n    /* \"#utility.yul\":3186:3208   */\n  tag_69\n    /* \"#utility.yul\":3204:3207   */\n  dup6\n    /* \"#utility.yul\":3186:3208   */\n  tag_12\n  jump\t// in\ntag_69:\n    /* \"#utility.yul\":3176:3184   */\n  dup4\n    /* \"#utility.yul\":3172:3209   */\n  add\n    /* \"#utility.yul\":3159:3170   */\n  dup3\n    /* \"#utility.yul\":3130:3210   */\n  tag_22\n  jump\t// in\ntag_68:\n    /* \"#utility.yul\":2790:3220   */\n  pop\n  pop\n    /* \"#utility.yul\":2775:3220   */\ntag_64:\n    /* \"#utility.yul\":2686:3227   */\n  pop\n  pop\n  pop\n  jump\t// out\n    /* \"#utility.yul\":3233:3350   */\ntag_24:\n    /* \"#utility.yul\":3287:3295   */\n  0x00\n    /* \"#utility.yul\":3337:3342   */\n  dup3\n    /* \"#utility.yul\":3331:3335   */\n  dup3\n    /* \"#utility.yul\":3327:3343   */\n  shr\n    /* \"#utility.yul\":3306:3343   */\n  swap1\n  pop\n    /* \"#utility.yul\":3233:3350   */\n  swap3\n  swap2\n  pop\n  pop\n  jump\t// out\n    /* \"#utility.yul\":3356:3525   */\ntag_25:\n    /* \"#utility.yul\":3400:3406   */\n  0x00\n    /* \"#utility.yul\":3433:3484   */\n  tag_72\n    /* \"#utility.yul\":3481:3482   */\n  0x00\n    /* \"#utility.yul\":3477:3483   */\n  not\n    /* \"#utility.yul\":3469:3474   */\n  dup5\n    /* \"#utility.yul\":3466:3467   */\n  0x08\n    /* \"#utility.yul\":3462:3475   */\n  mul\n    /* \"#utility.yul\":3433:3484   */\n  tag_24\n  jump\t// in\ntag_72:\n    /* \"#utility.yul\":3429:3485   */\n  not\n    /* \"#utility.yul\":3514:3518   */\n  dup1\n    /* \"#utility.yul\":3508:3512   */\n  dup4\n    /* \"#utility.yul\":3504:3519   */\n  and\n    /* \"#utility.yul\":3494:3519   */\n  swap2\n  pop\n    /* \"#utility.yul\":3407:3525   */\n  pop\n    /* \"#utility.yul\":3356:3525   */\n  swap3\n  swap2\n  pop\n  pop\n  jump\t// out\n    /* \"#utility.yul\":3530:3825   */\ntag_26:\n    /* \"#utility.yul\":3606:3610   */\n  0x00\n    /* \"#utility.yul\":3752:3781   */\n  tag_74\n    /* \"#utility.yul\":3777:3780   */\n  dup4\n    /* \"#utility.yul\":3771:3775   */\n  dup4\n    /* \"#utility.yul\":3752:3781   */\n  tag_25\n  jump\t// in\ntag_74:\n    /* \"#utility.yul\":3744:3781   */\n  swap2\n  pop\n    /* \"#utility.yul\":3814:3817   */\n  dup3\n    /* \"#utility.yul\":3811:3812   */\n  0x02\n    /* \"#utility.yul\":3807:3818   */\n  mul\n    /* \"#utility.yul\":3801:3805   */\n  dup3\n    /* \"#utility.yul\":3798:3819   */\n  or\n    /* \"#utility.yul\":3790:3819   */\n  swap1\n  pop\n    /* \"#utility.yul\":3530:3825   */\n  swap3\n  swap2\n  pop\n  pop\n  jump\t// out\n    /* \"#utility.yul\":3830:5222   */\ntag_2:\n    /* \"#utility.yul\":3946:3983   */\n  tag_76\n    /* \"#utility.yul\":3979:3982   */\n  dup3\n    /* \"#utility.yul\":3946:3983   */\n  tag_7\n  jump\t// in\ntag_76:\n    /* \"#utility.yul\":4048:4066   */\n  0xffffffffffffffff\n    /* \"#utility.yul\":4040:4046   */\n  dup2\n    /* \"#utility.yul\":4037:4067   */\n  gt\n    /* \"#utility.yul\":4034:4090   */\n  iszero\n  tag_77\n  jumpi\n    /* \"#utility.yul\":4070:4088   */\n  tag_78\n  tag_8\n  jump\t// in\ntag_78:\n    /* \"#utility.yul\":4034:4090   */\ntag_77:\n    /* \"#utility.yul\":4114:4152   */\n  tag_79\n    /* \"#utility.yul\":4146:4150   */\n  dup3\n    /* \"#utility.yul\":4140:4151   */\n  sload\n    /* \"#utility.yul\":4114:4152   */\n  tag_10\n  jump\t// in\ntag_79:\n    /* \"#utility.yul\":4199:4265   */\n  tag_80\n    /* \"#utility.yul\":4258:4264   */\n  dup3\n    /* \"#utility.yul\":4250:4256   */\n  dup3\n    /* \"#utility.yul\":4244:4248   */\n  dup6\n    /* \"#utility.yul\":4199:4265   */\n  tag_23\n  jump\t// in\ntag_80:\n    /* \"#utility.yul\":4292:4293   */\n  0x00\n    /* \"#utility.yul\":4316:4320   */\n  0x20\n    /* \"#utility.yul\":4303:4320   */\n  swap1\n  pop\n    /* \"#utility.yul\":4348:4350   */\n  0x1f\n    /* \"#utility.yul\":4340:4346   */\n  dup4\n    /* \"#utility.yul\":4337:4351   */\n  gt\n    /* \"#utility.yul\":4365:4366   */\n  0x01\n    /* \"#utility.yul\":4360:4977   */\n  dup2\n  eq\n  tag_82\n  jumpi\n    /* \"#utility.yul\":5021:5022   */\n  0x00\n    /* \"#utility.yul\":5038:5044   */\n  dup5\n    /* \"#utility.yul\":5035:5112   */\n  iszero\n  tag_83\n  jumpi\n    /* \"#utility.yul\":5087:5096   */\n  dup3\n    /* \"#utility.yul\":5082:5085   */\n  dup8\n    /* \"#utility.yul\":5078:5097   */\n  add\n    /* \"#utility.yul\":5072:5098   */\n  mload\n    /* \"#utility.yul\":5063:5098   */\n  swap1\n  pop\n    /* \"#utility.yul\":5035:5112   */\ntag_83:\n    /* \"#utility.yul\":5138:5205   */\n  tag_84\n    /* \"#utility.yul\":5198:5204   */\n  dup6\n    /* \"#utility.yul\":5191:5196   */\n  dup3\n    /* \"#utility.yul\":5138:5205   */\n  tag_26\n  jump\t// in\ntag_84:\n    /* \"#utility.yul\":5132:5136   */\n  dup7\n    /* \"#utility.yul\":5125:5206   */\n  sstore\n    /* \"#utility.yul\":4994:5216   */\n  pop\n    /* \"#utility.yul\":4330:5216   */\n  jump(tag_81)\n    /* \"#utility.yul\":4360:4977   */\ntag_82:\n    /* \"#utility.yul\":4412:4416   */\n  0x1f\n    /* \"#utility.yul\":4408:4417   */\n  not\n    /* \"#utility.yul\":4400:4406   */\n  dup5\n    /* \"#utility.yul\":4396:4418   */\n  and\n    /* \"#utility.yul\":4446:4482   */\n  tag_85\n    /* \"#utility.yul\":4477:4481   */\n  dup7\n    /* \"#utility.yul\":4446:4482   */\n  tag_11\n  jump\t// in\ntag_85:\n    /* \"#utility.yul\":4504:4505   */\n  0x00\n    /* \"#utility.yul\":4518:4726   */\ntag_86:\n    /* \"#utility.yul\":4532:4539   */\n  dup3\n    /* \"#utility.yul\":4529:4530   */\n  dup2\n    /* \"#utility.yul\":4526:4540   */\n  lt\n    /* \"#utility.yul\":4518:4726   */\n  iszero\n  tag_88\n  jumpi\n    /* \"#utility.yul\":4611:4620   */\n  dup5\n    /* \"#utility.yul\":4606:4609   */\n  dup10\n    /* \"#utility.yul\":4602:4621   */\n  add\n    /* \"#utility.yul\":4596:4622   */\n  mload\n    /* \"#utility.yul\":4588:4594   */\n  dup3\n    /* \"#utility.yul\":4581:4623   */\n  sstore\n    /* \"#utility.yul\":4662:4663   */\n  0x01\n    /* \"#utility.yul\":4654:4660   */\n  dup3\n    /* \"#utility.yul\":4650:4664   */\n  add\n    /* \"#utility.yul\":4640:4664   */\n  swap2\n  pop\n    /* \"#utility.yul\":4709:4711   */\n  0x20\n    /* \"#utility.yul\":4698:4707   */\n  dup6\n    /* \"#utility.yul\":4694:4712   */\n  add\n    /* \"#utility.yul\":4681:4712   */\n  swap5\n  pop\n    /* \"#utility.yul\":4555:4559   */\n  0x20\n    /* \"#utility.yul\":4552:4553   */\n  dup2\n    /* \"#utility.yul\":4548:4560   */\n  add\n    /* \"#utility.yul\":4543:4560   */\n  swap1\n  pop\n    /* \"#utility.yul\":4518:4726   */\n  jump(tag_86)\ntag_88:\n    /* \"#utility.yul\":4754:4760   */\n  dup7\n    /* \"#utility.yul\":4745:4752   */\n  dup4\n    /* \"#utility.yul\":4742:4761   */\n  lt\n    /* \"#utility.yul\":4739:4918   */\n  iszero\n  tag_89\n  jumpi\n    /* \"#utility.yul\":4812:4821   */\n  dup5\n    /* \"#utility.yul\":4807:4810   */\n  dup10\n    /* \"#utility.yul\":4803:4822   */\n  add\n    /* \"#utility.yul\":4797:4823   */\n  mload\n    /* \"#utility.yul\":4855:4903   */\n  tag_90\n    /* \"#utility.yul\":4897:4901   */\n  0x1f\n    /* \"#utility.yul\":4889:4895   */\n  dup10\n    /* \"#utility.yul\":4885:4902   */\n  and\n    /* \"#utility.yul\":4874:4883   */\n  dup3\n    /* \"#utility.yul\":4855:4903   */\n  tag_25\n  jump\t// in\ntag_90:\n    /* \"#utility.yul\":4847:4853   */\n  dup4\n    /* \"#utility.yul\":4840:4904   */\n  sstore\n    /* \"#utility.yul\":4762:4918   */\n  pop\n    /* \"#utility.yul\":4739:4918   */\ntag_89:\n    /* \"#utility.yul\":4964:4965   */\n  0x01\n    /* \"#utility.yul\":4960:4961   */\n  0x02\n    /* \"#utility.yul\":4952:4958   */\n  dup9\n    /* \"#utility.yul\":4948:4962   */\n  mul\n    /* \"#utility.yul\":4944:4966   */\n  add\n    /* \"#utility.yul\":4938:4942   */\n  dup9\n    /* \"#utility.yul\":4931:4967   */\n  sstore\n    /* \"#utility.yul\":4367:4977   */\n  pop\n  pop\n  pop\n    /* \"#utility.yul\":4330:5216   */\ntag_81:\n  pop\n    /* \"#utility.yul\":3921:5222   */\n  pop\n  pop\n  pop\n    /* \"#utility.yul\":3830:5222   */\n  pop\n  pop\n  jump\t// out\n    /* \"#utility.yul\":5228:5369   */\ntag_27:\n    /* \"#utility.yul\":5277:5281   */\n  0x00\n    /* \"#utility.yul\":5300:5303   */\n  dup2\n    /* \"#utility.yul\":5292:5303   */\n  swap1\n  pop\n    /* \"#utility.yul\":5323:5326   */\n  dup2\n    /* \"#utility.yul\":5320:5321   */\n  0x00\n    /* \"#utility.yul\":5313:5327   */\n  mstore\n    /* \"#utility.yul\":5357:5361   */\n  0x20\n    /* \"#utility.yul\":5354:5355   */\n  0x00\n    /* \"#utility.yul\":5344:5362   */\n  keccak256\n    /* \"#utility.yul\":5336:5362   */\n  swap1\n  pop\n    /* \"#utility.yul\":5228:5369   */\n  swap2\n  swap1\n  pop\n  jump\t// out\n    /* \"#utility.yul\":5375:5918   */\ntag_28:\n    /* \"#utility.yul\":5476:5478   */\n  0x1f\n    /* \"#utility.yul\":5471:5474   */\n  dup3\n    /* \"#utility.yul\":5468:5479   */\n  gt\n    /* \"#utility.yul\":5465:5911   */\n  iszero\n  tag_93\n  jumpi\n    /* \"#utility.yul\":5510:5548   */\n  tag_94\n    /* \"#utility.yul\":5542:5547   */\n  dup2\n    /* \"#utility.yul\":5510:5548   */\n  tag_27\n  jump\t// in\ntag_94:\n    /* \"#utility.yul\":5594:5623   */\n  tag_95\n    /* \"#utility.yul\":5612:5622   */\n  dup5\n    /* \"#utility.yul\":5594:5623   */\n  tag_12\n  jump\t// in\ntag_95:\n    /* \"#utility.yul\":5584:5592   */\n  dup2\n    /* \"#utility.yul\":5580:5624   */\n  add\n    /* \"#utility.yul\":5777:5779   */\n  0x20\n    /* \"#utility.yul\":5765:5775   */\n  dup6\n    /* \"#utility.yul\":5762:5780   */\n  lt\n    /* \"#utility.yul\":5759:5808   */\n  iszero\n  tag_96\n  jumpi\n    /* \"#utility.yul\":5798:5806   */\n  dup2\n    /* \"#utility.yul\":5783:5806   */\n  swap1\n  pop\n    /* \"#utility.yul\":5759:5808   */\ntag_96:\n    /* \"#utility.yul\":5821:5901   */\n  tag_97\n    /* \"#utility.yul\":5877:5899   */\n  tag_98\n    /* \"#utility.yul\":5895:5898   */\n  dup6\n    /* \"#utility.yul\":5877:5899   */\n  tag_12\n  jump\t// in\ntag_98:\n    /* \"#utility.yul\":5867:5875   */\n  dup4\n    /* \"#utility.yul\":5863:5900   */\n  add\n    /* \"#utility.yul\":5850:5861   */\n  dup3\n    /* \"#utility.yul\":5821:5901   */\n  tag_22\n  jump\t// in\ntag_97:\n    /* \"#utility.yul\":5480:5911   */\n  pop\n  pop\n    /* \"#utility.yul\":5465:5911   */\ntag_93:\n    /* \"#utility.yul\":5375:5918   */\n  pop\n  pop\n  pop\n  jump\t// out\n    /* \"#utility.yul\":5924:7319   */\ntag_4:\n    /* \"#utility.yul\":6041:6078   */\n  tag_100\n    /* \"#utility.yul\":6074:6077   */\n  dup3\n    /* \"#utility.yul\":6041:6078   */\n  tag_7\n  jump\t// in\ntag_100:\n    /* \"#utility.yul\":6143:6161   */\n  0xffffffffffffffff\n    /* \"#utility.yul\":6135:6141   */\n  dup2\n    /* \"#utility.yul\":6132:6162   */\n  gt\n    /* \"#utility.yul\":6129:6185   */\n  iszero\n  tag_101\n  jumpi\n    /* \"#utility.yul\":6165:6183   */\n  tag_102\n  tag_8\n  jump\t// in\ntag_102:\n    /* \"#utility.yul\":6129:6185   */\ntag_101:\n    /* \"#utility.yul\":6209:6247   */\n  tag_103\n    /* \"#utility.yul\":6241:6245   */\n  dup3\n    /* \"#utility.yul\":6235:6246   */\n  sload\n    /* \"#utility.yul\":6209:6247   */\n  tag_10\n  jump\t// in\ntag_103:\n    /* \"#utility.yul\":6294:6361   */\n  tag_104\n    /* \"#utility.yul\":6354:6360   */\n  dup3\n    /* \"#utility.yul\":6346:6352   */\n  dup3\n    /* \"#utility.yul\":6340:6344   */\n  dup6\n    /* \"#utility.yul\":6294:6361   */\n  tag_28\n  jump\t// in\ntag_104:\n    /* \"#utility.yul\":6388:6389   */\n  0x00\n    /* \"#utility.yul\":6412:6416   */\n  0x20\n    /* \"#utility.yul\":6399:6416   */\n  swap1\n  pop\n    /* \"#utility.yul\":6444:6446   */\n  0x1f\n    /* \"#utility.yul\":6436:6442   */\n  dup4\n    /* \"#utility.yul\":6433:6447   */\n  gt\n    /* \"#utility.yul\":6461:6462   */\n  0x01\n    /* \"#utility.yul\":6456:7074   */\n  dup2\n  eq\n  tag_106\n  jumpi\n    /* \"#utility.yul\":7118:7119   */\n  0x00\n    /* \"#utility.yul\":7135:7141   */\n  dup5\n    /* \"#utility.yul\":7132:7209   */\n  iszero\n  tag_107\n  jumpi\n    /* \"#utility.yul\":7184:7193   */\n  dup3\n    /* \"#utility.yul\":7179:7182   */\n  dup8\n    /* \"#utility.yul\":7175:7194   */\n  add\n    /* \"#utility.yul\":7169:7195   */\n  mload\n    /* \"#utility.yul\":7160:7195   */\n  swap1\n  pop\n    /* \"#utility.yul\":7132:7209   */\ntag_107:\n    /* \"#utility.yul\":7235:7302   */\n  tag_108\n    /* \"#utility.yul\":7295:7301   */\n  dup6\n    /* \"#utility.yul\":7288:7293   */\n  dup3\n    /* \"#utility.yul\":7235:7302   */\n  tag_26\n  jump\t// in\ntag_108:\n    /* \"#utility.yul\":7229:7233   */\n  dup7\n    /* \"#utility.yul\":7222:7303   */\n  sstore\n    /* \"#utility.yul\":7091:7313   */\n  pop\n    /* \"#utility.yul\":6426:7313   */\n  jump(tag_105)\n    /* \"#utility.yul\":6456:7074   */\ntag_106:\n    /* \"#utility.yul\":6508:6512   */\n  0x1f\n    /* \"#utility.yul\":6504:6513   */\n  not\n    /* \"#utility.yul\":6496:6502   */\n  dup5\n    /* \"#utility.yul\":6492:6514   */\n  and\n    /* \"#utility.yul\":6542:6579   */\n  tag_109\n    /* \"#utility.yul\":6574:6578   */\n  dup7\n    /* \"#utility.yul\":6542:6579   */\n  tag_27\n  jump\t// in\ntag_109:\n    /* \"#utility.yul\":6601:6602   */\n  0x00\n    /* \"#utility.yul\":6615:6823   */\ntag_110:\n    /* \"#utility.yul\":6629:6636   */\n  dup3\n    /* \"#utility.yul\":6626:6627   */\n  dup2\n    /* \"#utility.yul\":6623:6637   */\n  lt\n    /* \"#utility.yul\":6615:6823   */\n  iszero\n  tag_112\n  jumpi\n    /* \"#utility.yul\":6708:6717   */\n  dup5\n    /* \"#utility.yul\":6703:6706   */\n  dup10\n    /* \"#utility.yul\":6699:6718   */\n  add\n    /* \"#utility.yul\":6693:6719   */\n  mload\n    /* \"#utility.yul\":6685:6691   */\n  dup3\n    /* \"#utility.yul\":6678:6720   */\n  sstore\n    /* \"#utility.yul\":6759:6760   */\n  0x01\n    /* \"#utility.yul\":6751:6757   */\n  dup3\n    /* \"#utility.yul\":6747:6761   */\n  add\n    /* \"#utility.yul\":6737:6761   */\n  swap2\n  pop\n    /* \"#utility.yul\":6806:6808   */\n  0x20\n    /* \"#utility.yul\":6795:6804   */\n  dup6\n    /* \"#utility.yul\":6791:6809   */\n  add\n    /* \"#utility.yul\":6778:6809   */\n  swap5\n  pop\n    /* \"#utility.yul\":6652:6656   */\n  0x20\n    /* \"#utility.yul\":6649:6650   */\n  dup2\n    /* \"#utility.yul\":6645:6657   */\n  add\n    /* \"#utility.yul\":6640:6657   */\n  swap1\n  pop\n    /* \"#utility.yul\":6615:6823   */\n  jump(tag_110)\ntag_112:\n    /* \"#utility.yul\":6851:6857   */\n  dup7\n    /* \"#utility.yul\":6842:6849   */\n  dup4\n    /* \"#utility.yul\":6839:6858   */\n  lt\n    /* \"#utility.yul\":6836:7015   */\n  iszero\n  tag_113\n  jumpi\n    /* \"#utility.yul\":6909:6918   */\n  dup5\n    /* \"#utility.yul\":6904:6907   */\n  dup10\n    /* \"#utility.yul\":6900:6919   */\n  add\n    /* \"#utility.yul\":6894:6920   */\n  mload\n    /* \"#utility.yul\":6952:7000   */\n  tag_114\n    /* \"#utility.yul\":6994:6998   */\n  0x1f\n    /* \"#utility.yul\":6986:6992   */\n  dup10\n    /* \"#utility.yul\":6982:6999   */\n  and\n    /* \"#utility.yul\":6971:6980   */\n  dup3\n    /* \"#utility.yul\":6952:7000   */\n  tag_25\n  jump\t// in\ntag_114:\n    /* \"#utility.yul\":6944:6950   */\n  dup4\n    /* \"#utility.yul\":6937:7001   */\n  sstore\n    /* \"#utility.yul\":6859:7015   */\n  pop\n    /* \"#utility.yul\":6836:7015   */\ntag_113:\n    /* \"#utility.yul\":7061:7062   */\n  0x01\n    /* \"#utility.yul\":7057:7058   */\n  0x02\n    /* \"#utility.yul\":7049:7055   */\n  dup9\n    /* \"#utility.yul\":7045:7059   */\n  mul\n    /* \"#utility.yul\":7041:7063   */\n  add\n    /* \"#utility.yul\":7035:7039   */\n  dup9\n    /* \"#utility.yul\":7028:7064   */\n  sstore\n    /* \"#utility.yul\":6463:7074   */\n  pop\n  pop\n  pop\n    /* \"#utility.yul\":6426:7313   */\ntag_105:\n  pop\n    /* \"#utility.yul\":6016:7319   */\n  pop\n  pop\n  pop\n    /* \"#utility.yul\":5924:7319   */\n  pop\n  pop\n  jump\t// out\n    /* \"contracts/firstTestContract.sol\":75:3739  contract Property{... */\ntag_6:\n  dataSize(sub_0)\n  dup1\n  dataOffset(sub_0)\n  0x00\n  codecopy\n  0x00\n  return\nstop\n\nsub_0: assembly {\n        /* \"contracts/firstTestContract.sol\":75:3739  contract Property{... */\n      mstore(0x40, 0x80)\n      callvalue\n      dup1\n      iszero\n      tag_1\n      jumpi\n      0x00\n      dup1\n      revert\n    tag_1:\n      pop\n      jumpi(tag_2, lt(calldatasize, 0x04))\n      shr(0xe0, calldataload(0x00))\n      dup1\n      0x0cd44744\n      eq\n      tag_3\n      jumpi\n      dup1\n      0x26764072\n      eq\n      tag_4\n      jumpi\n      dup1\n      0x516f279e\n      eq\n      tag_5\n      jumpi\n      dup1\n      0xc02692e8\n      eq\n      tag_6\n      jumpi\n      dup1\n      0xdbe60d9c\n      eq\n      tag_7\n      jumpi\n      dup1\n      0xfc668876\n      eq\n      tag_8\n      jumpi\n    tag_2:\n      0x00\n      dup1\n      revert\n        /* \"contracts/firstTestContract.sol\":284:333  string public regularString = 'cannot be changes' */\n    tag_3:\n      tag_9\n      tag_10\n      jump\t// in\n    tag_9:\n      mload(0x40)\n      tag_11\n      swap2\n      swap1\n      tag_12\n      jump\t// in\n    tag_11:\n      mload(0x40)\n      dup1\n      swap2\n      sub\n      swap1\n      return\n        /* \"contracts/firstTestContract.sol\":342:499  function addToString() public {... */\n    tag_4:\n      tag_13\n      tag_14\n      jump\t// in\n    tag_13:\n      stop\n        /* \"contracts/firstTestContract.sol\":203:225  string public location */\n    tag_5:\n      tag_15\n      tag_16\n      jump\t// in\n    tag_15:\n      mload(0x40)\n      tag_17\n      swap2\n      swap1\n      tag_12\n      jump\t// in\n    tag_17:\n      mload(0x40)\n      dup1\n      swap2\n      sub\n      swap1\n      return\n        /* \"contracts/firstTestContract.sol\":234:277  bytes public bytesString = 'can be changed' */\n    tag_6:\n      tag_18\n      tag_19\n      jump\t// in\n    tag_18:\n      mload(0x40)\n      tag_20\n      swap2\n      swap1\n      tag_21\n      jump\t// in\n    tag_20:\n      mload(0x40)\n      dup1\n      swap2\n      sub\n      swap1\n      return\n        /* \"contracts/firstTestContract.sol\":719:824  function getElementFromBytes(uint i) public view returns(bytes1) {... */\n    tag_7:\n      tag_22\n      0x04\n      dup1\n      calldatasize\n      sub\n      dup2\n      add\n      swap1\n      tag_23\n      swap2\n      swap1\n      tag_24\n      jump\t// in\n    tag_23:\n      tag_25\n      jump\t// in\n    tag_22:\n      mload(0x40)\n      tag_26\n      swap2\n      swap1\n      tag_27\n      jump\t// in\n    tag_26:\n      mload(0x40)\n      dup1\n      swap2\n      sub\n      swap1\n      return\n        /* \"contracts/firstTestContract.sol\":507:711  function getStringFromBytes() public view returns(string memory) {... */\n    tag_8:\n      tag_28\n      tag_29\n      jump\t// in\n    tag_28:\n      mload(0x40)\n      tag_30\n      swap2\n      swap1\n      tag_12\n      jump\t// in\n    tag_30:\n      mload(0x40)\n      dup1\n      swap2\n      sub\n      swap1\n      return\n        /* \"contracts/firstTestContract.sol\":284:333  string public regularString = 'cannot be changes' */\n    tag_10:\n      0x03\n      dup1\n      sload\n      tag_31\n      swap1\n      tag_32\n      jump\t// in\n    tag_31:\n      dup1\n      0x1f\n      add\n      0x20\n      dup1\n      swap2\n      div\n      mul\n      0x20\n      add\n      mload(0x40)\n      swap1\n      dup2\n      add\n      0x40\n      mstore\n      dup1\n      swap3\n      swap2\n      swap1\n      dup2\n      dup2\n      mstore\n      0x20\n      add\n      dup3\n      dup1\n      sload\n      tag_33\n      swap1\n      tag_32\n      jump\t// in\n    tag_33:\n      dup1\n      iszero\n      tag_34\n      jumpi\n      dup1\n      0x1f\n      lt\n      tag_35\n      jumpi\n      0x0100\n      dup1\n      dup4\n      sload\n      div\n      mul\n      dup4\n      mstore\n      swap2\n      0x20\n      add\n      swap2\n      jump(tag_34)\n    tag_35:\n      dup3\n      add\n      swap2\n      swap1\n      0x00\n      mstore\n      keccak256(0x00, 0x20)\n      swap1\n    tag_36:\n      dup2\n      sload\n      dup2\n      mstore\n      swap1\n      0x01\n      add\n      swap1\n      0x20\n      add\n      dup1\n      dup4\n      gt\n      tag_36\n      jumpi\n      dup3\n      swap1\n      sub\n      0x1f\n      and\n      dup3\n      add\n      swap2\n    tag_34:\n      pop\n      pop\n      pop\n      pop\n      pop\n      dup2\n      jump\t// out\n        /* \"contracts/firstTestContract.sol\":342:499  function addToString() public {... */\n    tag_14:\n        /* \"contracts/firstTestContract.sol\":415:426  bytesString */\n      0x02\n        /* \"contracts/firstTestContract.sol\":398:435  abi.encodePacked(bytesString, 'xaaa') */\n      add(0x20, mload(0x40))\n      tag_38\n      swap2\n      swap1\n      tag_39\n      jump\t// in\n    tag_38:\n      mload(0x40)\n      0x20\n      dup2\n      dup4\n      sub\n      sub\n      dup2\n      mstore\n      swap1\n      0x40\n      mstore\n        /* \"contracts/firstTestContract.sol\":383:394  bytesString */\n      0x02\n        /* \"contracts/firstTestContract.sol\":383:435  bytesString  = abi.encodePacked(bytesString, 'xaaa') */\n      swap1\n      dup2\n      tag_40\n      swap2\n      swap1\n      tag_41\n      jump\t// in\n    tag_40:\n      pop\n        /* \"contracts/firstTestContract.sol\":342:499  function addToString() public {... */\n      jump\t// out\n        /* \"contracts/firstTestContract.sol\":203:225  string public location */\n    tag_16:\n      0x01\n      dup1\n      sload\n      tag_42\n      swap1\n      tag_32\n      jump\t// in\n    tag_42:\n      dup1\n      0x1f\n      add\n      0x20\n      dup1\n      swap2\n      div\n      mul\n      0x20\n      add\n      mload(0x40)\n      swap1\n      dup2\n      add\n      0x40\n      mstore\n      dup1\n      swap3\n      swap2\n      swap1\n      dup2\n      dup2\n      mstore\n      0x20\n      add\n      dup3\n      dup1\n      sload\n      tag_43\n      swap1\n      tag_32\n      jump\t// in\n    tag_43:\n      dup1\n      iszero\n      tag_44\n      jumpi\n      dup1\n      0x1f\n      lt\n      tag_45\n      jumpi\n      0x0100\n      dup1\n      dup4\n      sload\n      div\n      mul\n      dup4\n      mstore\n      swap2\n      0x20\n      add\n      swap2\n      jump(tag_44)\n    tag_45:\n      dup3\n      add\n      swap2\n      swap1\n      0x00\n      mstore\n      keccak256(0x00, 0x20)\n      swap1\n    tag_46:\n      dup2\n      sload\n      dup2\n      mstore\n      swap1\n      0x01\n      add\n      swap1\n      0x20\n      add\n      dup1\n      dup4\n      gt\n      tag_46\n      jumpi\n      dup3\n      swap1\n      sub\n      0x1f\n      and\n      dup3\n      add\n      swap2\n    tag_44:\n      pop\n      pop\n      pop\n      pop\n      pop\n      dup2\n      jump\t// out\n        /* \"contracts/firstTestContract.sol\":234:277  bytes public bytesString = 'can be changed' */\n    tag_19:\n      0x02\n      dup1\n      sload\n      tag_47\n      swap1\n      tag_32\n      jump\t// in\n    tag_47:\n      dup1\n      0x1f\n      add\n      0x20\n      dup1\n      swap2\n      div\n      mul\n      0x20\n      add\n      mload(0x40)\n      swap1\n      dup2\n      add\n      0x40\n      mstore\n      dup1\n      swap3\n      swap2\n      swap1\n      dup2\n      dup2\n      mstore\n      0x20\n      add\n      dup3\n      dup1\n      sload\n      tag_48\n      swap1\n      tag_32\n      jump\t// in\n    tag_48:\n      dup1\n      iszero\n      tag_49\n      jumpi\n      dup1\n      0x1f\n      lt\n      tag_50\n      jumpi\n      0x0100\n      dup1\n      dup4\n      sload\n      div\n      mul\n      dup4\n      mstore\n      swap2\n      0x20\n      add\n      swap2\n      jump(tag_49)\n    tag_50:\n      dup3\n      add\n      swap2\n      swap1\n      0x00\n      mstore\n      keccak256(0x00, 0x20)\n      swap1\n    tag_51:\n      dup2\n      sload\n      dup2\n      mstore\n      swap1\n      0x01\n      add\n      swap1\n      0x20\n      add\n      dup1\n      dup4\n      gt\n      tag_51\n      jumpi\n      dup3\n      swap1\n      sub\n      0x1f\n      and\n      dup3\n      add\n      swap2\n    tag_49:\n      pop\n      pop\n      pop\n      pop\n      pop\n      dup2\n      jump\t// out\n        /* \"contracts/firstTestContract.sol\":719:824  function getElementFromBytes(uint i) public view returns(bytes1) {... */\n    tag_25:\n        /* \"contracts/firstTestContract.sol\":776:782  bytes1 */\n      0x00\n        /* \"contracts/firstTestContract.sol\":802:813  bytesString */\n      0x02\n        /* \"contracts/firstTestContract.sol\":814:815  i */\n      dup3\n        /* \"contracts/firstTestContract.sol\":802:816  bytesString[i] */\n      dup2\n      sload\n      tag_53\n      swap1\n      tag_32\n      jump\t// in\n    tag_53:\n      dup2\n      lt\n      tag_54\n      jumpi\n      tag_55\n      tag_56\n      jump\t// in\n    tag_55:\n    tag_54:\n      dup2\n      sload\n      0x01\n      and\n      iszero\n      tag_57\n      jumpi\n      swap1\n      0x00\n      mstore\n      keccak256(0x00, 0x20)\n      swap1\n      0x20\n      swap2\n      dup3\n      dup3\n      div\n      add\n      swap2\n      swap1\n      mod\n    tag_57:\n      swap1\n      sload\n      swap1\n      byte\n      0x0100000000000000000000000000000000000000000000000000000000000000\n      mul\n        /* \"contracts/firstTestContract.sol\":795:816  return bytesString[i] */\n      swap1\n      pop\n        /* \"contracts/firstTestContract.sol\":719:824  function getElementFromBytes(uint i) public view returns(bytes1) {... */\n      swap2\n      swap1\n      pop\n      jump\t// out\n        /* \"contracts/firstTestContract.sol\":507:711  function getStringFromBytes() public view returns(string memory) {... */\n    tag_29:\n        /* \"contracts/firstTestContract.sol\":557:570  string memory */\n      0x60\n        /* \"contracts/firstTestContract.sol\":618:619  0 */\n      0x00\n        /* \"contracts/firstTestContract.sol\":596:607  bytesString */\n      0x02\n        /* \"contracts/firstTestContract.sol\":590:615  bytes(bytesString).length */\n      dup1\n      sload\n      tag_59\n      swap1\n      tag_32\n      jump\t// in\n    tag_59:\n      swap1\n      pop\n        /* \"contracts/firstTestContract.sol\":590:619  bytes(bytesString).length > 0 */\n      gt\n        /* \"contracts/firstTestContract.sol\":590:703  bytes(bytesString).length > 0 ? string(abi.encodePacked(\"The byte array is: \", bytesString)) : \"Empty Byte Array\" */\n      tag_60\n      jumpi\n      mload(0x40)\n      dup1\n      0x40\n      add\n      0x40\n      mstore\n      dup1\n      0x10\n      dup2\n      mstore\n      0x20\n      add\n      0x456d707479204279746520417272617900000000000000000000000000000000\n      dup2\n      mstore\n      pop\n      jump(tag_61)\n    tag_60:\n        /* \"contracts/firstTestContract.sol\":669:680  bytesString */\n      0x02\n        /* \"contracts/firstTestContract.sol\":629:681  abi.encodePacked(\"The byte array is: \", bytesString) */\n      add(0x20, mload(0x40))\n      tag_62\n      swap2\n      swap1\n      tag_63\n      jump\t// in\n    tag_62:\n      mload(0x40)\n      0x20\n      dup2\n      dup4\n      sub\n      sub\n      dup2\n      mstore\n      swap1\n      0x40\n      mstore\n        /* \"contracts/firstTestContract.sol\":590:703  bytes(bytesString).length > 0 ? string(abi.encodePacked(\"The byte array is: \", bytesString)) : \"Empty Byte Array\" */\n    tag_61:\n        /* \"contracts/firstTestContract.sol\":583:703  return bytes(bytesString).length > 0 ? string(abi.encodePacked(\"The byte array is: \", bytesString)) : \"Empty Byte Array\" */\n      swap1\n      pop\n        /* \"contracts/firstTestContract.sol\":507:711  function getStringFromBytes() public view returns(string memory) {... */\n      swap1\n      jump\t// out\n        /* \"#utility.yul\":7:106   */\n    tag_64:\n        /* \"#utility.yul\":59:65   */\n      0x00\n        /* \"#utility.yul\":93:98   */\n      dup2\n        /* \"#utility.yul\":87:99   */\n      mload\n        /* \"#utility.yul\":77:99   */\n      swap1\n      pop\n        /* \"#utility.yul\":7:106   */\n      swap2\n      swap1\n      pop\n      jump\t// out\n        /* \"#utility.yul\":112:281   */\n    tag_65:\n        /* \"#utility.yul\":196:207   */\n      0x00\n        /* \"#utility.yul\":230:236   */\n      dup3\n        /* \"#utility.yul\":225:228   */\n      dup3\n        /* \"#utility.yul\":218:237   */\n      mstore\n        /* \"#utility.yul\":270:274   */\n      0x20\n        /* \"#utility.yul\":265:268   */\n      dup3\n        /* \"#utility.yul\":261:275   */\n      add\n        /* \"#utility.yul\":246:275   */\n      swap1\n      pop\n        /* \"#utility.yul\":112:281   */\n      swap3\n      swap2\n      pop\n      pop\n      jump\t// out\n        /* \"#utility.yul\":287:426   */\n    tag_66:\n        /* \"#utility.yul\":376:382   */\n      dup3\n        /* \"#utility.yul\":371:374   */\n      dup2\n        /* \"#utility.yul\":366:369   */\n      dup4\n        /* \"#utility.yul\":360:383   */\n      mcopy\n        /* \"#utility.yul\":417:418   */\n      0x00\n        /* \"#utility.yul\":408:414   */\n      dup4\n        /* \"#utility.yul\":403:406   */\n      dup4\n        /* \"#utility.yul\":399:415   */\n      add\n        /* \"#utility.yul\":392:419   */\n      mstore\n        /* \"#utility.yul\":287:426   */\n      pop\n      pop\n      pop\n      jump\t// out\n        /* \"#utility.yul\":432:534   */\n    tag_67:\n        /* \"#utility.yul\":473:479   */\n      0x00\n        /* \"#utility.yul\":524:526   */\n      0x1f\n        /* \"#utility.yul\":520:527   */\n      not\n        /* \"#utility.yul\":515:517   */\n      0x1f\n        /* \"#utility.yul\":508:513   */\n      dup4\n        /* \"#utility.yul\":504:518   */\n      add\n        /* \"#utility.yul\":500:528   */\n      and\n        /* \"#utility.yul\":490:528   */\n      swap1\n      pop\n        /* \"#utility.yul\":432:534   */\n      swap2\n      swap1\n      pop\n      jump\t// out\n        /* \"#utility.yul\":540:917   */\n    tag_68:\n        /* \"#utility.yul\":628:631   */\n      0x00\n        /* \"#utility.yul\":656:695   */\n      tag_110\n        /* \"#utility.yul\":689:694   */\n      dup3\n        /* \"#utility.yul\":656:695   */\n      tag_64\n      jump\t// in\n    tag_110:\n        /* \"#utility.yul\":711:782   */\n      tag_111\n        /* \"#utility.yul\":775:781   */\n      dup2\n        /* \"#utility.yul\":770:773   */\n      dup6\n        /* \"#utility.yul\":711:782   */\n      tag_65\n      jump\t// in\n    tag_111:\n        /* \"#utility.yul\":704:782   */\n      swap4\n      pop\n        /* \"#utility.yul\":791:856   */\n      tag_112\n        /* \"#utility.yul\":849:855   */\n      dup2\n        /* \"#utility.yul\":844:847   */\n      dup6\n        /* \"#utility.yul\":837:841   */\n      0x20\n        /* \"#utility.yul\":830:835   */\n      dup7\n        /* \"#utility.yul\":826:842   */\n      add\n        /* \"#utility.yul\":791:856   */\n      tag_66\n      jump\t// in\n    tag_112:\n        /* \"#utility.yul\":881:910   */\n      tag_113\n        /* \"#utility.yul\":903:909   */\n      dup2\n        /* \"#utility.yul\":881:910   */\n      tag_67\n      jump\t// in\n    tag_113:\n        /* \"#utility.yul\":876:879   */\n      dup5\n        /* \"#utility.yul\":872:911   */\n      add\n        /* \"#utility.yul\":865:911   */\n      swap2\n      pop\n        /* \"#utility.yul\":632:917   */\n      pop\n        /* \"#utility.yul\":540:917   */\n      swap3\n      swap2\n      pop\n      pop\n      jump\t// out\n        /* \"#utility.yul\":923:1236   */\n    tag_12:\n        /* \"#utility.yul\":1036:1040   */\n      0x00\n        /* \"#utility.yul\":1074:1076   */\n      0x20\n        /* \"#utility.yul\":1063:1072   */\n      dup3\n        /* \"#utility.yul\":1059:1077   */\n      add\n        /* \"#utility.yul\":1051:1077   */\n      swap1\n      pop\n        /* \"#utility.yul\":1123:1132   */\n      dup2\n        /* \"#utility.yul\":1117:1121   */\n      dup2\n        /* \"#utility.yul\":1113:1133   */\n      sub\n        /* \"#utility.yul\":1109:1110   */\n      0x00\n        /* \"#utility.yul\":1098:1107   */\n      dup4\n        /* \"#utility.yul\":1094:1111   */\n      add\n        /* \"#utility.yul\":1087:1134   */\n      mstore\n        /* \"#utility.yul\":1151:1229   */\n      tag_115\n        /* \"#utility.yul\":1224:1228   */\n      dup2\n        /* \"#utility.yul\":1215:1221   */\n      dup5\n        /* \"#utility.yul\":1151:1229   */\n      tag_68\n      jump\t// in\n    tag_115:\n        /* \"#utility.yul\":1143:1229   */\n      swap1\n      pop\n        /* \"#utility.yul\":923:1236   */\n      swap3\n      swap2\n      pop\n      pop\n      jump\t// out\n        /* \"#utility.yul\":1242:1340   */\n    tag_69:\n        /* \"#utility.yul\":1293:1299   */\n      0x00\n        /* \"#utility.yul\":1327:1332   */\n      dup2\n        /* \"#utility.yul\":1321:1333   */\n      mload\n        /* \"#utility.yul\":1311:1333   */\n      swap1\n      pop\n        /* \"#utility.yul\":1242:1340   */\n      swap2\n      swap1\n      pop\n      jump\t// out\n        /* \"#utility.yul\":1346:1514   */\n    tag_70:\n        /* \"#utility.yul\":1429:1440   */\n      0x00\n        /* \"#utility.yul\":1463:1469   */\n      dup3\n        /* \"#utility.yul\":1458:1461   */\n      dup3\n        /* \"#utility.yul\":1451:1470   */\n      mstore\n        /* \"#utility.yul\":1503:1507   */\n      0x20\n        /* \"#utility.yul\":1498:1501   */\n      dup3\n        /* \"#utility.yul\":1494:1508   */\n      add\n        /* \"#utility.yul\":1479:1508   */\n      swap1\n      pop\n        /* \"#utility.yul\":1346:1514   */\n      swap3\n      swap2\n      pop\n      pop\n      jump\t// out\n        /* \"#utility.yul\":1520:1893   */\n    tag_71:\n        /* \"#utility.yul\":1606:1609   */\n      0x00\n        /* \"#utility.yul\":1634:1672   */\n      tag_119\n        /* \"#utility.yul\":1666:1671   */\n      dup3\n        /* \"#utility.yul\":1634:1672   */\n      tag_69\n      jump\t// in\n    tag_119:\n        /* \"#utility.yul\":1688:1758   */\n      tag_120\n        /* \"#utility.yul\":1751:1757   */\n      dup2\n        /* \"#utility.yul\":1746:1749   */\n      dup6\n        /* \"#utility.yul\":1688:1758   */\n      tag_70\n      jump\t// in\n    tag_120:\n        /* \"#utility.yul\":1681:1758   */\n      swap4\n      pop\n        /* \"#utility.yul\":1767:1832   */\n      tag_121\n        /* \"#utility.yul\":1825:1831   */\n      dup2\n        /* \"#utility.yul\":1820:1823   */\n      dup6\n        /* \"#utility.yul\":1813:1817   */\n      0x20\n        /* \"#utility.yul\":1806:1811   */\n      dup7\n        /* \"#utility.yul\":1802:1818   */\n      add\n        /* \"#utility.yul\":1767:1832   */\n      tag_66\n      jump\t// in\n    tag_121:\n        /* \"#utility.yul\":1857:1886   */\n      tag_122\n        /* \"#utility.yul\":1879:1885   */\n      dup2\n        /* \"#utility.yul\":1857:1886   */\n      tag_67\n      jump\t// in\n    tag_122:\n        /* \"#utility.yul\":1852:1855   */\n      dup5\n        /* \"#utility.yul\":1848:1887   */\n      add\n        /* \"#utility.yul\":1841:1887   */\n      swap2\n      pop\n        /* \"#utility.yul\":1610:1893   */\n      pop\n        /* \"#utility.yul\":1520:1893   */\n      swap3\n      swap2\n      pop\n      pop\n      jump\t// out\n        /* \"#utility.yul\":1899:2208   */\n    tag_21:\n        /* \"#utility.yul\":2010:2014   */\n      0x00\n        /* \"#utility.yul\":2048:2050   */\n      0x20\n        /* \"#utility.yul\":2037:2046   */\n      dup3\n        /* \"#utility.yul\":2033:2051   */\n      add\n        /* \"#utility.yul\":2025:2051   */\n      swap1\n      pop\n        /* \"#utility.yul\":2097:2106   */\n      dup2\n        /* \"#utility.yul\":2091:2095   */\n      dup2\n        /* \"#utility.yul\":2087:2107   */\n      sub\n        /* \"#utility.yul\":2083:2084   */\n      0x00\n        /* \"#utility.yul\":2072:2081   */\n      dup4\n        /* \"#utility.yul\":2068:2085   */\n      add\n        /* \"#utility.yul\":2061:2108   */\n      mstore\n        /* \"#utility.yul\":2125:2201   */\n      tag_124\n        /* \"#utility.yul\":2196:2200   */\n      dup2\n        /* \"#utility.yul\":2187:2193   */\n      dup5\n        /* \"#utility.yul\":2125:2201   */\n      tag_71\n      jump\t// in\n    tag_124:\n        /* \"#utility.yul\":2117:2201   */\n      swap1\n      pop\n        /* \"#utility.yul\":1899:2208   */\n      swap3\n      swap2\n      pop\n      pop\n      jump\t// out\n        /* \"#utility.yul\":2295:2412   */\n    tag_73:\n        /* \"#utility.yul\":2404:2405   */\n      0x00\n        /* \"#utility.yul\":2401:2402   */\n      dup1\n        /* \"#utility.yul\":2394:2406   */\n      revert\n        /* \"#utility.yul\":2541:2618   */\n    tag_75:\n        /* \"#utility.yul\":2578:2585   */\n      0x00\n        /* \"#utility.yul\":2607:2612   */\n      dup2\n        /* \"#utility.yul\":2596:2612   */\n      swap1\n      pop\n        /* \"#utility.yul\":2541:2618   */\n      swap2\n      swap1\n      pop\n      jump\t// out\n        /* \"#utility.yul\":2624:2746   */\n    tag_76:\n        /* \"#utility.yul\":2697:2721   */\n      tag_130\n        /* \"#utility.yul\":2715:2720   */\n      dup2\n        /* \"#utility.yul\":2697:2721   */\n      tag_75\n      jump\t// in\n    tag_130:\n        /* \"#utility.yul\":2690:2695   */\n      dup2\n        /* \"#utility.yul\":2687:2722   */\n      eq\n        /* \"#utility.yul\":2677:2740   */\n      tag_131\n      jumpi\n        /* \"#utility.yul\":2736:2737   */\n      0x00\n        /* \"#utility.yul\":2733:2734   */\n      dup1\n        /* \"#utility.yul\":2726:2738   */\n      revert\n        /* \"#utility.yul\":2677:2740   */\n    tag_131:\n        /* \"#utility.yul\":2624:2746   */\n      pop\n      jump\t// out\n        /* \"#utility.yul\":2752:2891   */\n    tag_77:\n        /* \"#utility.yul\":2798:2803   */\n      0x00\n        /* \"#utility.yul\":2836:2842   */\n      dup2\n        /* \"#utility.yul\":2823:2843   */\n      calldataload\n        /* \"#utility.yul\":2814:2843   */\n      swap1\n      pop\n        /* \"#utility.yul\":2852:2885   */\n      tag_133\n        /* \"#utility.yul\":2879:2884   */\n      dup2\n        /* \"#utility.yul\":2852:2885   */\n      tag_76\n      jump\t// in\n    tag_133:\n        /* \"#utility.yul\":2752:2891   */\n      swap3\n      swap2\n      pop\n      pop\n      jump\t// out\n        /* \"#utility.yul\":2897:3226   */\n    tag_24:\n        /* \"#utility.yul\":2956:2962   */\n      0x00\n        /* \"#utility.yul\":3005:3007   */\n      0x20\n        /* \"#utility.yul\":2993:3002   */\n      dup3\n        /* \"#utility.yul\":2984:2991   */\n      dup5\n        /* \"#utility.yul\":2980:3003   */\n      sub\n        /* \"#utility.yul\":2976:3008   */\n      slt\n        /* \"#utility.yul\":2973:3092   */\n      iszero\n      tag_135\n      jumpi\n        /* \"#utility.yul\":3011:3090   */\n      tag_136\n      tag_73\n      jump\t// in\n    tag_136:\n        /* \"#utility.yul\":2973:3092   */\n    tag_135:\n        /* \"#utility.yul\":3131:3132   */\n      0x00\n        /* \"#utility.yul\":3156:3209   */\n      tag_137\n        /* \"#utility.yul\":3201:3208   */\n      dup5\n        /* \"#utility.yul\":3192:3198   */\n      dup3\n        /* \"#utility.yul\":3181:3190   */\n      dup6\n        /* \"#utility.yul\":3177:3199   */\n      add\n        /* \"#utility.yul\":3156:3209   */\n      tag_77\n      jump\t// in\n    tag_137:\n        /* \"#utility.yul\":3146:3209   */\n      swap2\n      pop\n        /* \"#utility.yul\":3102:3219   */\n      pop\n        /* \"#utility.yul\":2897:3226   */\n      swap3\n      swap2\n      pop\n      pop\n      jump\t// out\n        /* \"#utility.yul\":3232:3381   */\n    tag_78:\n        /* \"#utility.yul\":3268:3275   */\n      0x00\n        /* \"#utility.yul\":3308:3374   */\n      0xff00000000000000000000000000000000000000000000000000000000000000\n        /* \"#utility.yul\":3301:3306   */\n      dup3\n        /* \"#utility.yul\":3297:3375   */\n      and\n        /* \"#utility.yul\":3286:3375   */\n      swap1\n      pop\n        /* \"#utility.yul\":3232:3381   */\n      swap2\n      swap1\n      pop\n      jump\t// out\n        /* \"#utility.yul\":3387:3502   */\n    tag_79:\n        /* \"#utility.yul\":3472:3495   */\n      tag_140\n        /* \"#utility.yul\":3489:3494   */\n      dup2\n        /* \"#utility.yul\":3472:3495   */\n      tag_78\n      jump\t// in\n    tag_140:\n        /* \"#utility.yul\":3467:3470   */\n      dup3\n        /* \"#utility.yul\":3460:3496   */\n      mstore\n        /* \"#utility.yul\":3387:3502   */\n      pop\n      pop\n      jump\t// out\n        /* \"#utility.yul\":3508:3726   */\n    tag_27:\n        /* \"#utility.yul\":3599:3603   */\n      0x00\n        /* \"#utility.yul\":3637:3639   */\n      0x20\n        /* \"#utility.yul\":3626:3635   */\n      dup3\n        /* \"#utility.yul\":3622:3640   */\n      add\n        /* \"#utility.yul\":3614:3640   */\n      swap1\n      pop\n        /* \"#utility.yul\":3650:3719   */\n      tag_142\n        /* \"#utility.yul\":3716:3717   */\n      0x00\n        /* \"#utility.yul\":3705:3714   */\n      dup4\n        /* \"#utility.yul\":3701:3718   */\n      add\n        /* \"#utility.yul\":3692:3698   */\n      dup5\n        /* \"#utility.yul\":3650:3719   */\n      tag_79\n      jump\t// in\n    tag_142:\n        /* \"#utility.yul\":3508:3726   */\n      swap3\n      swap2\n      pop\n      pop\n      jump\t// out\n        /* \"#utility.yul\":3732:3912   */\n    tag_80:\n        /* \"#utility.yul\":3780:3857   */\n      0x4e487b7100000000000000000000000000000000000000000000000000000000\n        /* \"#utility.yul\":3777:3778   */\n      0x00\n        /* \"#utility.yul\":3770:3858   */\n      mstore\n        /* \"#utility.yul\":3877:3881   */\n      0x22\n        /* \"#utility.yul\":3874:3875   */\n      0x04\n        /* \"#utility.yul\":3867:3882   */\n      mstore\n        /* \"#utility.yul\":3901:3905   */\n      0x24\n        /* \"#utility.yul\":3898:3899   */\n      0x00\n        /* \"#utility.yul\":3891:3906   */\n      revert\n        /* \"#utility.yul\":3918:4238   */\n    tag_32:\n        /* \"#utility.yul\":3962:3968   */\n      0x00\n        /* \"#utility.yul\":3999:4000   */\n      0x02\n        /* \"#utility.yul\":3993:3997   */\n      dup3\n        /* \"#utility.yul\":3989:4001   */\n      div\n        /* \"#utility.yul\":3979:4001   */\n      swap1\n      pop\n        /* \"#utility.yul\":4046:4047   */\n      0x01\n        /* \"#utility.yul\":4040:4044   */\n      dup3\n        /* \"#utility.yul\":4036:4048   */\n      and\n        /* \"#utility.yul\":4067:4085   */\n      dup1\n        /* \"#utility.yul\":4057:4138   */\n      tag_145\n      jumpi\n        /* \"#utility.yul\":4123:4127   */\n      0x7f\n        /* \"#utility.yul\":4115:4121   */\n      dup3\n        /* \"#utility.yul\":4111:4128   */\n      and\n        /* \"#utility.yul\":4101:4128   */\n      swap2\n      pop\n        /* \"#utility.yul\":4057:4138   */\n    tag_145:\n        /* \"#utility.yul\":4185:4187   */\n      0x20\n        /* \"#utility.yul\":4177:4183   */\n      dup3\n        /* \"#utility.yul\":4174:4188   */\n      lt\n        /* \"#utility.yul\":4154:4172   */\n      dup2\n        /* \"#utility.yul\":4151:4189   */\n      sub\n        /* \"#utility.yul\":4148:4232   */\n      tag_146\n      jumpi\n        /* \"#utility.yul\":4204:4222   */\n      tag_147\n      tag_80\n      jump\t// in\n    tag_147:\n        /* \"#utility.yul\":4148:4232   */\n    tag_146:\n        /* \"#utility.yul\":3969:4238   */\n      pop\n        /* \"#utility.yul\":3918:4238   */\n      swap2\n      swap1\n      pop\n      jump\t// out\n        /* \"#utility.yul\":4244:4391   */\n    tag_81:\n        /* \"#utility.yul\":4345:4356   */\n      0x00\n        /* \"#utility.yul\":4382:4385   */\n      dup2\n        /* \"#utility.yul\":4367:4385   */\n      swap1\n      pop\n        /* \"#utility.yul\":4244:4391   */\n      swap3\n      swap2\n      pop\n      pop\n      jump\t// out\n        /* \"#utility.yul\":4397:4537   */\n    tag_82:\n        /* \"#utility.yul\":4445:4449   */\n      0x00\n        /* \"#utility.yul\":4468:4471   */\n      dup2\n        /* \"#utility.yul\":4460:4471   */\n      swap1\n      pop\n        /* \"#utility.yul\":4491:4494   */\n      dup2\n        /* \"#utility.yul\":4488:4489   */\n      0x00\n        /* \"#utility.yul\":4481:4495   */\n      mstore\n        /* \"#utility.yul\":4525:4529   */\n      0x20\n        /* \"#utility.yul\":4522:4523   */\n      0x00\n        /* \"#utility.yul\":4512:4530   */\n      keccak256\n        /* \"#utility.yul\":4504:4530   */\n      swap1\n      pop\n        /* \"#utility.yul\":4397:4537   */\n      swap2\n      swap1\n      pop\n      jump\t// out\n        /* \"#utility.yul\":4565:5435   */\n    tag_83:\n        /* \"#utility.yul\":4666:4669   */\n      0x00\n        /* \"#utility.yul\":4703:4708   */\n      dup2\n        /* \"#utility.yul\":4697:4709   */\n      sload\n        /* \"#utility.yul\":4732:4768   */\n      tag_151\n        /* \"#utility.yul\":4758:4767   */\n      dup2\n        /* \"#utility.yul\":4732:4768   */\n      tag_32\n      jump\t// in\n    tag_151:\n        /* \"#utility.yul\":4784:4872   */\n      tag_152\n        /* \"#utility.yul\":4865:4871   */\n      dup2\n        /* \"#utility.yul\":4860:4863   */\n      dup7\n        /* \"#utility.yul\":4784:4872   */\n      tag_81\n      jump\t// in\n    tag_152:\n        /* \"#utility.yul\":4777:4872   */\n      swap5\n      pop\n        /* \"#utility.yul\":4903:4904   */\n      0x01\n        /* \"#utility.yul\":4892:4901   */\n      dup3\n        /* \"#utility.yul\":4888:4905   */\n      and\n        /* \"#utility.yul\":4919:4920   */\n      0x00\n        /* \"#utility.yul\":4914:5080   */\n      dup2\n      eq\n      tag_154\n      jumpi\n        /* \"#utility.yul\":5094:5095   */\n      0x01\n        /* \"#utility.yul\":5089:5429   */\n      dup2\n      eq\n      tag_155\n      jumpi\n        /* \"#utility.yul\":4881:5429   */\n      jump(tag_153)\n        /* \"#utility.yul\":4914:5080   */\n    tag_154:\n        /* \"#utility.yul\":4998:5002   */\n      0xff\n        /* \"#utility.yul\":4994:5003   */\n      not\n        /* \"#utility.yul\":4983:4992   */\n      dup4\n        /* \"#utility.yul\":4979:5004   */\n      and\n        /* \"#utility.yul\":4974:4977   */\n      dup7\n        /* \"#utility.yul\":4967:5005   */\n      mstore\n        /* \"#utility.yul\":5060:5066   */\n      dup2\n        /* \"#utility.yul\":5053:5067   */\n      iszero\n        /* \"#utility.yul\":5046:5068   */\n      iszero\n        /* \"#utility.yul\":5038:5044   */\n      dup3\n        /* \"#utility.yul\":5034:5069   */\n      mul\n        /* \"#utility.yul\":5029:5032   */\n      dup7\n        /* \"#utility.yul\":5025:5070   */\n      add\n        /* \"#utility.yul\":5018:5070   */\n      swap4\n      pop\n        /* \"#utility.yul\":4914:5080   */\n      jump(tag_153)\n        /* \"#utility.yul\":5089:5429   */\n    tag_155:\n        /* \"#utility.yul\":5156:5193   */\n      tag_156\n        /* \"#utility.yul\":5187:5192   */\n      dup6\n        /* \"#utility.yul\":5156:5193   */\n      tag_82\n      jump\t// in\n    tag_156:\n        /* \"#utility.yul\":5215:5216   */\n      0x00\n        /* \"#utility.yul\":5229:5383   */\n    tag_157:\n        /* \"#utility.yul\":5243:5249   */\n      dup4\n        /* \"#utility.yul\":5240:5241   */\n      dup2\n        /* \"#utility.yul\":5237:5250   */\n      lt\n        /* \"#utility.yul\":5229:5383   */\n      iszero\n      tag_159\n      jumpi\n        /* \"#utility.yul\":5317:5324   */\n      dup2\n        /* \"#utility.yul\":5311:5325   */\n      sload\n        /* \"#utility.yul\":5307:5308   */\n      dup2\n        /* \"#utility.yul\":5302:5305   */\n      dup10\n        /* \"#utility.yul\":5298:5309   */\n      add\n        /* \"#utility.yul\":5291:5326   */\n      mstore\n        /* \"#utility.yul\":5367:5368   */\n      0x01\n        /* \"#utility.yul\":5358:5365   */\n      dup3\n        /* \"#utility.yul\":5354:5369   */\n      add\n        /* \"#utility.yul\":5343:5369   */\n      swap2\n      pop\n        /* \"#utility.yul\":5265:5269   */\n      0x20\n        /* \"#utility.yul\":5262:5263   */\n      dup2\n        /* \"#utility.yul\":5258:5270   */\n      add\n        /* \"#utility.yul\":5253:5270   */\n      swap1\n      pop\n        /* \"#utility.yul\":5229:5383   */\n      jump(tag_157)\n    tag_159:\n        /* \"#utility.yul\":5412:5418   */\n      dup4\n        /* \"#utility.yul\":5407:5410   */\n      dup9\n        /* \"#utility.yul\":5403:5419   */\n      add\n        /* \"#utility.yul\":5396:5419   */\n      swap6\n      pop\n        /* \"#utility.yul\":5096:5429   */\n      pop\n      pop\n        /* \"#utility.yul\":4881:5429   */\n    tag_153:\n      pop\n        /* \"#utility.yul\":4670:5435   */\n      pop\n      pop\n        /* \"#utility.yul\":4565:5435   */\n      swap3\n      swap2\n      pop\n      pop\n      jump\t// out\n        /* \"#utility.yul\":5441:5589   */\n    tag_84:\n        /* \"#utility.yul\":5543:5554   */\n      0x00\n        /* \"#utility.yul\":5580:5583   */\n      dup2\n        /* \"#utility.yul\":5565:5583   */\n      swap1\n      pop\n        /* \"#utility.yul\":5441:5589   */\n      swap3\n      swap2\n      pop\n      pop\n      jump\t// out\n        /* \"#utility.yul\":5595:5749   */\n    tag_85:\n        /* \"#utility.yul\":5735:5741   */\n      0x7861616100000000000000000000000000000000000000000000000000000000\n        /* \"#utility.yul\":5731:5732   */\n      0x00\n        /* \"#utility.yul\":5723:5729   */\n      dup3\n        /* \"#utility.yul\":5719:5733   */\n      add\n        /* \"#utility.yul\":5712:5742   */\n      mstore\n        /* \"#utility.yul\":5595:5749   */\n      pop\n      jump\t// out\n        /* \"#utility.yul\":5755:6155   */\n    tag_86:\n        /* \"#utility.yul\":5915:5918   */\n      0x00\n        /* \"#utility.yul\":5936:6020   */\n      tag_163\n        /* \"#utility.yul\":6018:6019   */\n      0x04\n        /* \"#utility.yul\":6013:6016   */\n      dup4\n        /* \"#utility.yul\":5936:6020   */\n      tag_84\n      jump\t// in\n    tag_163:\n        /* \"#utility.yul\":5929:6020   */\n      swap2\n      pop\n        /* \"#utility.yul\":6029:6122   */\n      tag_164\n        /* \"#utility.yul\":6118:6121   */\n      dup3\n        /* \"#utility.yul\":6029:6122   */\n      tag_85\n      jump\t// in\n    tag_164:\n        /* \"#utility.yul\":6147:6148   */\n      0x04\n        /* \"#utility.yul\":6142:6145   */\n      dup3\n        /* \"#utility.yul\":6138:6149   */\n      add\n        /* \"#utility.yul\":6131:6149   */\n      swap1\n      pop\n        /* \"#utility.yul\":5755:6155   */\n      swap2\n      swap1\n      pop\n      jump\t// out\n        /* \"#utility.yul\":6161:6692   */\n    tag_39:\n        /* \"#utility.yul\":6389:6392   */\n      0x00\n        /* \"#utility.yul\":6411:6501   */\n      tag_166\n        /* \"#utility.yul\":6497:6500   */\n      dup3\n        /* \"#utility.yul\":6488:6494   */\n      dup5\n        /* \"#utility.yul\":6411:6501   */\n      tag_83\n      jump\t// in\n    tag_166:\n        /* \"#utility.yul\":6404:6501   */\n      swap2\n      pop\n        /* \"#utility.yul\":6518:6666   */\n      tag_167\n        /* \"#utility.yul\":6662:6665   */\n      dup3\n        /* \"#utility.yul\":6518:6666   */\n      tag_86\n      jump\t// in\n    tag_167:\n        /* \"#utility.yul\":6511:6666   */\n      swap2\n      pop\n        /* \"#utility.yul\":6683:6686   */\n      dup2\n        /* \"#utility.yul\":6676:6686   */\n      swap1\n      pop\n        /* \"#utility.yul\":6161:6692   */\n      swap3\n      swap2\n      pop\n      pop\n      jump\t// out\n        /* \"#utility.yul\":6698:6878   */\n    tag_87:\n        /* \"#utility.yul\":6746:6823   */\n      0x4e487b7100000000000000000000000000000000000000000000000000000000\n        /* \"#utility.yul\":6743:6744   */\n      0x00\n        /* \"#utility.yul\":6736:6824   */\n      mstore\n        /* \"#utility.yul\":6843:6847   */\n      0x41\n        /* \"#utility.yul\":6840:6841   */\n      0x04\n        /* \"#utility.yul\":6833:6848   */\n      mstore\n        /* \"#utility.yul\":6867:6871   */\n      0x24\n        /* \"#utility.yul\":6864:6865   */\n      0x00\n        /* \"#utility.yul\":6857:6872   */\n      revert\n        /* \"#utility.yul\":6884:6977   */\n    tag_88:\n        /* \"#utility.yul\":6921:6927   */\n      0x00\n        /* \"#utility.yul\":6968:6970   */\n      0x20\n        /* \"#utility.yul\":6963:6965   */\n      0x1f\n        /* \"#utility.yul\":6956:6961   */\n      dup4\n        /* \"#utility.yul\":6952:6966   */\n      add\n        /* \"#utility.yul\":6948:6971   */\n      div\n        /* \"#utility.yul\":6938:6971   */\n      swap1\n      pop\n        /* \"#utility.yul\":6884:6977   */\n      swap2\n      swap1\n      pop\n      jump\t// out\n        /* \"#utility.yul\":6983:7090   */\n    tag_89:\n        /* \"#utility.yul\":7027:7035   */\n      0x00\n        /* \"#utility.yul\":7077:7082   */\n      dup3\n        /* \"#utility.yul\":7071:7075   */\n      dup3\n        /* \"#utility.yul\":7067:7083   */\n      shl\n        /* \"#utility.yul\":7046:7083   */\n      swap1\n      pop\n        /* \"#utility.yul\":6983:7090   */\n      swap3\n      swap2\n      pop\n      pop\n      jump\t// out\n        /* \"#utility.yul\":7096:7489   */\n    tag_90:\n        /* \"#utility.yul\":7165:7171   */\n      0x00\n        /* \"#utility.yul\":7215:7216   */\n      0x08\n        /* \"#utility.yul\":7203:7213   */\n      dup4\n        /* \"#utility.yul\":7199:7217   */\n      mul\n        /* \"#utility.yul\":7238:7335   */\n      tag_172\n        /* \"#utility.yul\":7268:7334   */\n      0xffffffffffffffffffffffffffffffffffffffffffffffffffffffffffffffff\n        /* \"#utility.yul\":7257:7266   */\n      dup3\n        /* \"#utility.yul\":7238:7335   */\n      tag_89\n      jump\t// in\n    tag_172:\n        /* \"#utility.yul\":7356:7395   */\n      tag_173\n        /* \"#utility.yul\":7386:7394   */\n      dup7\n        /* \"#utility.yul\":7375:7384   */\n      dup4\n        /* \"#utility.yul\":7356:7395   */\n      tag_89\n      jump\t// in\n    tag_173:\n        /* \"#utility.yul\":7344:7395   */\n      swap6\n      pop\n        /* \"#utility.yul\":7428:7432   */\n      dup1\n        /* \"#utility.yul\":7424:7433   */\n      not\n        /* \"#utility.yul\":7417:7422   */\n      dup5\n        /* \"#utility.yul\":7413:7434   */\n      and\n        /* \"#utility.yul\":7404:7434   */\n      swap4\n      pop\n        /* \"#utility.yul\":7477:7481   */\n      dup1\n        /* \"#utility.yul\":7467:7475   */\n      dup7\n        /* \"#utility.yul\":7463:7482   */\n      and\n        /* \"#utility.yul\":7456:7461   */\n      dup5\n        /* \"#utility.yul\":7453:7483   */\n      or\n        /* \"#utility.yul\":7443:7483   */\n      swap3\n      pop\n        /* \"#utility.yul\":7172:7489   */\n      pop\n      pop\n        /* \"#utility.yul\":7096:7489   */\n      swap4\n      swap3\n      pop\n      pop\n      pop\n      jump\t// out\n        /* \"#utility.yul\":7495:7555   */\n    tag_91:\n        /* \"#utility.yul\":7523:7526   */\n      0x00\n        /* \"#utility.yul\":7544:7549   */\n      dup2\n        /* \"#utility.yul\":7537:7549   */\n      swap1\n      pop\n        /* \"#utility.yul\":7495:7555   */\n      swap2\n      swap1\n      pop\n      jump\t// out\n        /* \"#utility.yul\":7561:7703   */\n    tag_92:\n        /* \"#utility.yul\":7611:7620   */\n      0x00\n        /* \"#utility.yul\":7644:7697   */\n      tag_176\n        /* \"#utility.yul\":7662:7696   */\n      tag_177\n        /* \"#utility.yul\":7671:7695   */\n      tag_178\n        /* \"#utility.yul\":7689:7694   */\n      dup5\n        /* \"#utility.yul\":7671:7695   */\n      tag_75\n      jump\t// in\n    tag_178:\n        /* \"#utility.yul\":7662:7696   */\n      tag_91\n      jump\t// in\n    tag_177:\n        /* \"#utility.yul\":7644:7697   */\n      tag_75\n      jump\t// in\n    tag_176:\n        /* \"#utility.yul\":7631:7697   */\n      swap1\n      pop\n        /* \"#utility.yul\":7561:7703   */\n      swap2\n      swap1\n      pop\n      jump\t// out\n        /* \"#utility.yul\":7709:7784   */\n    tag_93:\n        /* \"#utility.yul\":7752:7755   */\n      0x00\n        /* \"#utility.yul\":7773:7778   */\n      dup2\n        /* \"#utility.yul\":7766:7778   */\n      swap1\n      pop\n        /* \"#utility.yul\":7709:7784   */\n      swap2\n      swap1\n      pop\n      jump\t// out\n        /* \"#utility.yul\":7790:8059   */\n    tag_94:\n        /* \"#utility.yul\":7900:7939   */\n      tag_181\n        /* \"#utility.yul\":7931:7938   */\n      dup4\n        /* \"#utility.yul\":7900:7939   */\n      tag_92\n      jump\t// in\n    tag_181:\n        /* \"#utility.yul\":7961:8052   */\n      tag_182\n        /* \"#utility.yul\":8010:8051   */\n      tag_183\n        /* \"#utility.yul\":8034:8050   */\n      dup3\n        /* \"#utility.yul\":8010:8051   */\n      tag_93\n      jump\t// in\n    tag_183:\n        /* \"#utility.yul\":8002:8008   */\n      dup5\n        /* \"#utility.yul\":7995:7999   */\n      dup5\n        /* \"#utility.yul\":7989:8000   */\n      sload\n        /* \"#utility.yul\":7961:8052   */\n      tag_90\n      jump\t// in\n    tag_182:\n        /* \"#utility.yul\":7955:7959   */\n      dup3\n        /* \"#utility.yul\":7948:8053   */\n      sstore\n        /* \"#utility.yul\":7866:8059   */\n      pop\n        /* \"#utility.yul\":7790:8059   */\n      pop\n      pop\n      pop\n      jump\t// out\n        /* \"#utility.yul\":8065:8138   */\n    tag_95:\n        /* \"#utility.yul\":8110:8113   */\n      0x00\n        /* \"#utility.yul\":8065:8138   */\n      swap1\n      jump\t// out\n        /* \"#utility.yul\":8144:8333   */\n    tag_96:\n        /* \"#utility.yul\":8221:8253   */\n      tag_186\n      tag_95\n      jump\t// in\n    tag_186:\n        /* \"#utility.yul\":8262:8327   */\n      tag_187\n        /* \"#utility.yul\":8320:8326   */\n      dup2\n        /* \"#utility.yul\":8312:8318   */\n      dup5\n        /* \"#utility.yul\":8306:8310   */\n      dup5\n        /* \"#utility.yul\":8262:8327   */\n      tag_94\n      jump\t// in\n    tag_187:\n        /* \"#utility.yul\":8197:8333   */\n      pop\n        /* \"#utility.yul\":8144:8333   */\n      pop\n      pop\n      jump\t// out\n        /* \"#utility.yul\":8339:8525   */\n    tag_97:\n        /* \"#utility.yul\":8399:8519   */\n    tag_189:\n        /* \"#utility.yul\":8416:8419   */\n      dup2\n        /* \"#utility.yul\":8409:8414   */\n      dup2\n        /* \"#utility.yul\":8406:8420   */\n      lt\n        /* \"#utility.yul\":8399:8519   */\n      iszero\n      tag_191\n      jumpi\n        /* \"#utility.yul\":8470:8509   */\n      tag_192\n        /* \"#utility.yul\":8507:8508   */\n      0x00\n        /* \"#utility.yul\":8500:8505   */\n      dup3\n        /* \"#utility.yul\":8470:8509   */\n      tag_96\n      jump\t// in\n    tag_192:\n        /* \"#utility.yul\":8443:8444   */\n      0x01\n        /* \"#utility.yul\":8436:8441   */\n      dup2\n        /* \"#utility.yul\":8432:8445   */\n      add\n        /* \"#utility.yul\":8423:8445   */\n      swap1\n      pop\n        /* \"#utility.yul\":8399:8519   */\n      jump(tag_189)\n    tag_191:\n        /* \"#utility.yul\":8339:8525   */\n      pop\n      pop\n      jump\t// out\n        /* \"#utility.yul\":8531:9072   */\n    tag_98:\n        /* \"#utility.yul\":8631:8633   */\n      0x1f\n        /* \"#utility.yul\":8626:8629   */\n      dup3\n        /* \"#utility.yul\":8623:8634   */\n      gt\n        /* \"#utility.yul\":8620:9065   */\n      iszero\n      tag_194\n      jumpi\n        /* \"#utility.yul\":8665:8702   */\n      tag_195\n        /* \"#utility.yul\":8696:8701   */\n      dup2\n        /* \"#utility.yul\":8665:8702   */\n      tag_82\n      jump\t// in\n    tag_195:\n        /* \"#utility.yul\":8748:8777   */\n      tag_196\n        /* \"#utility.yul\":8766:8776   */\n      dup5\n        /* \"#utility.yul\":8748:8777   */\n      tag_88\n      jump\t// in\n    tag_196:\n        /* \"#utility.yul\":8738:8746   */\n      dup2\n        /* \"#utility.yul\":8734:8778   */\n      add\n        /* \"#utility.yul\":8931:8933   */\n      0x20\n        /* \"#utility.yul\":8919:8929   */\n      dup6\n        /* \"#utility.yul\":8916:8934   */\n      lt\n        /* \"#utility.yul\":8913:8962   */\n      iszero\n      tag_197\n      jumpi\n        /* \"#utility.yul\":8952:8960   */\n      dup2\n        /* \"#utility.yul\":8937:8960   */\n      swap1\n      pop\n        /* \"#utility.yul\":8913:8962   */\n    tag_197:\n        /* \"#utility.yul\":8975:9055   */\n      tag_198\n        /* \"#utility.yul\":9031:9053   */\n      tag_199\n        /* \"#utility.yul\":9049:9052   */\n      dup6\n        /* \"#utility.yul\":9031:9053   */\n      tag_88\n      jump\t// in\n    tag_199:\n        /* \"#utility.yul\":9021:9029   */\n      dup4\n        /* \"#utility.yul\":9017:9054   */\n      add\n        /* \"#utility.yul\":9004:9015   */\n      dup3\n        /* \"#utility.yul\":8975:9055   */\n      tag_97\n      jump\t// in\n    tag_198:\n        /* \"#utility.yul\":8635:9065   */\n      pop\n      pop\n        /* \"#utility.yul\":8620:9065   */\n    tag_194:\n        /* \"#utility.yul\":8531:9072   */\n      pop\n      pop\n      pop\n      jump\t// out\n        /* \"#utility.yul\":9078:9195   */\n    tag_99:\n        /* \"#utility.yul\":9132:9140   */\n      0x00\n        /* \"#utility.yul\":9182:9187   */\n      dup3\n        /* \"#utility.yul\":9176:9180   */\n      dup3\n        /* \"#utility.yul\":9172:9188   */\n      shr\n        /* \"#utility.yul\":9151:9188   */\n      swap1\n      pop\n        /* \"#utility.yul\":9078:9195   */\n      swap3\n      swap2\n      pop\n      pop\n      jump\t// out\n        /* \"#utility.yul\":9201:9370   */\n    tag_100:\n        /* \"#utility.yul\":9245:9251   */\n      0x00\n        /* \"#utility.yul\":9278:9329   */\n      tag_202\n        /* \"#utility.yul\":9326:9327   */\n      0x00\n        /* \"#utility.yul\":9322:9328   */\n      not\n        /* \"#utility.yul\":9314:9319   */\n      dup5\n        /* \"#utility.yul\":9311:9312   */\n      0x08\n        /* \"#utility.yul\":9307:9320   */\n      mul\n        /* \"#utility.yul\":9278:9329   */\n      tag_99\n      jump\t// in\n    tag_202:\n        /* \"#utility.yul\":9274:9330   */\n      not\n        /* \"#utility.yul\":9359:9363   */\n      dup1\n        /* \"#utility.yul\":9353:9357   */\n      dup4\n        /* \"#utility.yul\":9349:9364   */\n      and\n        /* \"#utility.yul\":9339:9364   */\n      swap2\n      pop\n        /* \"#utility.yul\":9252:9370   */\n      pop\n        /* \"#utility.yul\":9201:9370   */\n      swap3\n      swap2\n      pop\n      pop\n      jump\t// out\n        /* \"#utility.yul\":9375:9670   */\n    tag_101:\n        /* \"#utility.yul\":9451:9455   */\n      0x00\n        /* \"#utility.yul\":9597:9626   */\n      tag_204\n        /* \"#utility.yul\":9622:9625   */\n      dup4\n        /* \"#utility.yul\":9616:9620   */\n      dup4\n        /* \"#utility.yul\":9597:9626   */\n      tag_100\n      jump\t// in\n    tag_204:\n        /* \"#utility.yul\":9589:9626   */\n      swap2\n      pop\n        /* \"#utility.yul\":9659:9662   */\n      dup3\n        /* \"#utility.yul\":9656:9657   */\n      0x02\n        /* \"#utility.yul\":9652:9663   */\n      mul\n        /* \"#utility.yul\":9646:9650   */\n      dup3\n        /* \"#utility.yul\":9643:9664   */\n      or\n        /* \"#utility.yul\":9635:9664   */\n      swap1\n      pop\n        /* \"#utility.yul\":9375:9670   */\n      swap3\n      swap2\n      pop\n      pop\n      jump\t// out\n        /* \"#utility.yul\":9675:11065   */\n    tag_41:\n        /* \"#utility.yul\":9790:9826   */\n      tag_206\n        /* \"#utility.yul\":9822:9825   */\n      dup3\n        /* \"#utility.yul\":9790:9826   */\n      tag_69\n      jump\t// in\n    tag_206:\n        /* \"#utility.yul\":9891:9909   */\n      0xffffffffffffffff\n        /* \"#utility.yul\":9883:9889   */\n      dup2\n        /* \"#utility.yul\":9880:9910   */\n      gt\n        /* \"#utility.yul\":9877:9933   */\n      iszero\n      tag_207\n      jumpi\n        /* \"#utility.yul\":9913:9931   */\n      tag_208\n      tag_87\n      jump\t// in\n    tag_208:\n        /* \"#utility.yul\":9877:9933   */\n    tag_207:\n        /* \"#utility.yul\":9957:9995   */\n      tag_209\n        /* \"#utility.yul\":9989:9993   */\n      dup3\n        /* \"#utility.yul\":9983:9994   */\n      sload\n        /* \"#utility.yul\":9957:9995   */\n      tag_32\n      jump\t// in\n    tag_209:\n        /* \"#utility.yul\":10042:10108   */\n      tag_210\n        /* \"#utility.yul\":10101:10107   */\n      dup3\n        /* \"#utility.yul\":10093:10099   */\n      dup3\n        /* \"#utility.yul\":10087:10091   */\n      dup6\n        /* \"#utility.yul\":10042:10108   */\n      tag_98\n      jump\t// in\n    tag_210:\n        /* \"#utility.yul\":10135:10136   */\n      0x00\n        /* \"#utility.yul\":10159:10163   */\n      0x20\n        /* \"#utility.yul\":10146:10163   */\n      swap1\n      pop\n        /* \"#utility.yul\":10191:10193   */\n      0x1f\n        /* \"#utility.yul\":10183:10189   */\n      dup4\n        /* \"#utility.yul\":10180:10194   */\n      gt\n        /* \"#utility.yul\":10208:10209   */\n      0x01\n        /* \"#utility.yul\":10203:10820   */\n      dup2\n      eq\n      tag_212\n      jumpi\n        /* \"#utility.yul\":10864:10865   */\n      0x00\n        /* \"#utility.yul\":10881:10887   */\n      dup5\n        /* \"#utility.yul\":10878:10955   */\n      iszero\n      tag_213\n      jumpi\n        /* \"#utility.yul\":10930:10939   */\n      dup3\n        /* \"#utility.yul\":10925:10928   */\n      dup8\n        /* \"#utility.yul\":10921:10940   */\n      add\n        /* \"#utility.yul\":10915:10941   */\n      mload\n        /* \"#utility.yul\":10906:10941   */\n      swap1\n      pop\n        /* \"#utility.yul\":10878:10955   */\n    tag_213:\n        /* \"#utility.yul\":10981:11048   */\n      tag_214\n        /* \"#utility.yul\":11041:11047   */\n      dup6\n        /* \"#utility.yul\":11034:11039   */\n      dup3\n        /* \"#utility.yul\":10981:11048   */\n      tag_101\n      jump\t// in\n    tag_214:\n        /* \"#utility.yul\":10975:10979   */\n      dup7\n        /* \"#utility.yul\":10968:11049   */\n      sstore\n        /* \"#utility.yul\":10837:11059   */\n      pop\n        /* \"#utility.yul\":10173:11059   */\n      jump(tag_211)\n        /* \"#utility.yul\":10203:10820   */\n    tag_212:\n        /* \"#utility.yul\":10255:10259   */\n      0x1f\n        /* \"#utility.yul\":10251:10260   */\n      not\n        /* \"#utility.yul\":10243:10249   */\n      dup5\n        /* \"#utility.yul\":10239:10261   */\n      and\n        /* \"#utility.yul\":10289:10325   */\n      tag_215\n        /* \"#utility.yul\":10320:10324   */\n      dup7\n        /* \"#utility.yul\":10289:10325   */\n      tag_82\n      jump\t// in\n    tag_215:\n        /* \"#utility.yul\":10347:10348   */\n      0x00\n        /* \"#utility.yul\":10361:10569   */\n    tag_216:\n        /* \"#utility.yul\":10375:10382   */\n      dup3\n        /* \"#utility.yul\":10372:10373   */\n      dup2\n        /* \"#utility.yul\":10369:10383   */\n      lt\n        /* \"#utility.yul\":10361:10569   */\n      iszero\n      tag_218\n      jumpi\n        /* \"#utility.yul\":10454:10463   */\n      dup5\n        /* \"#utility.yul\":10449:10452   */\n      dup10\n        /* \"#utility.yul\":10445:10464   */\n      add\n        /* \"#utility.yul\":10439:10465   */\n      mload\n        /* \"#utility.yul\":10431:10437   */\n      dup3\n        /* \"#utility.yul\":10424:10466   */\n      sstore\n        /* \"#utility.yul\":10505:10506   */\n      0x01\n        /* \"#utility.yul\":10497:10503   */\n      dup3\n        /* \"#utility.yul\":10493:10507   */\n      add\n        /* \"#utility.yul\":10483:10507   */\n      swap2\n      pop\n        /* \"#utility.yul\":10552:10554   */\n      0x20\n        /* \"#utility.yul\":10541:10550   */\n      dup6\n        /* \"#utility.yul\":10537:10555   */\n      add\n        /* \"#utility.yul\":10524:10555   */\n      swap5\n      pop\n        /* \"#utility.yul\":10398:10402   */\n      0x20\n        /* \"#utility.yul\":10395:10396   */\n      dup2\n        /* \"#utility.yul\":10391:10403   */\n      add\n        /* \"#utility.yul\":10386:10403   */\n      swap1\n      pop\n        /* \"#utility.yul\":10361:10569   */\n      jump(tag_216)\n    tag_218:\n        /* \"#utility.yul\":10597:10603   */\n      dup7\n        /* \"#utility.yul\":10588:10595   */\n      dup4\n        /* \"#utility.yul\":10585:10604   */\n      lt\n        /* \"#utility.yul\":10582:10761   */\n      iszero\n      tag_219\n      jumpi\n        /* \"#utility.yul\":10655:10664   */\n      dup5\n        /* \"#utility.yul\":10650:10653   */\n      dup10\n        /* \"#utility.yul\":10646:10665   */\n      add\n        /* \"#utility.yul\":10640:10666   */\n      mload\n        /* \"#utility.yul\":10698:10746   */\n      tag_220\n        /* \"#utility.yul\":10740:10744   */\n      0x1f\n        /* \"#utility.yul\":10732:10738   */\n      dup10\n        /* \"#utility.yul\":10728:10745   */\n      and\n        /* \"#utility.yul\":10717:10726   */\n      dup3\n        /* \"#utility.yul\":10698:10746   */\n      tag_100\n      jump\t// in\n    tag_220:\n        /* \"#utility.yul\":10690:10696   */\n      dup4\n        /* \"#utility.yul\":10683:10747   */\n      sstore\n        /* \"#utility.yul\":10605:10761   */\n      pop\n        /* \"#utility.yul\":10582:10761   */\n    tag_219:\n        /* \"#utility.yul\":10807:10808   */\n      0x01\n        /* \"#utility.yul\":10803:10804   */\n      0x02\n        /* \"#utility.yul\":10795:10801   */\n      dup9\n        /* \"#utility.yul\":10791:10805   */\n      mul\n        /* \"#utility.yul\":10787:10809   */\n      add\n        /* \"#utility.yul\":10781:10785   */\n      dup9\n        /* \"#utility.yul\":10774:10810   */\n      sstore\n        /* \"#utility.yul\":10210:10820   */\n      pop\n      pop\n      pop\n        /* \"#utility.yul\":10173:11059   */\n    tag_211:\n      pop\n        /* \"#utility.yul\":9765:11065   */\n      pop\n      pop\n      pop\n        /* \"#utility.yul\":9675:11065   */\n      pop\n      pop\n      jump\t// out\n        /* \"#utility.yul\":11071:11251   */\n    tag_56:\n        /* \"#utility.yul\":11119:11196   */\n      0x4e487b7100000000000000000000000000000000000000000000000000000000\n        /* \"#utility.yul\":11116:11117   */\n      0x00\n        /* \"#utility.yul\":11109:11197   */\n      mstore\n        /* \"#utility.yul\":11216:11220   */\n      0x32\n        /* \"#utility.yul\":11213:11214   */\n      0x04\n        /* \"#utility.yul\":11206:11221   */\n      mstore\n        /* \"#utility.yul\":11240:11244   */\n      0x24\n        /* \"#utility.yul\":11237:11238   */\n      0x00\n        /* \"#utility.yul\":11230:11245   */\n      revert\n        /* \"#utility.yul\":11257:11426   */\n    tag_102:\n        /* \"#utility.yul\":11397:11418   */\n      0x54686520627974652061727261792069733a2000000000000000000000000000\n        /* \"#utility.yul\":11393:11394   */\n      0x00\n        /* \"#utility.yul\":11385:11391   */\n      dup3\n        /* \"#utility.yul\":11381:11395   */\n      add\n        /* \"#utility.yul\":11374:11419   */\n      mstore\n        /* \"#utility.yul\":11257:11426   */\n      pop\n      jump\t// out\n        /* \"#utility.yul\":11432:11834   */\n    tag_103:\n        /* \"#utility.yul\":11592:11595   */\n      0x00\n        /* \"#utility.yul\":11613:11698   */\n      tag_224\n        /* \"#utility.yul\":11695:11697   */\n      0x13\n        /* \"#utility.yul\":11690:11693   */\n      dup4\n        /* \"#utility.yul\":11613:11698   */\n      tag_84\n      jump\t// in\n    tag_224:\n        /* \"#utility.yul\":11606:11698   */\n      swap2\n      pop\n        /* \"#utility.yul\":11707:11800   */\n      tag_225\n        /* \"#utility.yul\":11796:11799   */\n      dup3\n        /* \"#utility.yul\":11707:11800   */\n      tag_102\n      jump\t// in\n    tag_225:\n        /* \"#utility.yul\":11825:11827   */\n      0x13\n        /* \"#utility.yul\":11820:11823   */\n      dup3\n        /* \"#utility.yul\":11816:11828   */\n      add\n        /* \"#utility.yul\":11809:11828   */\n      swap1\n      pop\n        /* \"#utility.yul\":11432:11834   */\n      swap2\n      swap1\n      pop\n      jump\t// out\n        /* \"#utility.yul\":11840:12371   */\n    tag_63:\n        /* \"#utility.yul\":12068:12071   */\n      0x00\n        /* \"#utility.yul\":12090:12238   */\n      tag_227\n        /* \"#utility.yul\":12234:12237   */\n      dup3\n        /* \"#utility.yul\":12090:12238   */\n      tag_103\n      jump\t// in\n    tag_227:\n        /* \"#utility.yul\":12083:12238   */\n      swap2\n      pop\n        /* \"#utility.yul\":12255:12345   */\n      tag_228\n        /* \"#utility.yul\":12341:12344   */\n      dup3\n        /* \"#utility.yul\":12332:12338   */\n      dup5\n        /* \"#utility.yul\":12255:12345   */\n      tag_83\n      jump\t// in\n    tag_228:\n        /* \"#utility.yul\":12248:12345   */\n      swap2\n      pop\n        /* \"#utility.yul\":12362:12365   */\n      dup2\n        /* \"#utility.yul\":12355:12365   */\n      swap1\n      pop\n        /* \"#utility.yul\":11840:12371   */\n      swap3\n      swap2\n      pop\n      pop\n      jump\t// out\n\n    auxdata: 0xa264697066735822122053052c2a3e69dfa9b1200e1430f4b0a900a3e28dbb4e081214af7ffde7ab0cf964736f6c634300081a0033\n}\n",
				"bytecode": {
					"linkReferences": {},
					"object": "60806040526040518060400160405280600e81526020017f63616e206265206368616e6765640000000000000000000000000000000000008152506002908161004891906102d9565b506040518060400160405280601181526020017f63616e6e6f74206265206368616e6765730000000000000000000000000000008152506003908161008d9190610400565b50348015610099575f80fd5b506104cf565b5f81519050919050565b7f4e487b71000000000000000000000000000000000000000000000000000000005f52604160045260245ffd5b7f4e487b71000000000000000000000000000000000000000000000000000000005f52602260045260245ffd5b5f600282049050600182168061011a57607f821691505b60208210810361012d5761012c6100d6565b5b50919050565b5f819050815f5260205f209050919050565b5f6020601f8301049050919050565b5f82821b905092915050565b5f6008830261018f7fffffffffffffffffffffffffffffffffffffffffffffffffffffffffffffffff82610154565b6101998683610154565b95508019841693508086168417925050509392505050565b5f819050919050565b5f819050919050565b5f6101dd6101d86101d3846101b1565b6101ba565b6101b1565b9050919050565b5f819050919050565b6101f6836101c3565b61020a610202826101e4565b848454610160565b825550505050565b5f90565b61021e610212565b6102298184846101ed565b505050565b5b8181101561024c576102415f82610216565b60018101905061022f565b5050565b601f8211156102915761026281610133565b61026b84610145565b8101602085101561027a578190505b61028e61028685610145565b83018261022e565b50505b505050565b5f82821c905092915050565b5f6102b15f1984600802610296565b1980831691505092915050565b5f6102c983836102a2565b9150826002028217905092915050565b6102e28261009f565b67ffffffffffffffff8111156102fb576102fa6100a9565b5b6103058254610103565b610310828285610250565b5f60209050601f831160018114610341575f841561032f578287015190505b61033985826102be565b8655506103a0565b601f19841661034f86610133565b5f5b8281101561037657848901518255600182019150602085019450602081019050610351565b86831015610393578489015161038f601f8916826102a2565b8355505b6001600288020188555050505b505050505050565b5f819050815f5260205f209050919050565b601f8211156103fb576103cc816103a8565b6103d584610145565b810160208510156103e4578190505b6103f86103f085610145565b83018261022e565b50505b505050565b6104098261009f565b67ffffffffffffffff811115610422576104216100a9565b5b61042c8254610103565b6104378282856103ba565b5f60209050601f831160018114610468575f8415610456578287015190505b61046085826102be565b8655506104c7565b601f198416610476866103a8565b5f5b8281101561049d57848901518255600182019150602085019450602081019050610478565b868310156104ba57848901516104b6601f8916826102a2565b8355505b6001600288020188555050505b505050505050565b610a47806104dc5f395ff3fe608060405234801561000f575f80fd5b5060043610610060575f3560e01c80630cd44744146100645780632676407214610082578063516f279e1461008c578063c02692e8146100aa578063dbe60d9c146100c8578063fc668876146100f8575b5f80fd5b61006c610116565b604051610079919061043d565b60405180910390f35b61008a6101a2565b005b6100946101d4565b6040516100a1919061043d565b60405180910390f35b6100b2610260565b6040516100bf91906104af565b60405180910390f35b6100e260048036038101906100dd9190610506565b6102ec565b6040516100ef919061056b565b60405180910390f35b610100610354565b60405161010d919061043d565b60405180910390f35b60038054610123906105b1565b80601f016020809104026020016040519081016040528092919081815260200182805461014f906105b1565b801561019a5780601f106101715761010080835404028352916020019161019a565b820191905f5260205f20905b81548152906001019060200180831161017d57829003601f168201915b505050505081565b60026040516020016101b491906106d1565b604051602081830303815290604052600290816101d191906108aa565b50565b600180546101e1906105b1565b80601f016020809104026020016040519081016040528092919081815260200182805461020d906105b1565b80156102585780601f1061022f57610100808354040283529160200191610258565b820191905f5260205f20905b81548152906001019060200180831161023b57829003601f168201915b505050505081565b6002805461026d906105b1565b80601f0160208091040260200160405190810160405280929190818152602001828054610299906105b1565b80156102e45780601f106102bb576101008083540402835291602001916102e4565b820191905f5260205f20905b8154815290600101906020018083116102c757829003601f168201915b505050505081565b5f60028281546102fb906105b1565b811061030a57610309610979565b5b81546001161561032757905f5260205f2090602091828204019190065b9054901a7f0100000000000000000000000000000000000000000000000000000000000000029050919050565b60605f60028054610364906105b1565b9050116103a6576040518060400160405280601081526020017f456d7074792042797465204172726179000000000000000000000000000000008152506103c8565b60026040516020016103b891906109f0565b6040516020818303038152906040525b905090565b5f81519050919050565b5f82825260208201905092915050565b8281835e5f83830152505050565b5f601f19601f8301169050919050565b5f61040f826103cd565b61041981856103d7565b93506104298185602086016103e7565b610432816103f5565b840191505092915050565b5f6020820190508181035f8301526104558184610405565b905092915050565b5f81519050919050565b5f82825260208201905092915050565b5f6104818261045d565b61048b8185610467565b935061049b8185602086016103e7565b6104a4816103f5565b840191505092915050565b5f6020820190508181035f8301526104c78184610477565b905092915050565b5f80fd5b5f819050919050565b6104e5816104d3565b81146104ef575f80fd5b50565b5f81359050610500816104dc565b92915050565b5f6020828403121561051b5761051a6104cf565b5b5f610528848285016104f2565b91505092915050565b5f7fff0000000000000000000000000000000000000000000000000000000000000082169050919050565b61056581610531565b82525050565b5f60208201905061057e5f83018461055c565b92915050565b7f4e487b71000000000000000000000000000000000000000000000000000000005f52602260045260245ffd5b5f60028204905060018216806105c857607f821691505b6020821081036105db576105da610584565b5b50919050565b5f81905092915050565b5f819050815f5260205f209050919050565b5f8154610609816105b1565b61061381866105e1565b9450600182165f811461062d576001811461064257610674565b60ff1983168652811515820286019350610674565b61064b856105eb565b5f5b8381101561066c5781548189015260018201915060208101905061064d565b838801955050505b50505092915050565b5f81905092915050565b7f78616161000000000000000000000000000000000000000000000000000000005f82015250565b5f6106bb60048361067d565b91506106c682610687565b600482019050919050565b5f6106dc82846105fd565b91506106e7826106af565b915081905092915050565b7f4e487b71000000000000000000000000000000000000000000000000000000005f52604160045260245ffd5b5f6020601f8301049050919050565b5f82821b905092915050565b5f600883026107697fffffffffffffffffffffffffffffffffffffffffffffffffffffffffffffffff8261072e565b610773868361072e565b95508019841693508086168417925050509392505050565b5f819050919050565b5f6107ae6107a96107a4846104d3565b61078b565b6104d3565b9050919050565b5f819050919050565b6107c783610794565b6107db6107d3826107b5565b84845461073a565b825550505050565b5f90565b6107ef6107e3565b6107fa8184846107be565b505050565b5b8181101561081d576108125f826107e7565b600181019050610800565b5050565b601f82111561086257610833816105eb565b61083c8461071f565b8101602085101561084b578190505b61085f6108578561071f565b8301826107ff565b50505b505050565b5f82821c905092915050565b5f6108825f1984600802610867565b1980831691505092915050565b5f61089a8383610873565b9150826002028217905092915050565b6108b38261045d565b67ffffffffffffffff8111156108cc576108cb6106f2565b5b6108d682546105b1565b6108e1828285610821565b5f60209050601f831160018114610912575f8415610900578287015190505b61090a858261088f565b865550610971565b601f198416610920866105eb565b5f5b8281101561094757848901518255600182019150602085019450602081019050610922565b868310156109645784890151610960601f891682610873565b8355505b6001600288020188555050505b505050505050565b7f4e487b71000000000000000000000000000000000000000000000000000000005f52603260045260245ffd5b7f54686520627974652061727261792069733a20000000000000000000000000005f82015250565b5f6109da60138361067d565b91506109e5826109a6565b601382019050919050565b5f6109fa826109ce565b9150610a0682846105fd565b91508190509291505056fea264697066735822122053052c2a3e69dfa9b1200e1430f4b0a900a3e28dbb4e081214af7ffde7ab0cf964736f6c634300081a0033",
					"opcodes": "PUSH1 0x80 PUSH1 0x40 MSTORE PUSH1 0x40 MLOAD DUP1 PUSH1 0x40 ADD PUSH1 0x40 MSTORE DUP1 PUSH1 0xE DUP2 MSTORE PUSH1 0x20 ADD PUSH32 0x63616E206265206368616E676564000000000000000000000000000000000000 DUP2 MSTORE POP PUSH1 0x2 SWAP1 DUP2 PUSH2 0x48 SWAP2 SWAP1 PUSH2 0x2D9 JUMP JUMPDEST POP PUSH1 0x40 MLOAD DUP1 PUSH1 0x40 ADD PUSH1 0x40 MSTORE DUP1 PUSH1 0x11 DUP2 MSTORE PUSH1 0x20 ADD PUSH32 0x63616E6E6F74206265206368616E676573000000000000000000000000000000 DUP2 MSTORE POP PUSH1 0x3 SWAP1 DUP2 PUSH2 0x8D SWAP2 SWAP1 PUSH2 0x400 JUMP JUMPDEST POP CALLVALUE DUP1 ISZERO PUSH2 0x99 JUMPI PUSH0 DUP1 REVERT JUMPDEST POP PUSH2 0x4CF JUMP JUMPDEST PUSH0 DUP2 MLOAD SWAP1 POP SWAP2 SWAP1 POP JUMP JUMPDEST PUSH32 0x4E487B7100000000000000000000000000000000000000000000000000000000 PUSH0 MSTORE PUSH1 0x41 PUSH1 0x4 MSTORE PUSH1 0x24 PUSH0 REVERT JUMPDEST PUSH32 0x4E487B7100000000000000000000000000000000000000000000000000000000 PUSH0 MSTORE PUSH1 0x22 PUSH1 0x4 MSTORE PUSH1 0x24 PUSH0 REVERT JUMPDEST PUSH0 PUSH1 0x2 DUP3 DIV SWAP1 POP PUSH1 0x1 DUP3 AND DUP1 PUSH2 0x11A JUMPI PUSH1 0x7F DUP3 AND SWAP2 POP JUMPDEST PUSH1 0x20 DUP3 LT DUP2 SUB PUSH2 0x12D JUMPI PUSH2 0x12C PUSH2 0xD6 JUMP JUMPDEST JUMPDEST POP SWAP2 SWAP1 POP JUMP JUMPDEST PUSH0 DUP2 SWAP1 POP DUP2 PUSH0 MSTORE PUSH1 0x20 PUSH0 KECCAK256 SWAP1 POP SWAP2 SWAP1 POP JUMP JUMPDEST PUSH0 PUSH1 0x20 PUSH1 0x1F DUP4 ADD DIV SWAP1 POP SWAP2 SWAP1 POP JUMP JUMPDEST PUSH0 DUP3 DUP3 SHL SWAP1 POP SWAP3 SWAP2 POP POP JUMP JUMPDEST PUSH0 PUSH1 0x8 DUP4 MUL PUSH2 0x18F PUSH32 0xFFFFFFFFFFFFFFFFFFFFFFFFFFFFFFFFFFFFFFFFFFFFFFFFFFFFFFFFFFFFFFFF DUP3 PUSH2 0x154 JUMP JUMPDEST PUSH2 0x199 DUP7 DUP4 PUSH2 0x154 JUMP JUMPDEST SWAP6 POP DUP1 NOT DUP5 AND SWAP4 POP DUP1 DUP7 AND DUP5 OR SWAP3 POP POP POP SWAP4 SWAP3 POP POP POP JUMP JUMPDEST PUSH0 DUP2 SWAP1 POP SWAP2 SWAP1 POP JUMP JUMPDEST PUSH0 DUP2 SWAP1 POP SWAP2 SWAP1 POP JUMP JUMPDEST PUSH0 PUSH2 0x1DD PUSH2 0x1D8 PUSH2 0x1D3 DUP5 PUSH2 0x1B1 JUMP JUMPDEST PUSH2 0x1BA JUMP JUMPDEST PUSH2 0x1B1 JUMP JUMPDEST SWAP1 POP SWAP2 SWAP1 POP JUMP JUMPDEST PUSH0 DUP2 SWAP1 POP SWAP2 SWAP1 POP JUMP JUMPDEST PUSH2 0x1F6 DUP4 PUSH2 0x1C3 JUMP JUMPDEST PUSH2 0x20A PUSH2 0x202 DUP3 PUSH2 0x1E4 JUMP JUMPDEST DUP5 DUP5 SLOAD PUSH2 0x160 JUMP JUMPDEST DUP3 SSTORE POP POP POP POP JUMP JUMPDEST PUSH0 SWAP1 JUMP JUMPDEST PUSH2 0x21E PUSH2 0x212 JUMP JUMPDEST PUSH2 0x229 DUP2 DUP5 DUP5 PUSH2 0x1ED JUMP JUMPDEST POP POP POP JUMP JUMPDEST JUMPDEST DUP2 DUP2 LT ISZERO PUSH2 0x24C JUMPI PUSH2 0x241 PUSH0 DUP3 PUSH2 0x216 JUMP JUMPDEST PUSH1 0x1 DUP2 ADD SWAP1 POP PUSH2 0x22F JUMP JUMPDEST POP POP JUMP JUMPDEST PUSH1 0x1F DUP3 GT ISZERO PUSH2 0x291 JUMPI PUSH2 0x262 DUP2 PUSH2 0x133 JUMP JUMPDEST PUSH2 0x26B DUP5 PUSH2 0x145 JUMP JUMPDEST DUP2 ADD PUSH1 0x20 DUP6 LT ISZERO PUSH2 0x27A JUMPI DUP2 SWAP1 POP JUMPDEST PUSH2 0x28E PUSH2 0x286 DUP6 PUSH2 0x145 JUMP JUMPDEST DUP4 ADD DUP3 PUSH2 0x22E JUMP JUMPDEST POP POP JUMPDEST POP POP POP JUMP JUMPDEST PUSH0 DUP3 DUP3 SHR SWAP1 POP SWAP3 SWAP2 POP POP JUMP JUMPDEST PUSH0 PUSH2 0x2B1 PUSH0 NOT DUP5 PUSH1 0x8 MUL PUSH2 0x296 JUMP JUMPDEST NOT DUP1 DUP4 AND SWAP2 POP POP SWAP3 SWAP2 POP POP JUMP JUMPDEST PUSH0 PUSH2 0x2C9 DUP4 DUP4 PUSH2 0x2A2 JUMP JUMPDEST SWAP2 POP DUP3 PUSH1 0x2 MUL DUP3 OR SWAP1 POP SWAP3 SWAP2 POP POP JUMP JUMPDEST PUSH2 0x2E2 DUP3 PUSH2 0x9F JUMP JUMPDEST PUSH8 0xFFFFFFFFFFFFFFFF DUP2 GT ISZERO PUSH2 0x2FB JUMPI PUSH2 0x2FA PUSH2 0xA9 JUMP JUMPDEST JUMPDEST PUSH2 0x305 DUP3 SLOAD PUSH2 0x103 JUMP JUMPDEST PUSH2 0x310 DUP3 DUP3 DUP6 PUSH2 0x250 JUMP JUMPDEST PUSH0 PUSH1 0x20 SWAP1 POP PUSH1 0x1F DUP4 GT PUSH1 0x1 DUP2 EQ PUSH2 0x341 JUMPI PUSH0 DUP5 ISZERO PUSH2 0x32F JUMPI DUP3 DUP8 ADD MLOAD SWAP1 POP JUMPDEST PUSH2 0x339 DUP6 DUP3 PUSH2 0x2BE JUMP JUMPDEST DUP7 SSTORE POP PUSH2 0x3A0 JUMP JUMPDEST PUSH1 0x1F NOT DUP5 AND PUSH2 0x34F DUP7 PUSH2 0x133 JUMP JUMPDEST PUSH0 JUMPDEST DUP3 DUP2 LT ISZERO PUSH2 0x376 JUMPI DUP5 DUP10 ADD MLOAD DUP3 SSTORE PUSH1 0x1 DUP3 ADD SWAP2 POP PUSH1 0x20 DUP6 ADD SWAP5 POP PUSH1 0x20 DUP2 ADD SWAP1 POP PUSH2 0x351 JUMP JUMPDEST DUP7 DUP4 LT ISZERO PUSH2 0x393 JUMPI DUP5 DUP10 ADD MLOAD PUSH2 0x38F PUSH1 0x1F DUP10 AND DUP3 PUSH2 0x2A2 JUMP JUMPDEST DUP4 SSTORE POP JUMPDEST PUSH1 0x1 PUSH1 0x2 DUP9 MUL ADD DUP9 SSTORE POP POP POP JUMPDEST POP POP POP POP POP POP JUMP JUMPDEST PUSH0 DUP2 SWAP1 POP DUP2 PUSH0 MSTORE PUSH1 0x20 PUSH0 KECCAK256 SWAP1 POP SWAP2 SWAP1 POP JUMP JUMPDEST PUSH1 0x1F DUP3 GT ISZERO PUSH2 0x3FB JUMPI PUSH2 0x3CC DUP2 PUSH2 0x3A8 JUMP JUMPDEST PUSH2 0x3D5 DUP5 PUSH2 0x145 JUMP JUMPDEST DUP2 ADD PUSH1 0x20 DUP6 LT ISZERO PUSH2 0x3E4 JUMPI DUP2 SWAP1 POP JUMPDEST PUSH2 0x3F8 PUSH2 0x3F0 DUP6 PUSH2 0x145 JUMP JUMPDEST DUP4 ADD DUP3 PUSH2 0x22E JUMP JUMPDEST POP POP JUMPDEST POP POP POP JUMP JUMPDEST PUSH2 0x409 DUP3 PUSH2 0x9F JUMP JUMPDEST PUSH8 0xFFFFFFFFFFFFFFFF DUP2 GT ISZERO PUSH2 0x422 JUMPI PUSH2 0x421 PUSH2 0xA9 JUMP JUMPDEST JUMPDEST PUSH2 0x42C DUP3 SLOAD PUSH2 0x103 JUMP JUMPDEST PUSH2 0x437 DUP3 DUP3 DUP6 PUSH2 0x3BA JUMP JUMPDEST PUSH0 PUSH1 0x20 SWAP1 POP PUSH1 0x1F DUP4 GT PUSH1 0x1 DUP2 EQ PUSH2 0x468 JUMPI PUSH0 DUP5 ISZERO PUSH2 0x456 JUMPI DUP3 DUP8 ADD MLOAD SWAP1 POP JUMPDEST PUSH2 0x460 DUP6 DUP3 PUSH2 0x2BE JUMP JUMPDEST DUP7 SSTORE POP PUSH2 0x4C7 JUMP JUMPDEST PUSH1 0x1F NOT DUP5 AND PUSH2 0x476 DUP7 PUSH2 0x3A8 JUMP JUMPDEST PUSH0 JUMPDEST DUP3 DUP2 LT ISZERO PUSH2 0x49D JUMPI DUP5 DUP10 ADD MLOAD DUP3 SSTORE PUSH1 0x1 DUP3 ADD SWAP2 POP PUSH1 0x20 DUP6 ADD SWAP5 POP PUSH1 0x20 DUP2 ADD SWAP1 POP PUSH2 0x478 JUMP JUMPDEST DUP7 DUP4 LT ISZERO PUSH2 0x4BA JUMPI DUP5 DUP10 ADD MLOAD PUSH2 0x4B6 PUSH1 0x1F DUP10 AND DUP3 PUSH2 0x2A2 JUMP JUMPDEST DUP4 SSTORE POP JUMPDEST PUSH1 0x1 PUSH1 0x2 DUP9 MUL ADD DUP9 SSTORE POP POP POP JUMPDEST POP POP POP POP POP POP JUMP JUMPDEST PUSH2 0xA47 DUP1 PUSH2 0x4DC PUSH0 CODECOPY PUSH0 RETURN INVALID PUSH1 0x80 PUSH1 0x40 MSTORE CALLVALUE DUP1 ISZERO PUSH2 0xF JUMPI PUSH0 DUP1 REVERT JUMPDEST POP PUSH1 0x4 CALLDATASIZE LT PUSH2 0x60 JUMPI PUSH0 CALLDATALOAD PUSH1 0xE0 SHR DUP1 PUSH4 0xCD44744 EQ PUSH2 0x64 JUMPI DUP1 PUSH4 0x26764072 EQ PUSH2 0x82 JUMPI DUP1 PUSH4 0x516F279E EQ PUSH2 0x8C JUMPI DUP1 PUSH4 0xC02692E8 EQ PUSH2 0xAA JUMPI DUP1 PUSH4 0xDBE60D9C EQ PUSH2 0xC8 JUMPI DUP1 PUSH4 0xFC668876 EQ PUSH2 0xF8 JUMPI JUMPDEST PUSH0 DUP1 REVERT JUMPDEST PUSH2 0x6C PUSH2 0x116 JUMP JUMPDEST PUSH1 0x40 MLOAD PUSH2 0x79 SWAP2 SWAP1 PUSH2 0x43D JUMP JUMPDEST PUSH1 0x40 MLOAD DUP1 SWAP2 SUB SWAP1 RETURN JUMPDEST PUSH2 0x8A PUSH2 0x1A2 JUMP JUMPDEST STOP JUMPDEST PUSH2 0x94 PUSH2 0x1D4 JUMP JUMPDEST PUSH1 0x40 MLOAD PUSH2 0xA1 SWAP2 SWAP1 PUSH2 0x43D JUMP JUMPDEST PUSH1 0x40 MLOAD DUP1 SWAP2 SUB SWAP1 RETURN JUMPDEST PUSH2 0xB2 PUSH2 0x260 JUMP JUMPDEST PUSH1 0x40 MLOAD PUSH2 0xBF SWAP2 SWAP1 PUSH2 0x4AF JUMP JUMPDEST PUSH1 0x40 MLOAD DUP1 SWAP2 SUB SWAP1 RETURN JUMPDEST PUSH2 0xE2 PUSH1 0x4 DUP1 CALLDATASIZE SUB DUP2 ADD SWAP1 PUSH2 0xDD SWAP2 SWAP1 PUSH2 0x506 JUMP JUMPDEST PUSH2 0x2EC JUMP JUMPDEST PUSH1 0x40 MLOAD PUSH2 0xEF SWAP2 SWAP1 PUSH2 0x56B JUMP JUMPDEST PUSH1 0x40 MLOAD DUP1 SWAP2 SUB SWAP1 RETURN JUMPDEST PUSH2 0x100 PUSH2 0x354 JUMP JUMPDEST PUSH1 0x40 MLOAD PUSH2 0x10D SWAP2 SWAP1 PUSH2 0x43D JUMP JUMPDEST PUSH1 0x40 MLOAD DUP1 SWAP2 SUB SWAP1 RETURN JUMPDEST PUSH1 0x3 DUP1 SLOAD PUSH2 0x123 SWAP1 PUSH2 0x5B1 JUMP JUMPDEST DUP1 PUSH1 0x1F ADD PUSH1 0x20 DUP1 SWAP2 DIV MUL PUSH1 0x20 ADD PUSH1 0x40 MLOAD SWAP1 DUP2 ADD PUSH1 0x40 MSTORE DUP1 SWAP3 SWAP2 SWAP1 DUP2 DUP2 MSTORE PUSH1 0x20 ADD DUP3 DUP1 SLOAD PUSH2 0x14F SWAP1 PUSH2 0x5B1 JUMP JUMPDEST DUP1 ISZERO PUSH2 0x19A JUMPI DUP1 PUSH1 0x1F LT PUSH2 0x171 JUMPI PUSH2 0x100 DUP1 DUP4 SLOAD DIV MUL DUP4 MSTORE SWAP2 PUSH1 0x20 ADD SWAP2 PUSH2 0x19A JUMP JUMPDEST DUP3 ADD SWAP2 SWAP1 PUSH0 MSTORE PUSH1 0x20 PUSH0 KECCAK256 SWAP1 JUMPDEST DUP2 SLOAD DUP2 MSTORE SWAP1 PUSH1 0x1 ADD SWAP1 PUSH1 0x20 ADD DUP1 DUP4 GT PUSH2 0x17D JUMPI DUP3 SWAP1 SUB PUSH1 0x1F AND DUP3 ADD SWAP2 JUMPDEST POP POP POP POP POP DUP2 JUMP JUMPDEST PUSH1 0x2 PUSH1 0x40 MLOAD PUSH1 0x20 ADD PUSH2 0x1B4 SWAP2 SWAP1 PUSH2 0x6D1 JUMP JUMPDEST PUSH1 0x40 MLOAD PUSH1 0x20 DUP2 DUP4 SUB SUB DUP2 MSTORE SWAP1 PUSH1 0x40 MSTORE PUSH1 0x2 SWAP1 DUP2 PUSH2 0x1D1 SWAP2 SWAP1 PUSH2 0x8AA JUMP JUMPDEST POP JUMP JUMPDEST PUSH1 0x1 DUP1 SLOAD PUSH2 0x1E1 SWAP1 PUSH2 0x5B1 JUMP JUMPDEST DUP1 PUSH1 0x1F ADD PUSH1 0x20 DUP1 SWAP2 DIV MUL PUSH1 0x20 ADD PUSH1 0x40 MLOAD SWAP1 DUP2 ADD PUSH1 0x40 MSTORE DUP1 SWAP3 SWAP2 SWAP1 DUP2 DUP2 MSTORE PUSH1 0x20 ADD DUP3 DUP1 SLOAD PUSH2 0x20D SWAP1 PUSH2 0x5B1 JUMP JUMPDEST DUP1 ISZERO PUSH2 0x258 JUMPI DUP1 PUSH1 0x1F LT PUSH2 0x22F JUMPI PUSH2 0x100 DUP1 DUP4 SLOAD DIV MUL DUP4 MSTORE SWAP2 PUSH1 0x20 ADD SWAP2 PUSH2 0x258 JUMP JUMPDEST DUP3 ADD SWAP2 SWAP1 PUSH0 MSTORE PUSH1 0x20 PUSH0 KECCAK256 SWAP1 JUMPDEST DUP2 SLOAD DUP2 MSTORE SWAP1 PUSH1 0x1 ADD SWAP1 PUSH1 0x20 ADD DUP1 DUP4 GT PUSH2 0x23B JUMPI DUP3 SWAP1 SUB PUSH1 0x1F AND DUP3 ADD SWAP2 JUMPDEST POP POP POP POP POP DUP2 JUMP JUMPDEST PUSH1 0x2 DUP1 SLOAD PUSH2 0x26D SWAP1 PUSH2 0x5B1 JUMP JUMPDEST DUP1 PUSH1 0x1F ADD PUSH1 0x20 DUP1 SWAP2 DIV MUL PUSH1 0x20 ADD PUSH1 0x40 MLOAD SWAP1 DUP2 ADD PUSH1 0x40 MSTORE DUP1 SWAP3 SWAP2 SWAP1 DUP2 DUP2 MSTORE PUSH1 0x20 ADD DUP3 DUP1 SLOAD PUSH2 0x299 SWAP1 PUSH2 0x5B1 JUMP JUMPDEST DUP1 ISZERO PUSH2 0x2E4 JUMPI DUP1 PUSH1 0x1F LT PUSH2 0x2BB JUMPI PUSH2 0x100 DUP1 DUP4 SLOAD DIV MUL DUP4 MSTORE SWAP2 PUSH1 0x20 ADD SWAP2 PUSH2 0x2E4 JUMP JUMPDEST DUP3 ADD SWAP2 SWAP1 PUSH0 MSTORE PUSH1 0x20 PUSH0 KECCAK256 SWAP1 JUMPDEST DUP2 SLOAD DUP2 MSTORE SWAP1 PUSH1 0x1 ADD SWAP1 PUSH1 0x20 ADD DUP1 DUP4 GT PUSH2 0x2C7 JUMPI DUP3 SWAP1 SUB PUSH1 0x1F AND DUP3 ADD SWAP2 JUMPDEST POP POP POP POP POP DUP2 JUMP JUMPDEST PUSH0 PUSH1 0x2 DUP3 DUP2 SLOAD PUSH2 0x2FB SWAP1 PUSH2 0x5B1 JUMP JUMPDEST DUP2 LT PUSH2 0x30A JUMPI PUSH2 0x309 PUSH2 0x979 JUMP JUMPDEST JUMPDEST DUP2 SLOAD PUSH1 0x1 AND ISZERO PUSH2 0x327 JUMPI SWAP1 PUSH0 MSTORE PUSH1 0x20 PUSH0 KECCAK256 SWAP1 PUSH1 0x20 SWAP2 DUP3 DUP3 DIV ADD SWAP2 SWAP1 MOD JUMPDEST SWAP1 SLOAD SWAP1 BYTE PUSH32 0x100000000000000000000000000000000000000000000000000000000000000 MUL SWAP1 POP SWAP2 SWAP1 POP JUMP JUMPDEST PUSH1 0x60 PUSH0 PUSH1 0x2 DUP1 SLOAD PUSH2 0x364 SWAP1 PUSH2 0x5B1 JUMP JUMPDEST SWAP1 POP GT PUSH2 0x3A6 JUMPI PUSH1 0x40 MLOAD DUP1 PUSH1 0x40 ADD PUSH1 0x40 MSTORE DUP1 PUSH1 0x10 DUP2 MSTORE PUSH1 0x20 ADD PUSH32 0x456D707479204279746520417272617900000000000000000000000000000000 DUP2 MSTORE POP PUSH2 0x3C8 JUMP JUMPDEST PUSH1 0x2 PUSH1 0x40 MLOAD PUSH1 0x20 ADD PUSH2 0x3B8 SWAP2 SWAP1 PUSH2 0x9F0 JUMP JUMPDEST PUSH1 0x40 MLOAD PUSH1 0x20 DUP2 DUP4 SUB SUB DUP2 MSTORE SWAP1 PUSH1 0x40 MSTORE JUMPDEST SWAP1 POP SWAP1 JUMP JUMPDEST PUSH0 DUP2 MLOAD SWAP1 POP SWAP2 SWAP1 POP JUMP JUMPDEST PUSH0 DUP3 DUP3 MSTORE PUSH1 0x20 DUP3 ADD SWAP1 POP SWAP3 SWAP2 POP POP JUMP JUMPDEST DUP3 DUP2 DUP4 MCOPY PUSH0 DUP4 DUP4 ADD MSTORE POP POP POP JUMP JUMPDEST PUSH0 PUSH1 0x1F NOT PUSH1 0x1F DUP4 ADD AND SWAP1 POP SWAP2 SWAP1 POP JUMP JUMPDEST PUSH0 PUSH2 0x40F DUP3 PUSH2 0x3CD JUMP JUMPDEST PUSH2 0x419 DUP2 DUP6 PUSH2 0x3D7 JUMP JUMPDEST SWAP4 POP PUSH2 0x429 DUP2 DUP6 PUSH1 0x20 DUP7 ADD PUSH2 0x3E7 JUMP JUMPDEST PUSH2 0x432 DUP2 PUSH2 0x3F5 JUMP JUMPDEST DUP5 ADD SWAP2 POP POP SWAP3 SWAP2 POP POP JUMP JUMPDEST PUSH0 PUSH1 0x20 DUP3 ADD SWAP1 POP DUP2 DUP2 SUB PUSH0 DUP4 ADD MSTORE PUSH2 0x455 DUP2 DUP5 PUSH2 0x405 JUMP JUMPDEST SWAP1 POP SWAP3 SWAP2 POP POP JUMP JUMPDEST PUSH0 DUP2 MLOAD SWAP1 POP SWAP2 SWAP1 POP JUMP JUMPDEST PUSH0 DUP3 DUP3 MSTORE PUSH1 0x20 DUP3 ADD SWAP1 POP SWAP3 SWAP2 POP POP JUMP JUMPDEST PUSH0 PUSH2 0x481 DUP3 PUSH2 0x45D JUMP JUMPDEST PUSH2 0x48B DUP2 DUP6 PUSH2 0x467 JUMP JUMPDEST SWAP4 POP PUSH2 0x49B DUP2 DUP6 PUSH1 0x20 DUP7 ADD PUSH2 0x3E7 JUMP JUMPDEST PUSH2 0x4A4 DUP2 PUSH2 0x3F5 JUMP JUMPDEST DUP5 ADD SWAP2 POP POP SWAP3 SWAP2 POP POP JUMP JUMPDEST PUSH0 PUSH1 0x20 DUP3 ADD SWAP1 POP DUP2 DUP2 SUB PUSH0 DUP4 ADD MSTORE PUSH2 0x4C7 DUP2 DUP5 PUSH2 0x477 JUMP JUMPDEST SWAP1 POP SWAP3 SWAP2 POP POP JUMP JUMPDEST PUSH0 DUP1 REVERT JUMPDEST PUSH0 DUP2 SWAP1 POP SWAP2 SWAP1 POP JUMP JUMPDEST PUSH2 0x4E5 DUP2 PUSH2 0x4D3 JUMP JUMPDEST DUP2 EQ PUSH2 0x4EF JUMPI PUSH0 DUP1 REVERT JUMPDEST POP JUMP JUMPDEST PUSH0 DUP2 CALLDATALOAD SWAP1 POP PUSH2 0x500 DUP2 PUSH2 0x4DC JUMP JUMPDEST SWAP3 SWAP2 POP POP JUMP JUMPDEST PUSH0 PUSH1 0x20 DUP3 DUP5 SUB SLT ISZERO PUSH2 0x51B JUMPI PUSH2 0x51A PUSH2 0x4CF JUMP JUMPDEST JUMPDEST PUSH0 PUSH2 0x528 DUP5 DUP3 DUP6 ADD PUSH2 0x4F2 JUMP JUMPDEST SWAP2 POP POP SWAP3 SWAP2 POP POP JUMP JUMPDEST PUSH0 PUSH32 0xFF00000000000000000000000000000000000000000000000000000000000000 DUP3 AND SWAP1 POP SWAP2 SWAP1 POP JUMP JUMPDEST PUSH2 0x565 DUP2 PUSH2 0x531 JUMP JUMPDEST DUP3 MSTORE POP POP JUMP JUMPDEST PUSH0 PUSH1 0x20 DUP3 ADD SWAP1 POP PUSH2 0x57E PUSH0 DUP4 ADD DUP5 PUSH2 0x55C JUMP JUMPDEST SWAP3 SWAP2 POP POP JUMP JUMPDEST PUSH32 0x4E487B7100000000000000000000000000000000000000000000000000000000 PUSH0 MSTORE PUSH1 0x22 PUSH1 0x4 MSTORE PUSH1 0x24 PUSH0 REVERT JUMPDEST PUSH0 PUSH1 0x2 DUP3 DIV SWAP1 POP PUSH1 0x1 DUP3 AND DUP1 PUSH2 0x5C8 JUMPI PUSH1 0x7F DUP3 AND SWAP2 POP JUMPDEST PUSH1 0x20 DUP3 LT DUP2 SUB PUSH2 0x5DB JUMPI PUSH2 0x5DA PUSH2 0x584 JUMP JUMPDEST JUMPDEST POP SWAP2 SWAP1 POP JUMP JUMPDEST PUSH0 DUP2 SWAP1 POP SWAP3 SWAP2 POP POP JUMP JUMPDEST PUSH0 DUP2 SWAP1 POP DUP2 PUSH0 MSTORE PUSH1 0x20 PUSH0 KECCAK256 SWAP1 POP SWAP2 SWAP1 POP JUMP JUMPDEST PUSH0 DUP2 SLOAD PUSH2 0x609 DUP2 PUSH2 0x5B1 JUMP JUMPDEST PUSH2 0x613 DUP2 DUP7 PUSH2 0x5E1 JUMP JUMPDEST SWAP5 POP PUSH1 0x1 DUP3 AND PUSH0 DUP2 EQ PUSH2 0x62D JUMPI PUSH1 0x1 DUP2 EQ PUSH2 0x642 JUMPI PUSH2 0x674 JUMP JUMPDEST PUSH1 0xFF NOT DUP4 AND DUP7 MSTORE DUP2 ISZERO ISZERO DUP3 MUL DUP7 ADD SWAP4 POP PUSH2 0x674 JUMP JUMPDEST PUSH2 0x64B DUP6 PUSH2 0x5EB JUMP JUMPDEST PUSH0 JUMPDEST DUP4 DUP2 LT ISZERO PUSH2 0x66C JUMPI DUP2 SLOAD DUP2 DUP10 ADD MSTORE PUSH1 0x1 DUP3 ADD SWAP2 POP PUSH1 0x20 DUP2 ADD SWAP1 POP PUSH2 0x64D JUMP JUMPDEST DUP4 DUP9 ADD SWAP6 POP POP POP JUMPDEST POP POP POP SWAP3 SWAP2 POP POP JUMP JUMPDEST PUSH0 DUP2 SWAP1 POP SWAP3 SWAP2 POP POP JUMP JUMPDEST PUSH32 0x7861616100000000000000000000000000000000000000000000000000000000 PUSH0 DUP3 ADD MSTORE POP JUMP JUMPDEST PUSH0 PUSH2 0x6BB PUSH1 0x4 DUP4 PUSH2 0x67D JUMP JUMPDEST SWAP2 POP PUSH2 0x6C6 DUP3 PUSH2 0x687 JUMP JUMPDEST PUSH1 0x4 DUP3 ADD SWAP1 POP SWAP2 SWAP1 POP JUMP JUMPDEST PUSH0 PUSH2 0x6DC DUP3 DUP5 PUSH2 0x5FD JUMP JUMPDEST SWAP2 POP PUSH2 0x6E7 DUP3 PUSH2 0x6AF JUMP JUMPDEST SWAP2 POP DUP2 SWAP1 POP SWAP3 SWAP2 POP POP JUMP JUMPDEST PUSH32 0x4E487B7100000000000000000000000000000000000000000000000000000000 PUSH0 MSTORE PUSH1 0x41 PUSH1 0x4 MSTORE PUSH1 0x24 PUSH0 REVERT JUMPDEST PUSH0 PUSH1 0x20 PUSH1 0x1F DUP4 ADD DIV SWAP1 POP SWAP2 SWAP1 POP JUMP JUMPDEST PUSH0 DUP3 DUP3 SHL SWAP1 POP SWAP3 SWAP2 POP POP JUMP JUMPDEST PUSH0 PUSH1 0x8 DUP4 MUL PUSH2 0x769 PUSH32 0xFFFFFFFFFFFFFFFFFFFFFFFFFFFFFFFFFFFFFFFFFFFFFFFFFFFFFFFFFFFFFFFF DUP3 PUSH2 0x72E JUMP JUMPDEST PUSH2 0x773 DUP7 DUP4 PUSH2 0x72E JUMP JUMPDEST SWAP6 POP DUP1 NOT DUP5 AND SWAP4 POP DUP1 DUP7 AND DUP5 OR SWAP3 POP POP POP SWAP4 SWAP3 POP POP POP JUMP JUMPDEST PUSH0 DUP2 SWAP1 POP SWAP2 SWAP1 POP JUMP JUMPDEST PUSH0 PUSH2 0x7AE PUSH2 0x7A9 PUSH2 0x7A4 DUP5 PUSH2 0x4D3 JUMP JUMPDEST PUSH2 0x78B JUMP JUMPDEST PUSH2 0x4D3 JUMP JUMPDEST SWAP1 POP SWAP2 SWAP1 POP JUMP JUMPDEST PUSH0 DUP2 SWAP1 POP SWAP2 SWAP1 POP JUMP JUMPDEST PUSH2 0x7C7 DUP4 PUSH2 0x794 JUMP JUMPDEST PUSH2 0x7DB PUSH2 0x7D3 DUP3 PUSH2 0x7B5 JUMP JUMPDEST DUP5 DUP5 SLOAD PUSH2 0x73A JUMP JUMPDEST DUP3 SSTORE POP POP POP POP JUMP JUMPDEST PUSH0 SWAP1 JUMP JUMPDEST PUSH2 0x7EF PUSH2 0x7E3 JUMP JUMPDEST PUSH2 0x7FA DUP2 DUP5 DUP5 PUSH2 0x7BE JUMP JUMPDEST POP POP POP JUMP JUMPDEST JUMPDEST DUP2 DUP2 LT ISZERO PUSH2 0x81D JUMPI PUSH2 0x812 PUSH0 DUP3 PUSH2 0x7E7 JUMP JUMPDEST PUSH1 0x1 DUP2 ADD SWAP1 POP PUSH2 0x800 JUMP JUMPDEST POP POP JUMP JUMPDEST PUSH1 0x1F DUP3 GT ISZERO PUSH2 0x862 JUMPI PUSH2 0x833 DUP2 PUSH2 0x5EB JUMP JUMPDEST PUSH2 0x83C DUP5 PUSH2 0x71F JUMP JUMPDEST DUP2 ADD PUSH1 0x20 DUP6 LT ISZERO PUSH2 0x84B JUMPI DUP2 SWAP1 POP JUMPDEST PUSH2 0x85F PUSH2 0x857 DUP6 PUSH2 0x71F JUMP JUMPDEST DUP4 ADD DUP3 PUSH2 0x7FF JUMP JUMPDEST POP POP JUMPDEST POP POP POP JUMP JUMPDEST PUSH0 DUP3 DUP3 SHR SWAP1 POP SWAP3 SWAP2 POP POP JUMP JUMPDEST PUSH0 PUSH2 0x882 PUSH0 NOT DUP5 PUSH1 0x8 MUL PUSH2 0x867 JUMP JUMPDEST NOT DUP1 DUP4 AND SWAP2 POP POP SWAP3 SWAP2 POP POP JUMP JUMPDEST PUSH0 PUSH2 0x89A DUP4 DUP4 PUSH2 0x873 JUMP JUMPDEST SWAP2 POP DUP3 PUSH1 0x2 MUL DUP3 OR SWAP1 POP SWAP3 SWAP2 POP POP JUMP JUMPDEST PUSH2 0x8B3 DUP3 PUSH2 0x45D JUMP JUMPDEST PUSH8 0xFFFFFFFFFFFFFFFF DUP2 GT ISZERO PUSH2 0x8CC JUMPI PUSH2 0x8CB PUSH2 0x6F2 JUMP JUMPDEST JUMPDEST PUSH2 0x8D6 DUP3 SLOAD PUSH2 0x5B1 JUMP JUMPDEST PUSH2 0x8E1 DUP3 DUP3 DUP6 PUSH2 0x821 JUMP JUMPDEST PUSH0 PUSH1 0x20 SWAP1 POP PUSH1 0x1F DUP4 GT PUSH1 0x1 DUP2 EQ PUSH2 0x912 JUMPI PUSH0 DUP5 ISZERO PUSH2 0x900 JUMPI DUP3 DUP8 ADD MLOAD SWAP1 POP JUMPDEST PUSH2 0x90A DUP6 DUP3 PUSH2 0x88F JUMP JUMPDEST DUP7 SSTORE POP PUSH2 0x971 JUMP JUMPDEST PUSH1 0x1F NOT DUP5 AND PUSH2 0x920 DUP7 PUSH2 0x5EB JUMP JUMPDEST PUSH0 JUMPDEST DUP3 DUP2 LT ISZERO PUSH2 0x947 JUMPI DUP5 DUP10 ADD MLOAD DUP3 SSTORE PUSH1 0x1 DUP3 ADD SWAP2 POP PUSH1 0x20 DUP6 ADD SWAP5 POP PUSH1 0x20 DUP2 ADD SWAP1 POP PUSH2 0x922 JUMP JUMPDEST DUP7 DUP4 LT ISZERO PUSH2 0x964 JUMPI DUP5 DUP10 ADD MLOAD PUSH2 0x960 PUSH1 0x1F DUP10 AND DUP3 PUSH2 0x873 JUMP JUMPDEST DUP4 SSTORE POP JUMPDEST PUSH1 0x1 PUSH1 0x2 DUP9 MUL ADD DUP9 SSTORE POP POP POP JUMPDEST POP POP POP POP POP POP JUMP JUMPDEST PUSH32 0x4E487B7100000000000000000000000000000000000000000000000000000000 PUSH0 MSTORE PUSH1 0x32 PUSH1 0x4 MSTORE PUSH1 0x24 PUSH0 REVERT JUMPDEST PUSH32 0x54686520627974652061727261792069733A2000000000000000000000000000 PUSH0 DUP3 ADD MSTORE POP JUMP JUMPDEST PUSH0 PUSH2 0x9DA PUSH1 0x13 DUP4 PUSH2 0x67D JUMP JUMPDEST SWAP2 POP PUSH2 0x9E5 DUP3 PUSH2 0x9A6 JUMP JUMPDEST PUSH1 0x13 DUP3 ADD SWAP1 POP SWAP2 SWAP1 POP JUMP JUMPDEST PUSH0 PUSH2 0x9FA DUP3 PUSH2 0x9CE JUMP JUMPDEST SWAP2 POP PUSH2 0xA06 DUP3 DUP5 PUSH2 0x5FD JUMP JUMPDEST SWAP2 POP DUP2 SWAP1 POP SWAP3 SWAP2 POP POP JUMP INVALID LOG2 PUSH5 0x6970667358 0x22 SLT KECCAK256 MSTORE8 SDIV 0x2C 0x2A RETURNDATACOPY PUSH10 0xDFA9B1200E1430F4B0A9 STOP LOG3 0xE2 DUP14 0xBB 0x4E ADDMOD SLT EQ 0xAF PUSH32 0xFDE7AB0CF964736F6C634300081A003300000000000000000000000000000000 "
				},
				"gasEstimates": {
					"creation": {
						"codeDepositCost": "526200",
						"executionCost": "infinite",
						"totalCost": "infinite"
					},
					"external": {
						"addToString()": "infinite",
						"bytesString()": "infinite",
						"getElementFromBytes(uint256)": "7241",
						"getStringFromBytes()": "infinite",
						"location()": "infinite",
						"regularString()": "infinite"
					}
				},
				"methodIdentifiers": {
					"addToString()": "26764072",
					"bytesString()": "c02692e8",
					"getElementFromBytes(uint256)": "dbe60d9c",
					"getStringFromBytes()": "fc668876",
					"location()": "516f279e",
					"regularString()": "0cd44744"
				}
			},
			"storageLayout": {
				"storage": [
					{
						"astId": 3,
						"contract": "contracts/firstTestContract.sol:Property",
						"label": "price",
						"offset": 0,
						"slot": "0",
						"type": "t_uint256"
					},
					{
						"astId": 5,
						"contract": "contracts/firstTestContract.sol:Property",
						"label": "location",
						"offset": 0,
						"slot": "1",
						"type": "t_string_storage"
					},
					{
						"astId": 8,
						"contract": "contracts/firstTestContract.sol:Property",
						"label": "bytesString",
						"offset": 0,
						"slot": "2",
						"type": "t_bytes_storage"
					},
					{
						"astId": 11,
						"contract": "contracts/firstTestContract.sol:Property",
						"label": "regularString",
						"offset": 0,
						"slot": "3",
						"type": "t_string_storage"
					}
				],
				"types": {
					"t_bytes_storage": {
						"encoding": "bytes",
						"label": "bytes",
						"numberOfBytes": "32"
					},
					"t_string_storage": {
						"encoding": "bytes",
						"label": "string",
						"numberOfBytes": "32"
					},
					"t_uint256": {
						"encoding": "inplace",
						"label": "uint256",
						"numberOfBytes": "32"
					}
				}
			},
			"userdoc": {
				"kind": "user",
				"methods": {},
				"version": 1
			}
		}
	}
}