{
	"contracts/instructor.sol": {
		"Academy": {
			"abi": [
				{
					"inputs": [
						{
							"internalType": "uint256",
							"name": "_age",
							"type": "uint256"
						},
						{
							"internalType": "string",
							"name": "_name",
							"type": "string"
						}
					],
					"stateMutability": "nonpayable",
					"type": "constructor"
				},
				{
					"inputs": [],
					"name": "academyInstructor",
					"outputs": [
						{
							"internalType": "uint256",
							"name": "age",
							"type": "uint256"
						},
						{
							"internalType": "string",
							"name": "name",
							"type": "string"
						},
						{
							"internalType": "address",
							"name": "addr",
							"type": "address"
						}
					],
					"stateMutability": "view",
					"type": "function"
				},
				{
					"inputs": [],
					"name": "academyState",
					"outputs": [
						{
							"internalType": "enum Academy.State",
							"name": "",
							"type": "uint8"
						}
					],
					"stateMutability": "view",
					"type": "function"
				},
				{
					"inputs": [
						{
							"internalType": "uint256",
							"name": "_age",
							"type": "uint256"
						},
						{
							"internalType": "string",
							"name": "_name",
							"type": "string"
						},
						{
							"internalType": "address",
							"name": "_addr",
							"type": "address"
						}
					],
					"name": "changeInstructor",
					"outputs": [],
					"stateMutability": "nonpayable",
					"type": "function"
				}
			],
			"devdoc": {
				"kind": "dev",
				"methods": {},
				"version": 1
			},
			"evm": {
				"assembly": "    /* \"contracts/instructor.sol\":256:1234  contract Academy{... */\n  mstore(0x40, 0x80)\n    /* \"contracts/instructor.sol\":559:569  State.Open */\n  0x00\n    /* \"contracts/instructor.sol\":531:569  State public academyState = State.Open */\n  0x03\n  exp(0x0100, 0x00)\n  dup2\n  sload\n  dup2\n  0xff\n  mul\n  not\n  and\n  swap1\n  dup4\n  0x02\n  dup2\n  gt\n  iszero\n  tag_1\n  jumpi\n  tag_2\n  tag_3\n  jump\t// in\ntag_2:\ntag_1:\n  mul\n  or\n  swap1\n  sstore\n  pop\n    /* \"contracts/instructor.sol\":633:810  constructor(uint _age, string memory _name){... */\n  callvalue\n  dup1\n  iszero\n  tag_4\n  jumpi\n  0x00\n  dup1\n  revert\ntag_4:\n  pop\n  mload(0x40)\n  sub(codesize, bytecodeSize)\n  dup1\n  bytecodeSize\n  dup4\n  codecopy\n  dup2\n  dup2\n  add\n  0x40\n  mstore\n  dup2\n  add\n  swap1\n  tag_5\n  swap2\n  swap1\n  tag_6\n  jump\t// in\ntag_5:\n    /* \"contracts/instructor.sol\":711:715  _age */\n  dup2\n    /* \"contracts/instructor.sol\":687:704  academyInstructor */\n  0x00\n    /* \"contracts/instructor.sol\":687:708  academyInstructor.age */\n  dup1\n  add\n    /* \"contracts/instructor.sol\":687:715  academyInstructor.age = _age */\n  dup2\n  swap1\n  sstore\n  pop\n    /* \"contracts/instructor.sol\":751:756  _name */\n  dup1\n    /* \"contracts/instructor.sol\":726:743  academyInstructor */\n  0x00\n    /* \"contracts/instructor.sol\":726:748  academyInstructor.name */\n  0x01\n  add\n    /* \"contracts/instructor.sol\":726:756  academyInstructor.name = _name */\n  swap1\n  dup2\n  tag_9\n  swap2\n  swap1\n  tag_10\n  jump\t// in\ntag_9:\n  pop\n    /* \"contracts/instructor.sol\":792:802  msg.sender */\n  caller\n    /* \"contracts/instructor.sol\":767:784  academyInstructor */\n  0x00\n    /* \"contracts/instructor.sol\":767:789  academyInstructor.addr */\n  0x02\n  add\n  0x00\n    /* \"contracts/instructor.sol\":767:802  academyInstructor.addr = msg.sender */\n  0x0100\n  exp\n  dup2\n  sload\n  dup2\n  0xffffffffffffffffffffffffffffffffffffffff\n  mul\n  not\n  and\n  swap1\n  dup4\n  0xffffffffffffffffffffffffffffffffffffffff\n  and\n  mul\n  or\n  swap1\n  sstore\n  pop\n    /* \"contracts/instructor.sol\":633:810  constructor(uint _age, string memory _name){... */\n  pop\n  pop\n    /* \"contracts/instructor.sol\":256:1234  contract Academy{... */\n  jump(tag_11)\n    /* \"#utility.yul\":7:187   */\ntag_3:\n    /* \"#utility.yul\":55:132   */\n  0x4e487b7100000000000000000000000000000000000000000000000000000000\n    /* \"#utility.yul\":52:53   */\n  0x00\n    /* \"#utility.yul\":45:133   */\n  mstore\n    /* \"#utility.yul\":152:156   */\n  0x21\n    /* \"#utility.yul\":149:150   */\n  0x04\n    /* \"#utility.yul\":142:157   */\n  mstore\n    /* \"#utility.yul\":176:180   */\n  0x24\n    /* \"#utility.yul\":173:174   */\n  0x00\n    /* \"#utility.yul\":166:181   */\n  revert\n    /* \"#utility.yul\":193:268   */\ntag_12:\n    /* \"#utility.yul\":226:232   */\n  0x00\n    /* \"#utility.yul\":259:261   */\n  0x40\n    /* \"#utility.yul\":253:262   */\n  mload\n    /* \"#utility.yul\":243:262   */\n  swap1\n  pop\n    /* \"#utility.yul\":193:268   */\n  swap1\n  jump\t// out\n    /* \"#utility.yul\":274:391   */\ntag_13:\n    /* \"#utility.yul\":383:384   */\n  0x00\n    /* \"#utility.yul\":380:381   */\n  dup1\n    /* \"#utility.yul\":373:385   */\n  revert\n    /* \"#utility.yul\":397:514   */\ntag_14:\n    /* \"#utility.yul\":506:507   */\n  0x00\n    /* \"#utility.yul\":503:504   */\n  dup1\n    /* \"#utility.yul\":496:508   */\n  revert\n    /* \"#utility.yul\":520:597   */\ntag_15:\n    /* \"#utility.yul\":557:564   */\n  0x00\n    /* \"#utility.yul\":586:591   */\n  dup2\n    /* \"#utility.yul\":575:591   */\n  swap1\n  pop\n    /* \"#utility.yul\":520:597   */\n  swap2\n  swap1\n  pop\n  jump\t// out\n    /* \"#utility.yul\":603:725   */\ntag_16:\n    /* \"#utility.yul\":676:700   */\n  tag_53\n    /* \"#utility.yul\":694:699   */\n  dup2\n    /* \"#utility.yul\":676:700   */\n  tag_15\n  jump\t// in\ntag_53:\n    /* \"#utility.yul\":669:674   */\n  dup2\n    /* \"#utility.yul\":666:701   */\n  eq\n    /* \"#utility.yul\":656:719   */\n  tag_54\n  jumpi\n    /* \"#utility.yul\":715:716   */\n  0x00\n    /* \"#utility.yul\":712:713   */\n  dup1\n    /* \"#utility.yul\":705:717   */\n  revert\n    /* \"#utility.yul\":656:719   */\ntag_54:\n    /* \"#utility.yul\":603:725   */\n  pop\n  jump\t// out\n    /* \"#utility.yul\":731:874   */\ntag_17:\n    /* \"#utility.yul\":788:793   */\n  0x00\n    /* \"#utility.yul\":819:825   */\n  dup2\n    /* \"#utility.yul\":813:826   */\n  mload\n    /* \"#utility.yul\":804:826   */\n  swap1\n  pop\n    /* \"#utility.yul\":835:868   */\n  tag_56\n    /* \"#utility.yul\":862:867   */\n  dup2\n    /* \"#utility.yul\":835:868   */\n  tag_16\n  jump\t// in\ntag_56:\n    /* \"#utility.yul\":731:874   */\n  swap3\n  swap2\n  pop\n  pop\n  jump\t// out\n    /* \"#utility.yul\":880:997   */\ntag_18:\n    /* \"#utility.yul\":989:990   */\n  0x00\n    /* \"#utility.yul\":986:987   */\n  dup1\n    /* \"#utility.yul\":979:991   */\n  revert\n    /* \"#utility.yul\":1003:1120   */\ntag_19:\n    /* \"#utility.yul\":1112:1113   */\n  0x00\n    /* \"#utility.yul\":1109:1110   */\n  dup1\n    /* \"#utility.yul\":1102:1114   */\n  revert\n    /* \"#utility.yul\":1126:1228   */\ntag_20:\n    /* \"#utility.yul\":1167:1173   */\n  0x00\n    /* \"#utility.yul\":1218:1220   */\n  0x1f\n    /* \"#utility.yul\":1214:1221   */\n  not\n    /* \"#utility.yul\":1209:1211   */\n  0x1f\n    /* \"#utility.yul\":1202:1207   */\n  dup4\n    /* \"#utility.yul\":1198:1212   */\n  add\n    /* \"#utility.yul\":1194:1222   */\n  and\n    /* \"#utility.yul\":1184:1222   */\n  swap1\n  pop\n    /* \"#utility.yul\":1126:1228   */\n  swap2\n  swap1\n  pop\n  jump\t// out\n    /* \"#utility.yul\":1234:1414   */\ntag_21:\n    /* \"#utility.yul\":1282:1359   */\n  0x4e487b7100000000000000000000000000000000000000000000000000000000\n    /* \"#utility.yul\":1279:1280   */\n  0x00\n    /* \"#utility.yul\":1272:1360   */\n  mstore\n    /* \"#utility.yul\":1379:1383   */\n  0x41\n    /* \"#utility.yul\":1376:1377   */\n  0x04\n    /* \"#utility.yul\":1369:1384   */\n  mstore\n    /* \"#utility.yul\":1403:1407   */\n  0x24\n    /* \"#utility.yul\":1400:1401   */\n  0x00\n    /* \"#utility.yul\":1393:1408   */\n  revert\n    /* \"#utility.yul\":1420:1701   */\ntag_22:\n    /* \"#utility.yul\":1503:1530   */\n  tag_62\n    /* \"#utility.yul\":1525:1529   */\n  dup3\n    /* \"#utility.yul\":1503:1530   */\n  tag_20\n  jump\t// in\ntag_62:\n    /* \"#utility.yul\":1495:1501   */\n  dup2\n    /* \"#utility.yul\":1491:1531   */\n  add\n    /* \"#utility.yul\":1633:1639   */\n  dup2\n    /* \"#utility.yul\":1621:1631   */\n  dup2\n    /* \"#utility.yul\":1618:1640   */\n  lt\n    /* \"#utility.yul\":1597:1615   */\n  0xffffffffffffffff\n    /* \"#utility.yul\":1585:1595   */\n  dup3\n    /* \"#utility.yul\":1582:1616   */\n  gt\n    /* \"#utility.yul\":1579:1641   */\n  or\n    /* \"#utility.yul\":1576:1664   */\n  iszero\n  tag_63\n  jumpi\n    /* \"#utility.yul\":1644:1662   */\n  tag_64\n  tag_21\n  jump\t// in\ntag_64:\n    /* \"#utility.yul\":1576:1664   */\ntag_63:\n    /* \"#utility.yul\":1684:1694   */\n  dup1\n    /* \"#utility.yul\":1680:1682   */\n  0x40\n    /* \"#utility.yul\":1673:1695   */\n  mstore\n    /* \"#utility.yul\":1463:1701   */\n  pop\n    /* \"#utility.yul\":1420:1701   */\n  pop\n  pop\n  jump\t// out\n    /* \"#utility.yul\":1707:1836   */\ntag_23:\n    /* \"#utility.yul\":1741:1747   */\n  0x00\n    /* \"#utility.yul\":1768:1788   */\n  tag_66\n  tag_12\n  jump\t// in\ntag_66:\n    /* \"#utility.yul\":1758:1788   */\n  swap1\n  pop\n    /* \"#utility.yul\":1797:1830   */\n  tag_67\n    /* \"#utility.yul\":1825:1829   */\n  dup3\n    /* \"#utility.yul\":1817:1823   */\n  dup3\n    /* \"#utility.yul\":1797:1830   */\n  tag_22\n  jump\t// in\ntag_67:\n    /* \"#utility.yul\":1707:1836   */\n  swap2\n  swap1\n  pop\n  jump\t// out\n    /* \"#utility.yul\":1842:2150   */\ntag_24:\n    /* \"#utility.yul\":1904:1908   */\n  0x00\n    /* \"#utility.yul\":1994:2012   */\n  0xffffffffffffffff\n    /* \"#utility.yul\":1986:1992   */\n  dup3\n    /* \"#utility.yul\":1983:2013   */\n  gt\n    /* \"#utility.yul\":1980:2036   */\n  iszero\n  tag_69\n  jumpi\n    /* \"#utility.yul\":2016:2034   */\n  tag_70\n  tag_21\n  jump\t// in\ntag_70:\n    /* \"#utility.yul\":1980:2036   */\ntag_69:\n    /* \"#utility.yul\":2054:2083   */\n  tag_71\n    /* \"#utility.yul\":2076:2082   */\n  dup3\n    /* \"#utility.yul\":2054:2083   */\n  tag_20\n  jump\t// in\ntag_71:\n    /* \"#utility.yul\":2046:2083   */\n  swap1\n  pop\n    /* \"#utility.yul\":2138:2142   */\n  0x20\n    /* \"#utility.yul\":2132:2136   */\n  dup2\n    /* \"#utility.yul\":2128:2143   */\n  add\n    /* \"#utility.yul\":2120:2143   */\n  swap1\n  pop\n    /* \"#utility.yul\":1842:2150   */\n  swap2\n  swap1\n  pop\n  jump\t// out\n    /* \"#utility.yul\":2156:2295   */\ntag_25:\n    /* \"#utility.yul\":2245:2251   */\n  dup3\n    /* \"#utility.yul\":2240:2243   */\n  dup2\n    /* \"#utility.yul\":2235:2238   */\n  dup4\n    /* \"#utility.yul\":2229:2252   */\n  mcopy\n    /* \"#utility.yul\":2286:2287   */\n  0x00\n    /* \"#utility.yul\":2277:2283   */\n  dup4\n    /* \"#utility.yul\":2272:2275   */\n  dup4\n    /* \"#utility.yul\":2268:2284   */\n  add\n    /* \"#utility.yul\":2261:2288   */\n  mstore\n    /* \"#utility.yul\":2156:2295   */\n  pop\n  pop\n  pop\n  jump\t// out\n    /* \"#utility.yul\":2301:2735   */\ntag_26:\n    /* \"#utility.yul\":2390:2395   */\n  0x00\n    /* \"#utility.yul\":2415:2481   */\n  tag_74\n    /* \"#utility.yul\":2431:2480   */\n  tag_75\n    /* \"#utility.yul\":2473:2479   */\n  dup5\n    /* \"#utility.yul\":2431:2480   */\n  tag_24\n  jump\t// in\ntag_75:\n    /* \"#utility.yul\":2415:2481   */\n  tag_23\n  jump\t// in\ntag_74:\n    /* \"#utility.yul\":2406:2481   */\n  swap1\n  pop\n    /* \"#utility.yul\":2504:2510   */\n  dup3\n    /* \"#utility.yul\":2497:2502   */\n  dup2\n    /* \"#utility.yul\":2490:2511   */\n  mstore\n    /* \"#utility.yul\":2542:2546   */\n  0x20\n    /* \"#utility.yul\":2535:2540   */\n  dup2\n    /* \"#utility.yul\":2531:2547   */\n  add\n    /* \"#utility.yul\":2580:2583   */\n  dup5\n    /* \"#utility.yul\":2571:2577   */\n  dup5\n    /* \"#utility.yul\":2566:2569   */\n  dup5\n    /* \"#utility.yul\":2562:2578   */\n  add\n    /* \"#utility.yul\":2559:2584   */\n  gt\n    /* \"#utility.yul\":2556:2668   */\n  iszero\n  tag_76\n  jumpi\n    /* \"#utility.yul\":2587:2666   */\n  tag_77\n  tag_19\n  jump\t// in\ntag_77:\n    /* \"#utility.yul\":2556:2668   */\ntag_76:\n    /* \"#utility.yul\":2677:2729   */\n  tag_78\n    /* \"#utility.yul\":2722:2728   */\n  dup5\n    /* \"#utility.yul\":2717:2720   */\n  dup3\n    /* \"#utility.yul\":2712:2715   */\n  dup6\n    /* \"#utility.yul\":2677:2729   */\n  tag_25\n  jump\t// in\ntag_78:\n    /* \"#utility.yul\":2396:2735   */\n  pop\n    /* \"#utility.yul\":2301:2735   */\n  swap4\n  swap3\n  pop\n  pop\n  pop\n  jump\t// out\n    /* \"#utility.yul\":2755:3110   */\ntag_27:\n    /* \"#utility.yul\":2822:2827   */\n  0x00\n    /* \"#utility.yul\":2871:2874   */\n  dup3\n    /* \"#utility.yul\":2864:2868   */\n  0x1f\n    /* \"#utility.yul\":2856:2862   */\n  dup4\n    /* \"#utility.yul\":2852:2869   */\n  add\n    /* \"#utility.yul\":2848:2875   */\n  slt\n    /* \"#utility.yul\":2838:2960   */\n  tag_80\n  jumpi\n    /* \"#utility.yul\":2879:2958   */\n  tag_81\n  tag_18\n  jump\t// in\ntag_81:\n    /* \"#utility.yul\":2838:2960   */\ntag_80:\n    /* \"#utility.yul\":2989:2995   */\n  dup2\n    /* \"#utility.yul\":2983:2996   */\n  mload\n    /* \"#utility.yul\":3014:3104   */\n  tag_82\n    /* \"#utility.yul\":3100:3103   */\n  dup5\n    /* \"#utility.yul\":3092:3098   */\n  dup3\n    /* \"#utility.yul\":3085:3089   */\n  0x20\n    /* \"#utility.yul\":3077:3083   */\n  dup7\n    /* \"#utility.yul\":3073:3090   */\n  add\n    /* \"#utility.yul\":3014:3104   */\n  tag_26\n  jump\t// in\ntag_82:\n    /* \"#utility.yul\":3005:3104   */\n  swap2\n  pop\n    /* \"#utility.yul\":2828:3110   */\n  pop\n    /* \"#utility.yul\":2755:3110   */\n  swap3\n  swap2\n  pop\n  pop\n  jump\t// out\n    /* \"#utility.yul\":3116:3796   */\ntag_6:\n    /* \"#utility.yul\":3205:3211   */\n  0x00\n    /* \"#utility.yul\":3213:3219   */\n  dup1\n    /* \"#utility.yul\":3262:3264   */\n  0x40\n    /* \"#utility.yul\":3250:3259   */\n  dup4\n    /* \"#utility.yul\":3241:3248   */\n  dup6\n    /* \"#utility.yul\":3237:3260   */\n  sub\n    /* \"#utility.yul\":3233:3265   */\n  slt\n    /* \"#utility.yul\":3230:3349   */\n  iszero\n  tag_84\n  jumpi\n    /* \"#utility.yul\":3268:3347   */\n  tag_85\n  tag_13\n  jump\t// in\ntag_85:\n    /* \"#utility.yul\":3230:3349   */\ntag_84:\n    /* \"#utility.yul\":3388:3389   */\n  0x00\n    /* \"#utility.yul\":3413:3477   */\n  tag_86\n    /* \"#utility.yul\":3469:3476   */\n  dup6\n    /* \"#utility.yul\":3460:3466   */\n  dup3\n    /* \"#utility.yul\":3449:3458   */\n  dup7\n    /* \"#utility.yul\":3445:3467   */\n  add\n    /* \"#utility.yul\":3413:3477   */\n  tag_17\n  jump\t// in\ntag_86:\n    /* \"#utility.yul\":3403:3477   */\n  swap3\n  pop\n    /* \"#utility.yul\":3359:3487   */\n  pop\n    /* \"#utility.yul\":3547:3549   */\n  0x20\n    /* \"#utility.yul\":3536:3545   */\n  dup4\n    /* \"#utility.yul\":3532:3550   */\n  add\n    /* \"#utility.yul\":3526:3551   */\n  mload\n    /* \"#utility.yul\":3578:3596   */\n  0xffffffffffffffff\n    /* \"#utility.yul\":3570:3576   */\n  dup2\n    /* \"#utility.yul\":3567:3597   */\n  gt\n    /* \"#utility.yul\":3564:3681   */\n  iszero\n  tag_87\n  jumpi\n    /* \"#utility.yul\":3600:3679   */\n  tag_88\n  tag_14\n  jump\t// in\ntag_88:\n    /* \"#utility.yul\":3564:3681   */\ntag_87:\n    /* \"#utility.yul\":3705:3779   */\n  tag_89\n    /* \"#utility.yul\":3771:3778   */\n  dup6\n    /* \"#utility.yul\":3762:3768   */\n  dup3\n    /* \"#utility.yul\":3751:3760   */\n  dup7\n    /* \"#utility.yul\":3747:3769   */\n  add\n    /* \"#utility.yul\":3705:3779   */\n  tag_27\n  jump\t// in\ntag_89:\n    /* \"#utility.yul\":3695:3779   */\n  swap2\n  pop\n    /* \"#utility.yul\":3497:3789   */\n  pop\n    /* \"#utility.yul\":3116:3796   */\n  swap3\n  pop\n  swap3\n  swap1\n  pop\n  jump\t// out\n    /* \"#utility.yul\":3802:3901   */\ntag_28:\n    /* \"#utility.yul\":3854:3860   */\n  0x00\n    /* \"#utility.yul\":3888:3893   */\n  dup2\n    /* \"#utility.yul\":3882:3894   */\n  mload\n    /* \"#utility.yul\":3872:3894   */\n  swap1\n  pop\n    /* \"#utility.yul\":3802:3901   */\n  swap2\n  swap1\n  pop\n  jump\t// out\n    /* \"#utility.yul\":3907:4087   */\ntag_29:\n    /* \"#utility.yul\":3955:4032   */\n  0x4e487b7100000000000000000000000000000000000000000000000000000000\n    /* \"#utility.yul\":3952:3953   */\n  0x00\n    /* \"#utility.yul\":3945:4033   */\n  mstore\n    /* \"#utility.yul\":4052:4056   */\n  0x22\n    /* \"#utility.yul\":4049:4050   */\n  0x04\n    /* \"#utility.yul\":4042:4057   */\n  mstore\n    /* \"#utility.yul\":4076:4080   */\n  0x24\n    /* \"#utility.yul\":4073:4074   */\n  0x00\n    /* \"#utility.yul\":4066:4081   */\n  revert\n    /* \"#utility.yul\":4093:4413   */\ntag_30:\n    /* \"#utility.yul\":4137:4143   */\n  0x00\n    /* \"#utility.yul\":4174:4175   */\n  0x02\n    /* \"#utility.yul\":4168:4172   */\n  dup3\n    /* \"#utility.yul\":4164:4176   */\n  div\n    /* \"#utility.yul\":4154:4176   */\n  swap1\n  pop\n    /* \"#utility.yul\":4221:4222   */\n  0x01\n    /* \"#utility.yul\":4215:4219   */\n  dup3\n    /* \"#utility.yul\":4211:4223   */\n  and\n    /* \"#utility.yul\":4242:4260   */\n  dup1\n    /* \"#utility.yul\":4232:4313   */\n  tag_93\n  jumpi\n    /* \"#utility.yul\":4298:4302   */\n  0x7f\n    /* \"#utility.yul\":4290:4296   */\n  dup3\n    /* \"#utility.yul\":4286:4303   */\n  and\n    /* \"#utility.yul\":4276:4303   */\n  swap2\n  pop\n    /* \"#utility.yul\":4232:4313   */\ntag_93:\n    /* \"#utility.yul\":4360:4362   */\n  0x20\n    /* \"#utility.yul\":4352:4358   */\n  dup3\n    /* \"#utility.yul\":4349:4363   */\n  lt\n    /* \"#utility.yul\":4329:4347   */\n  dup2\n    /* \"#utility.yul\":4326:4364   */\n  sub\n    /* \"#utility.yul\":4323:4407   */\n  tag_94\n  jumpi\n    /* \"#utility.yul\":4379:4397   */\n  tag_95\n  tag_29\n  jump\t// in\ntag_95:\n    /* \"#utility.yul\":4323:4407   */\ntag_94:\n    /* \"#utility.yul\":4144:4413   */\n  pop\n    /* \"#utility.yul\":4093:4413   */\n  swap2\n  swap1\n  pop\n  jump\t// out\n    /* \"#utility.yul\":4419:4560   */\ntag_31:\n    /* \"#utility.yul\":4468:4472   */\n  0x00\n    /* \"#utility.yul\":4491:4494   */\n  dup2\n    /* \"#utility.yul\":4483:4494   */\n  swap1\n  pop\n    /* \"#utility.yul\":4514:4517   */\n  dup2\n    /* \"#utility.yul\":4511:4512   */\n  0x00\n    /* \"#utility.yul\":4504:4518   */\n  mstore\n    /* \"#utility.yul\":4548:4552   */\n  0x20\n    /* \"#utility.yul\":4545:4546   */\n  0x00\n    /* \"#utility.yul\":4535:4553   */\n  keccak256\n    /* \"#utility.yul\":4527:4553   */\n  swap1\n  pop\n    /* \"#utility.yul\":4419:4560   */\n  swap2\n  swap1\n  pop\n  jump\t// out\n    /* \"#utility.yul\":4566:4659   */\ntag_32:\n    /* \"#utility.yul\":4603:4609   */\n  0x00\n    /* \"#utility.yul\":4650:4652   */\n  0x20\n    /* \"#utility.yul\":4645:4647   */\n  0x1f\n    /* \"#utility.yul\":4638:4643   */\n  dup4\n    /* \"#utility.yul\":4634:4648   */\n  add\n    /* \"#utility.yul\":4630:4653   */\n  div\n    /* \"#utility.yul\":4620:4653   */\n  swap1\n  pop\n    /* \"#utility.yul\":4566:4659   */\n  swap2\n  swap1\n  pop\n  jump\t// out\n    /* \"#utility.yul\":4665:4772   */\ntag_33:\n    /* \"#utility.yul\":4709:4717   */\n  0x00\n    /* \"#utility.yul\":4759:4764   */\n  dup3\n    /* \"#utility.yul\":4753:4757   */\n  dup3\n    /* \"#utility.yul\":4749:4765   */\n  shl\n    /* \"#utility.yul\":4728:4765   */\n  swap1\n  pop\n    /* \"#utility.yul\":4665:4772   */\n  swap3\n  swap2\n  pop\n  pop\n  jump\t// out\n    /* \"#utility.yul\":4778:5171   */\ntag_34:\n    /* \"#utility.yul\":4847:4853   */\n  0x00\n    /* \"#utility.yul\":4897:4898   */\n  0x08\n    /* \"#utility.yul\":4885:4895   */\n  dup4\n    /* \"#utility.yul\":4881:4899   */\n  mul\n    /* \"#utility.yul\":4920:5017   */\n  tag_100\n    /* \"#utility.yul\":4950:5016   */\n  0xffffffffffffffffffffffffffffffffffffffffffffffffffffffffffffffff\n    /* \"#utility.yul\":4939:4948   */\n  dup3\n    /* \"#utility.yul\":4920:5017   */\n  tag_33\n  jump\t// in\ntag_100:\n    /* \"#utility.yul\":5038:5077   */\n  tag_101\n    /* \"#utility.yul\":5068:5076   */\n  dup7\n    /* \"#utility.yul\":5057:5066   */\n  dup4\n    /* \"#utility.yul\":5038:5077   */\n  tag_33\n  jump\t// in\ntag_101:\n    /* \"#utility.yul\":5026:5077   */\n  swap6\n  pop\n    /* \"#utility.yul\":5110:5114   */\n  dup1\n    /* \"#utility.yul\":5106:5115   */\n  not\n    /* \"#utility.yul\":5099:5104   */\n  dup5\n    /* \"#utility.yul\":5095:5116   */\n  and\n    /* \"#utility.yul\":5086:5116   */\n  swap4\n  pop\n    /* \"#utility.yul\":5159:5163   */\n  dup1\n    /* \"#utility.yul\":5149:5157   */\n  dup7\n    /* \"#utility.yul\":5145:5164   */\n  and\n    /* \"#utility.yul\":5138:5143   */\n  dup5\n    /* \"#utility.yul\":5135:5165   */\n  or\n    /* \"#utility.yul\":5125:5165   */\n  swap3\n  pop\n    /* \"#utility.yul\":4854:5171   */\n  pop\n  pop\n    /* \"#utility.yul\":4778:5171   */\n  swap4\n  swap3\n  pop\n  pop\n  pop\n  jump\t// out\n    /* \"#utility.yul\":5177:5237   */\ntag_35:\n    /* \"#utility.yul\":5205:5208   */\n  0x00\n    /* \"#utility.yul\":5226:5231   */\n  dup2\n    /* \"#utility.yul\":5219:5231   */\n  swap1\n  pop\n    /* \"#utility.yul\":5177:5237   */\n  swap2\n  swap1\n  pop\n  jump\t// out\n    /* \"#utility.yul\":5243:5385   */\ntag_36:\n    /* \"#utility.yul\":5293:5302   */\n  0x00\n    /* \"#utility.yul\":5326:5379   */\n  tag_104\n    /* \"#utility.yul\":5344:5378   */\n  tag_105\n    /* \"#utility.yul\":5353:5377   */\n  tag_106\n    /* \"#utility.yul\":5371:5376   */\n  dup5\n    /* \"#utility.yul\":5353:5377   */\n  tag_15\n  jump\t// in\ntag_106:\n    /* \"#utility.yul\":5344:5378   */\n  tag_35\n  jump\t// in\ntag_105:\n    /* \"#utility.yul\":5326:5379   */\n  tag_15\n  jump\t// in\ntag_104:\n    /* \"#utility.yul\":5313:5379   */\n  swap1\n  pop\n    /* \"#utility.yul\":5243:5385   */\n  swap2\n  swap1\n  pop\n  jump\t// out\n    /* \"#utility.yul\":5391:5466   */\ntag_37:\n    /* \"#utility.yul\":5434:5437   */\n  0x00\n    /* \"#utility.yul\":5455:5460   */\n  dup2\n    /* \"#utility.yul\":5448:5460   */\n  swap1\n  pop\n    /* \"#utility.yul\":5391:5466   */\n  swap2\n  swap1\n  pop\n  jump\t// out\n    /* \"#utility.yul\":5472:5741   */\ntag_38:\n    /* \"#utility.yul\":5582:5621   */\n  tag_109\n    /* \"#utility.yul\":5613:5620   */\n  dup4\n    /* \"#utility.yul\":5582:5621   */\n  tag_36\n  jump\t// in\ntag_109:\n    /* \"#utility.yul\":5643:5734   */\n  tag_110\n    /* \"#utility.yul\":5692:5733   */\n  tag_111\n    /* \"#utility.yul\":5716:5732   */\n  dup3\n    /* \"#utility.yul\":5692:5733   */\n  tag_37\n  jump\t// in\ntag_111:\n    /* \"#utility.yul\":5684:5690   */\n  dup5\n    /* \"#utility.yul\":5677:5681   */\n  dup5\n    /* \"#utility.yul\":5671:5682   */\n  sload\n    /* \"#utility.yul\":5643:5734   */\n  tag_34\n  jump\t// in\ntag_110:\n    /* \"#utility.yul\":5637:5641   */\n  dup3\n    /* \"#utility.yul\":5630:5735   */\n  sstore\n    /* \"#utility.yul\":5548:5741   */\n  pop\n    /* \"#utility.yul\":5472:5741   */\n  pop\n  pop\n  pop\n  jump\t// out\n    /* \"#utility.yul\":5747:5820   */\ntag_39:\n    /* \"#utility.yul\":5792:5795   */\n  0x00\n    /* \"#utility.yul\":5747:5820   */\n  swap1\n  jump\t// out\n    /* \"#utility.yul\":5826:6015   */\ntag_40:\n    /* \"#utility.yul\":5903:5935   */\n  tag_114\n  tag_39\n  jump\t// in\ntag_114:\n    /* \"#utility.yul\":5944:6009   */\n  tag_115\n    /* \"#utility.yul\":6002:6008   */\n  dup2\n    /* \"#utility.yul\":5994:6000   */\n  dup5\n    /* \"#utility.yul\":5988:5992   */\n  dup5\n    /* \"#utility.yul\":5944:6009   */\n  tag_38\n  jump\t// in\ntag_115:\n    /* \"#utility.yul\":5879:6015   */\n  pop\n    /* \"#utility.yul\":5826:6015   */\n  pop\n  pop\n  jump\t// out\n    /* \"#utility.yul\":6021:6207   */\ntag_41:\n    /* \"#utility.yul\":6081:6201   */\ntag_117:\n    /* \"#utility.yul\":6098:6101   */\n  dup2\n    /* \"#utility.yul\":6091:6096   */\n  dup2\n    /* \"#utility.yul\":6088:6102   */\n  lt\n    /* \"#utility.yul\":6081:6201   */\n  iszero\n  tag_119\n  jumpi\n    /* \"#utility.yul\":6152:6191   */\n  tag_120\n    /* \"#utility.yul\":6189:6190   */\n  0x00\n    /* \"#utility.yul\":6182:6187   */\n  dup3\n    /* \"#utility.yul\":6152:6191   */\n  tag_40\n  jump\t// in\ntag_120:\n    /* \"#utility.yul\":6125:6126   */\n  0x01\n    /* \"#utility.yul\":6118:6123   */\n  dup2\n    /* \"#utility.yul\":6114:6127   */\n  add\n    /* \"#utility.yul\":6105:6127   */\n  swap1\n  pop\n    /* \"#utility.yul\":6081:6201   */\n  jump(tag_117)\ntag_119:\n    /* \"#utility.yul\":6021:6207   */\n  pop\n  pop\n  jump\t// out\n    /* \"#utility.yul\":6213:6756   */\ntag_42:\n    /* \"#utility.yul\":6314:6316   */\n  0x1f\n    /* \"#utility.yul\":6309:6312   */\n  dup3\n    /* \"#utility.yul\":6306:6317   */\n  gt\n    /* \"#utility.yul\":6303:6749   */\n  iszero\n  tag_122\n  jumpi\n    /* \"#utility.yul\":6348:6386   */\n  tag_123\n    /* \"#utility.yul\":6380:6385   */\n  dup2\n    /* \"#utility.yul\":6348:6386   */\n  tag_31\n  jump\t// in\ntag_123:\n    /* \"#utility.yul\":6432:6461   */\n  tag_124\n    /* \"#utility.yul\":6450:6460   */\n  dup5\n    /* \"#utility.yul\":6432:6461   */\n  tag_32\n  jump\t// in\ntag_124:\n    /* \"#utility.yul\":6422:6430   */\n  dup2\n    /* \"#utility.yul\":6418:6462   */\n  add\n    /* \"#utility.yul\":6615:6617   */\n  0x20\n    /* \"#utility.yul\":6603:6613   */\n  dup6\n    /* \"#utility.yul\":6600:6618   */\n  lt\n    /* \"#utility.yul\":6597:6646   */\n  iszero\n  tag_125\n  jumpi\n    /* \"#utility.yul\":6636:6644   */\n  dup2\n    /* \"#utility.yul\":6621:6644   */\n  swap1\n  pop\n    /* \"#utility.yul\":6597:6646   */\ntag_125:\n    /* \"#utility.yul\":6659:6739   */\n  tag_126\n    /* \"#utility.yul\":6715:6737   */\n  tag_127\n    /* \"#utility.yul\":6733:6736   */\n  dup6\n    /* \"#utility.yul\":6715:6737   */\n  tag_32\n  jump\t// in\ntag_127:\n    /* \"#utility.yul\":6705:6713   */\n  dup4\n    /* \"#utility.yul\":6701:6738   */\n  add\n    /* \"#utility.yul\":6688:6699   */\n  dup3\n    /* \"#utility.yul\":6659:6739   */\n  tag_41\n  jump\t// in\ntag_126:\n    /* \"#utility.yul\":6318:6749   */\n  pop\n  pop\n    /* \"#utility.yul\":6303:6749   */\ntag_122:\n    /* \"#utility.yul\":6213:6756   */\n  pop\n  pop\n  pop\n  jump\t// out\n    /* \"#utility.yul\":6762:6879   */\ntag_43:\n    /* \"#utility.yul\":6816:6824   */\n  0x00\n    /* \"#utility.yul\":6866:6871   */\n  dup3\n    /* \"#utility.yul\":6860:6864   */\n  dup3\n    /* \"#utility.yul\":6856:6872   */\n  shr\n    /* \"#utility.yul\":6835:6872   */\n  swap1\n  pop\n    /* \"#utility.yul\":6762:6879   */\n  swap3\n  swap2\n  pop\n  pop\n  jump\t// out\n    /* \"#utility.yul\":6885:7054   */\ntag_44:\n    /* \"#utility.yul\":6929:6935   */\n  0x00\n    /* \"#utility.yul\":6962:7013   */\n  tag_130\n    /* \"#utility.yul\":7010:7011   */\n  0x00\n    /* \"#utility.yul\":7006:7012   */\n  not\n    /* \"#utility.yul\":6998:7003   */\n  dup5\n    /* \"#utility.yul\":6995:6996   */\n  0x08\n    /* \"#utility.yul\":6991:7004   */\n  mul\n    /* \"#utility.yul\":6962:7013   */\n  tag_43\n  jump\t// in\ntag_130:\n    /* \"#utility.yul\":6958:7014   */\n  not\n    /* \"#utility.yul\":7043:7047   */\n  dup1\n    /* \"#utility.yul\":7037:7041   */\n  dup4\n    /* \"#utility.yul\":7033:7048   */\n  and\n    /* \"#utility.yul\":7023:7048   */\n  swap2\n  pop\n    /* \"#utility.yul\":6936:7054   */\n  pop\n    /* \"#utility.yul\":6885:7054   */\n  swap3\n  swap2\n  pop\n  pop\n  jump\t// out\n    /* \"#utility.yul\":7059:7354   */\ntag_45:\n    /* \"#utility.yul\":7135:7139   */\n  0x00\n    /* \"#utility.yul\":7281:7310   */\n  tag_132\n    /* \"#utility.yul\":7306:7309   */\n  dup4\n    /* \"#utility.yul\":7300:7304   */\n  dup4\n    /* \"#utility.yul\":7281:7310   */\n  tag_44\n  jump\t// in\ntag_132:\n    /* \"#utility.yul\":7273:7310   */\n  swap2\n  pop\n    /* \"#utility.yul\":7343:7346   */\n  dup3\n    /* \"#utility.yul\":7340:7341   */\n  0x02\n    /* \"#utility.yul\":7336:7347   */\n  mul\n    /* \"#utility.yul\":7330:7334   */\n  dup3\n    /* \"#utility.yul\":7327:7348   */\n  or\n    /* \"#utility.yul\":7319:7348   */\n  swap1\n  pop\n    /* \"#utility.yul\":7059:7354   */\n  swap3\n  swap2\n  pop\n  pop\n  jump\t// out\n    /* \"#utility.yul\":7359:8754   */\ntag_10:\n    /* \"#utility.yul\":7476:7513   */\n  tag_134\n    /* \"#utility.yul\":7509:7512   */\n  dup3\n    /* \"#utility.yul\":7476:7513   */\n  tag_28\n  jump\t// in\ntag_134:\n    /* \"#utility.yul\":7578:7596   */\n  0xffffffffffffffff\n    /* \"#utility.yul\":7570:7576   */\n  dup2\n    /* \"#utility.yul\":7567:7597   */\n  gt\n    /* \"#utility.yul\":7564:7620   */\n  iszero\n  tag_135\n  jumpi\n    /* \"#utility.yul\":7600:7618   */\n  tag_136\n  tag_21\n  jump\t// in\ntag_136:\n    /* \"#utility.yul\":7564:7620   */\ntag_135:\n    /* \"#utility.yul\":7644:7682   */\n  tag_137\n    /* \"#utility.yul\":7676:7680   */\n  dup3\n    /* \"#utility.yul\":7670:7681   */\n  sload\n    /* \"#utility.yul\":7644:7682   */\n  tag_30\n  jump\t// in\ntag_137:\n    /* \"#utility.yul\":7729:7796   */\n  tag_138\n    /* \"#utility.yul\":7789:7795   */\n  dup3\n    /* \"#utility.yul\":7781:7787   */\n  dup3\n    /* \"#utility.yul\":7775:7779   */\n  dup6\n    /* \"#utility.yul\":7729:7796   */\n  tag_42\n  jump\t// in\ntag_138:\n    /* \"#utility.yul\":7823:7824   */\n  0x00\n    /* \"#utility.yul\":7847:7851   */\n  0x20\n    /* \"#utility.yul\":7834:7851   */\n  swap1\n  pop\n    /* \"#utility.yul\":7879:7881   */\n  0x1f\n    /* \"#utility.yul\":7871:7877   */\n  dup4\n    /* \"#utility.yul\":7868:7882   */\n  gt\n    /* \"#utility.yul\":7896:7897   */\n  0x01\n    /* \"#utility.yul\":7891:8509   */\n  dup2\n  eq\n  tag_140\n  jumpi\n    /* \"#utility.yul\":8553:8554   */\n  0x00\n    /* \"#utility.yul\":8570:8576   */\n  dup5\n    /* \"#utility.yul\":8567:8644   */\n  iszero\n  tag_141\n  jumpi\n    /* \"#utility.yul\":8619:8628   */\n  dup3\n    /* \"#utility.yul\":8614:8617   */\n  dup8\n    /* \"#utility.yul\":8610:8629   */\n  add\n    /* \"#utility.yul\":8604:8630   */\n  mload\n    /* \"#utility.yul\":8595:8630   */\n  swap1\n  pop\n    /* \"#utility.yul\":8567:8644   */\ntag_141:\n    /* \"#utility.yul\":8670:8737   */\n  tag_142\n    /* \"#utility.yul\":8730:8736   */\n  dup6\n    /* \"#utility.yul\":8723:8728   */\n  dup3\n    /* \"#utility.yul\":8670:8737   */\n  tag_45\n  jump\t// in\ntag_142:\n    /* \"#utility.yul\":8664:8668   */\n  dup7\n    /* \"#utility.yul\":8657:8738   */\n  sstore\n    /* \"#utility.yul\":8526:8748   */\n  pop\n    /* \"#utility.yul\":7861:8748   */\n  jump(tag_139)\n    /* \"#utility.yul\":7891:8509   */\ntag_140:\n    /* \"#utility.yul\":7943:7947   */\n  0x1f\n    /* \"#utility.yul\":7939:7948   */\n  not\n    /* \"#utility.yul\":7931:7937   */\n  dup5\n    /* \"#utility.yul\":7927:7949   */\n  and\n    /* \"#utility.yul\":7977:8014   */\n  tag_143\n    /* \"#utility.yul\":8009:8013   */\n  dup7\n    /* \"#utility.yul\":7977:8014   */\n  tag_31\n  jump\t// in\ntag_143:\n    /* \"#utility.yul\":8036:8037   */\n  0x00\n    /* \"#utility.yul\":8050:8258   */\ntag_144:\n    /* \"#utility.yul\":8064:8071   */\n  dup3\n    /* \"#utility.yul\":8061:8062   */\n  dup2\n    /* \"#utility.yul\":8058:8072   */\n  lt\n    /* \"#utility.yul\":8050:8258   */\n  iszero\n  tag_146\n  jumpi\n    /* \"#utility.yul\":8143:8152   */\n  dup5\n    /* \"#utility.yul\":8138:8141   */\n  dup10\n    /* \"#utility.yul\":8134:8153   */\n  add\n    /* \"#utility.yul\":8128:8154   */\n  mload\n    /* \"#utility.yul\":8120:8126   */\n  dup3\n    /* \"#utility.yul\":8113:8155   */\n  sstore\n    /* \"#utility.yul\":8194:8195   */\n  0x01\n    /* \"#utility.yul\":8186:8192   */\n  dup3\n    /* \"#utility.yul\":8182:8196   */\n  add\n    /* \"#utility.yul\":8172:8196   */\n  swap2\n  pop\n    /* \"#utility.yul\":8241:8243   */\n  0x20\n    /* \"#utility.yul\":8230:8239   */\n  dup6\n    /* \"#utility.yul\":8226:8244   */\n  add\n    /* \"#utility.yul\":8213:8244   */\n  swap5\n  pop\n    /* \"#utility.yul\":8087:8091   */\n  0x20\n    /* \"#utility.yul\":8084:8085   */\n  dup2\n    /* \"#utility.yul\":8080:8092   */\n  add\n    /* \"#utility.yul\":8075:8092   */\n  swap1\n  pop\n    /* \"#utility.yul\":8050:8258   */\n  jump(tag_144)\ntag_146:\n    /* \"#utility.yul\":8286:8292   */\n  dup7\n    /* \"#utility.yul\":8277:8284   */\n  dup4\n    /* \"#utility.yul\":8274:8293   */\n  lt\n    /* \"#utility.yul\":8271:8450   */\n  iszero\n  tag_147\n  jumpi\n    /* \"#utility.yul\":8344:8353   */\n  dup5\n    /* \"#utility.yul\":8339:8342   */\n  dup10\n    /* \"#utility.yul\":8335:8354   */\n  add\n    /* \"#utility.yul\":8329:8355   */\n  mload\n    /* \"#utility.yul\":8387:8435   */\n  tag_148\n    /* \"#utility.yul\":8429:8433   */\n  0x1f\n    /* \"#utility.yul\":8421:8427   */\n  dup10\n    /* \"#utility.yul\":8417:8434   */\n  and\n    /* \"#utility.yul\":8406:8415   */\n  dup3\n    /* \"#utility.yul\":8387:8435   */\n  tag_44\n  jump\t// in\ntag_148:\n    /* \"#utility.yul\":8379:8385   */\n  dup4\n    /* \"#utility.yul\":8372:8436   */\n  sstore\n    /* \"#utility.yul\":8294:8450   */\n  pop\n    /* \"#utility.yul\":8271:8450   */\ntag_147:\n    /* \"#utility.yul\":8496:8497   */\n  0x01\n    /* \"#utility.yul\":8492:8493   */\n  0x02\n    /* \"#utility.yul\":8484:8490   */\n  dup9\n    /* \"#utility.yul\":8480:8494   */\n  mul\n    /* \"#utility.yul\":8476:8498   */\n  add\n    /* \"#utility.yul\":8470:8474   */\n  dup9\n    /* \"#utility.yul\":8463:8499   */\n  sstore\n    /* \"#utility.yul\":7898:8509   */\n  pop\n  pop\n  pop\n    /* \"#utility.yul\":7861:8748   */\ntag_139:\n  pop\n    /* \"#utility.yul\":7451:8754   */\n  pop\n  pop\n  pop\n    /* \"#utility.yul\":7359:8754   */\n  pop\n  pop\n  jump\t// out\n    /* \"contracts/instructor.sol\":256:1234  contract Academy{... */\ntag_11:\n  dataSize(sub_0)\n  dup1\n  dataOffset(sub_0)\n  0x00\n  codecopy\n  0x00\n  return\nstop\n\nsub_0: assembly {\n        /* \"contracts/instructor.sol\":256:1234  contract Academy{... */\n      mstore(0x40, 0x80)\n      callvalue\n      dup1\n      iszero\n      tag_1\n      jumpi\n      0x00\n      dup1\n      revert\n    tag_1:\n      pop\n      jumpi(tag_2, lt(calldatasize, 0x04))\n      shr(0xe0, calldataload(0x00))\n      dup1\n      0x23b8ca9f\n      eq\n      tag_3\n      jumpi\n      dup1\n      0x54248841\n      eq\n      tag_4\n      jumpi\n      dup1\n      0xa46878fb\n      eq\n      tag_5\n      jumpi\n    tag_2:\n      0x00\n      dup1\n      revert\n        /* \"contracts/instructor.sol\":531:569  State public academyState = State.Open */\n    tag_3:\n      tag_6\n      tag_7\n      jump\t// in\n    tag_6:\n      mload(0x40)\n      tag_8\n      swap2\n      swap1\n      tag_9\n      jump\t// in\n    tag_8:\n      mload(0x40)\n      dup1\n      swap2\n      sub\n      swap1\n      return\n        /* \"contracts/instructor.sol\":333:368  Instructor public academyInstructor */\n    tag_4:\n      tag_10\n      tag_11\n      jump\t// in\n    tag_10:\n      mload(0x40)\n      tag_12\n      swap4\n      swap3\n      swap2\n      swap1\n      tag_13\n      jump\t// in\n    tag_12:\n      mload(0x40)\n      dup1\n      swap2\n      sub\n      swap1\n      return\n        /* \"contracts/instructor.sol\":863:1231  function changeInstructor(uint _age, string memory _name, address _addr) public{... */\n    tag_5:\n      tag_14\n      0x04\n      dup1\n      calldatasize\n      sub\n      dup2\n      add\n      swap1\n      tag_15\n      swap2\n      swap1\n      tag_16\n      jump\t// in\n    tag_15:\n      tag_17\n      jump\t// in\n    tag_14:\n      stop\n        /* \"contracts/instructor.sol\":531:569  State public academyState = State.Open */\n    tag_7:\n      0x03\n      0x00\n      swap1\n      sload\n      swap1\n      0x0100\n      exp\n      swap1\n      div\n      0xff\n      and\n      dup2\n      jump\t// out\n        /* \"contracts/instructor.sol\":333:368  Instructor public academyInstructor */\n    tag_11:\n      0x00\n      dup1\n      0x00\n      add\n      sload\n      swap1\n      dup1\n      0x01\n      add\n      dup1\n      sload\n      tag_18\n      swap1\n      tag_19\n      jump\t// in\n    tag_18:\n      dup1\n      0x1f\n      add\n      0x20\n      dup1\n      swap2\n      div\n      mul\n      0x20\n      add\n      mload(0x40)\n      swap1\n      dup2\n      add\n      0x40\n      mstore\n      dup1\n      swap3\n      swap2\n      swap1\n      dup2\n      dup2\n      mstore\n      0x20\n      add\n      dup3\n      dup1\n      sload\n      tag_20\n      swap1\n      tag_19\n      jump\t// in\n    tag_20:\n      dup1\n      iszero\n      tag_21\n      jumpi\n      dup1\n      0x1f\n      lt\n      tag_22\n      jumpi\n      0x0100\n      dup1\n      dup4\n      sload\n      div\n      mul\n      dup4\n      mstore\n      swap2\n      0x20\n      add\n      swap2\n      jump(tag_21)\n    tag_22:\n      dup3\n      add\n      swap2\n      swap1\n      0x00\n      mstore\n      keccak256(0x00, 0x20)\n      swap1\n    tag_23:\n      dup2\n      sload\n      dup2\n      mstore\n      swap1\n      0x01\n      add\n      swap1\n      0x20\n      add\n      dup1\n      dup4\n      gt\n      tag_23\n      jumpi\n      dup3\n      swap1\n      sub\n      0x1f\n      and\n      dup3\n      add\n      swap2\n    tag_21:\n      pop\n      pop\n      pop\n      pop\n      pop\n      swap1\n      dup1\n      0x02\n      add\n      0x00\n      swap1\n      sload\n      swap1\n      0x0100\n      exp\n      swap1\n      div\n      0xffffffffffffffffffffffffffffffffffffffff\n      and\n      swap1\n      pop\n      dup4\n      jump\t// out\n        /* \"contracts/instructor.sol\":863:1231  function changeInstructor(uint _age, string memory _name, address _addr) public{... */\n    tag_17:\n        /* \"contracts/instructor.sol\":973:983  State.Open */\n      0x00\n        /* \"contracts/instructor.sol\":957:983  academyState == State.Open */\n      0x02\n      dup2\n      gt\n      iszero\n      tag_25\n      jumpi\n      tag_26\n      tag_27\n      jump\t// in\n    tag_26:\n    tag_25:\n        /* \"contracts/instructor.sol\":957:969  academyState */\n      0x03\n      0x00\n      swap1\n      sload\n      swap1\n      0x0100\n      exp\n      swap1\n      div\n      0xff\n      and\n        /* \"contracts/instructor.sol\":957:983  academyState == State.Open */\n      0x02\n      dup2\n      gt\n      iszero\n      tag_28\n      jumpi\n      tag_29\n      tag_27\n      jump\t// in\n    tag_29:\n    tag_28:\n      sub\n        /* \"contracts/instructor.sol\":953:1224  if (academyState == State.Open){... */\n      tag_30\n      jumpi\n        /* \"contracts/instructor.sol\":999:1029  Instructor memory myInstructor */\n      0x00\n        /* \"contracts/instructor.sol\":1032:1165  Instructor({... */\n      mload(0x40)\n      dup1\n      0x60\n      add\n      0x40\n      mstore\n      dup1\n        /* \"contracts/instructor.sol\":1067:1071  _age */\n      dup6\n        /* \"contracts/instructor.sol\":1032:1165  Instructor({... */\n      dup2\n      mstore\n      0x20\n      add\n        /* \"contracts/instructor.sol\":1096:1101  _name */\n      dup5\n        /* \"contracts/instructor.sol\":1032:1165  Instructor({... */\n      dup2\n      mstore\n      0x20\n      add\n        /* \"contracts/instructor.sol\":1126:1131  _addr */\n      dup4\n        /* \"contracts/instructor.sol\":1032:1165  Instructor({... */\n      0xffffffffffffffffffffffffffffffffffffffff\n      and\n      dup2\n      mstore\n      pop\n        /* \"contracts/instructor.sol\":999:1165  Instructor memory myInstructor = Instructor({... */\n      swap1\n      pop\n        /* \"contracts/instructor.sol\":1200:1212  myInstructor */\n      dup1\n        /* \"contracts/instructor.sol\":1180:1197  academyInstructor */\n      0x00\n        /* \"contracts/instructor.sol\":1180:1212  academyInstructor = myInstructor */\n      dup1\n      dup3\n      add\n      mload\n      dup2\n      0x00\n      add\n      sstore\n      0x20\n      dup3\n      add\n      mload\n      dup2\n      0x01\n      add\n      swap1\n      dup2\n      tag_31\n      swap2\n      swap1\n      tag_32\n      jump\t// in\n    tag_31:\n      pop\n      0x40\n      dup3\n      add\n      mload\n      dup2\n      0x02\n      add\n      exp(0x0100, 0x00)\n      dup2\n      sload\n      dup2\n      0xffffffffffffffffffffffffffffffffffffffff\n      mul\n      not\n      and\n      swap1\n      dup4\n      0xffffffffffffffffffffffffffffffffffffffff\n      and\n      mul\n      or\n      swap1\n      sstore\n      pop\n      swap1\n      pop\n      pop\n        /* \"contracts/instructor.sol\":984:1224  {... */\n      pop\n        /* \"contracts/instructor.sol\":953:1224  if (academyState == State.Open){... */\n    tag_30:\n        /* \"contracts/instructor.sol\":863:1231  function changeInstructor(uint _age, string memory _name, address _addr) public{... */\n      pop\n      pop\n      pop\n      jump\t// out\n        /* \"#utility.yul\":7:187   */\n    tag_27:\n        /* \"#utility.yul\":55:132   */\n      0x4e487b7100000000000000000000000000000000000000000000000000000000\n        /* \"#utility.yul\":52:53   */\n      0x00\n        /* \"#utility.yul\":45:133   */\n      mstore\n        /* \"#utility.yul\":152:156   */\n      0x21\n        /* \"#utility.yul\":149:150   */\n      0x04\n        /* \"#utility.yul\":142:157   */\n      mstore\n        /* \"#utility.yul\":176:180   */\n      0x24\n        /* \"#utility.yul\":173:174   */\n      0x00\n        /* \"#utility.yul\":166:181   */\n      revert\n        /* \"#utility.yul\":193:306   */\n    tag_33:\n        /* \"#utility.yul\":274:275   */\n      0x03\n        /* \"#utility.yul\":267:272   */\n      dup2\n        /* \"#utility.yul\":264:276   */\n      lt\n        /* \"#utility.yul\":254:300   */\n      tag_82\n      jumpi\n        /* \"#utility.yul\":280:298   */\n      tag_83\n      tag_27\n      jump\t// in\n    tag_83:\n        /* \"#utility.yul\":254:300   */\n    tag_82:\n        /* \"#utility.yul\":193:306   */\n      pop\n      jump\t// out\n        /* \"#utility.yul\":312:439   */\n    tag_34:\n        /* \"#utility.yul\":357:364   */\n      0x00\n        /* \"#utility.yul\":386:391   */\n      dup2\n        /* \"#utility.yul\":375:391   */\n      swap1\n      pop\n        /* \"#utility.yul\":392:433   */\n      tag_85\n        /* \"#utility.yul\":427:432   */\n      dup3\n        /* \"#utility.yul\":392:433   */\n      tag_33\n      jump\t// in\n    tag_85:\n        /* \"#utility.yul\":312:439   */\n      swap2\n      swap1\n      pop\n      jump\t// out\n        /* \"#utility.yul\":445:572   */\n    tag_35:\n        /* \"#utility.yul\":501:510   */\n      0x00\n        /* \"#utility.yul\":534:566   */\n      tag_87\n        /* \"#utility.yul\":560:565   */\n      dup3\n        /* \"#utility.yul\":534:566   */\n      tag_34\n      jump\t// in\n    tag_87:\n        /* \"#utility.yul\":521:566   */\n      swap1\n      pop\n        /* \"#utility.yul\":445:572   */\n      swap2\n      swap1\n      pop\n      jump\t// out\n        /* \"#utility.yul\":578:721   */\n    tag_36:\n        /* \"#utility.yul\":671:714   */\n      tag_89\n        /* \"#utility.yul\":708:713   */\n      dup2\n        /* \"#utility.yul\":671:714   */\n      tag_35\n      jump\t// in\n    tag_89:\n        /* \"#utility.yul\":666:669   */\n      dup3\n        /* \"#utility.yul\":659:715   */\n      mstore\n        /* \"#utility.yul\":578:721   */\n      pop\n      pop\n      jump\t// out\n        /* \"#utility.yul\":727:961   */\n    tag_9:\n        /* \"#utility.yul\":826:830   */\n      0x00\n        /* \"#utility.yul\":864:866   */\n      0x20\n        /* \"#utility.yul\":853:862   */\n      dup3\n        /* \"#utility.yul\":849:867   */\n      add\n        /* \"#utility.yul\":841:867   */\n      swap1\n      pop\n        /* \"#utility.yul\":877:954   */\n      tag_91\n        /* \"#utility.yul\":951:952   */\n      0x00\n        /* \"#utility.yul\":940:949   */\n      dup4\n        /* \"#utility.yul\":936:953   */\n      add\n        /* \"#utility.yul\":927:933   */\n      dup5\n        /* \"#utility.yul\":877:954   */\n      tag_36\n      jump\t// in\n    tag_91:\n        /* \"#utility.yul\":727:961   */\n      swap3\n      swap2\n      pop\n      pop\n      jump\t// out\n        /* \"#utility.yul\":967:1044   */\n    tag_37:\n        /* \"#utility.yul\":1004:1011   */\n      0x00\n        /* \"#utility.yul\":1033:1038   */\n      dup2\n        /* \"#utility.yul\":1022:1038   */\n      swap1\n      pop\n        /* \"#utility.yul\":967:1044   */\n      swap2\n      swap1\n      pop\n      jump\t// out\n        /* \"#utility.yul\":1050:1168   */\n    tag_38:\n        /* \"#utility.yul\":1137:1161   */\n      tag_94\n        /* \"#utility.yul\":1155:1160   */\n      dup2\n        /* \"#utility.yul\":1137:1161   */\n      tag_37\n      jump\t// in\n    tag_94:\n        /* \"#utility.yul\":1132:1135   */\n      dup3\n        /* \"#utility.yul\":1125:1162   */\n      mstore\n        /* \"#utility.yul\":1050:1168   */\n      pop\n      pop\n      jump\t// out\n        /* \"#utility.yul\":1174:1273   */\n    tag_39:\n        /* \"#utility.yul\":1226:1232   */\n      0x00\n        /* \"#utility.yul\":1260:1265   */\n      dup2\n        /* \"#utility.yul\":1254:1266   */\n      mload\n        /* \"#utility.yul\":1244:1266   */\n      swap1\n      pop\n        /* \"#utility.yul\":1174:1273   */\n      swap2\n      swap1\n      pop\n      jump\t// out\n        /* \"#utility.yul\":1279:1448   */\n    tag_40:\n        /* \"#utility.yul\":1363:1374   */\n      0x00\n        /* \"#utility.yul\":1397:1403   */\n      dup3\n        /* \"#utility.yul\":1392:1395   */\n      dup3\n        /* \"#utility.yul\":1385:1404   */\n      mstore\n        /* \"#utility.yul\":1437:1441   */\n      0x20\n        /* \"#utility.yul\":1432:1435   */\n      dup3\n        /* \"#utility.yul\":1428:1442   */\n      add\n        /* \"#utility.yul\":1413:1442   */\n      swap1\n      pop\n        /* \"#utility.yul\":1279:1448   */\n      swap3\n      swap2\n      pop\n      pop\n      jump\t// out\n        /* \"#utility.yul\":1454:1593   */\n    tag_41:\n        /* \"#utility.yul\":1543:1549   */\n      dup3\n        /* \"#utility.yul\":1538:1541   */\n      dup2\n        /* \"#utility.yul\":1533:1536   */\n      dup4\n        /* \"#utility.yul\":1527:1550   */\n      mcopy\n        /* \"#utility.yul\":1584:1585   */\n      0x00\n        /* \"#utility.yul\":1575:1581   */\n      dup4\n        /* \"#utility.yul\":1570:1573   */\n      dup4\n        /* \"#utility.yul\":1566:1582   */\n      add\n        /* \"#utility.yul\":1559:1586   */\n      mstore\n        /* \"#utility.yul\":1454:1593   */\n      pop\n      pop\n      pop\n      jump\t// out\n        /* \"#utility.yul\":1599:1701   */\n    tag_42:\n        /* \"#utility.yul\":1640:1646   */\n      0x00\n        /* \"#utility.yul\":1691:1693   */\n      0x1f\n        /* \"#utility.yul\":1687:1694   */\n      not\n        /* \"#utility.yul\":1682:1684   */\n      0x1f\n        /* \"#utility.yul\":1675:1680   */\n      dup4\n        /* \"#utility.yul\":1671:1685   */\n      add\n        /* \"#utility.yul\":1667:1695   */\n      and\n        /* \"#utility.yul\":1657:1695   */\n      swap1\n      pop\n        /* \"#utility.yul\":1599:1701   */\n      swap2\n      swap1\n      pop\n      jump\t// out\n        /* \"#utility.yul\":1707:2084   */\n    tag_43:\n        /* \"#utility.yul\":1795:1798   */\n      0x00\n        /* \"#utility.yul\":1823:1862   */\n      tag_100\n        /* \"#utility.yul\":1856:1861   */\n      dup3\n        /* \"#utility.yul\":1823:1862   */\n      tag_39\n      jump\t// in\n    tag_100:\n        /* \"#utility.yul\":1878:1949   */\n      tag_101\n        /* \"#utility.yul\":1942:1948   */\n      dup2\n        /* \"#utility.yul\":1937:1940   */\n      dup6\n        /* \"#utility.yul\":1878:1949   */\n      tag_40\n      jump\t// in\n    tag_101:\n        /* \"#utility.yul\":1871:1949   */\n      swap4\n      pop\n        /* \"#utility.yul\":1958:2023   */\n      tag_102\n        /* \"#utility.yul\":2016:2022   */\n      dup2\n        /* \"#utility.yul\":2011:2014   */\n      dup6\n        /* \"#utility.yul\":2004:2008   */\n      0x20\n        /* \"#utility.yul\":1997:2002   */\n      dup7\n        /* \"#utility.yul\":1993:2009   */\n      add\n        /* \"#utility.yul\":1958:2023   */\n      tag_41\n      jump\t// in\n    tag_102:\n        /* \"#utility.yul\":2048:2077   */\n      tag_103\n        /* \"#utility.yul\":2070:2076   */\n      dup2\n        /* \"#utility.yul\":2048:2077   */\n      tag_42\n      jump\t// in\n    tag_103:\n        /* \"#utility.yul\":2043:2046   */\n      dup5\n        /* \"#utility.yul\":2039:2078   */\n      add\n        /* \"#utility.yul\":2032:2078   */\n      swap2\n      pop\n        /* \"#utility.yul\":1799:2084   */\n      pop\n        /* \"#utility.yul\":1707:2084   */\n      swap3\n      swap2\n      pop\n      pop\n      jump\t// out\n        /* \"#utility.yul\":2090:2216   */\n    tag_44:\n        /* \"#utility.yul\":2127:2134   */\n      0x00\n        /* \"#utility.yul\":2167:2209   */\n      0xffffffffffffffffffffffffffffffffffffffff\n        /* \"#utility.yul\":2160:2165   */\n      dup3\n        /* \"#utility.yul\":2156:2210   */\n      and\n        /* \"#utility.yul\":2145:2210   */\n      swap1\n      pop\n        /* \"#utility.yul\":2090:2216   */\n      swap2\n      swap1\n      pop\n      jump\t// out\n        /* \"#utility.yul\":2222:2318   */\n    tag_45:\n        /* \"#utility.yul\":2259:2266   */\n      0x00\n        /* \"#utility.yul\":2288:2312   */\n      tag_106\n        /* \"#utility.yul\":2306:2311   */\n      dup3\n        /* \"#utility.yul\":2288:2312   */\n      tag_44\n      jump\t// in\n    tag_106:\n        /* \"#utility.yul\":2277:2312   */\n      swap1\n      pop\n        /* \"#utility.yul\":2222:2318   */\n      swap2\n      swap1\n      pop\n      jump\t// out\n        /* \"#utility.yul\":2324:2442   */\n    tag_46:\n        /* \"#utility.yul\":2411:2435   */\n      tag_108\n        /* \"#utility.yul\":2429:2434   */\n      dup2\n        /* \"#utility.yul\":2411:2435   */\n      tag_45\n      jump\t// in\n    tag_108:\n        /* \"#utility.yul\":2406:2409   */\n      dup3\n        /* \"#utility.yul\":2399:2436   */\n      mstore\n        /* \"#utility.yul\":2324:2442   */\n      pop\n      pop\n      jump\t// out\n        /* \"#utility.yul\":2448:2981   */\n    tag_13:\n        /* \"#utility.yul\":2617:2621   */\n      0x00\n        /* \"#utility.yul\":2655:2657   */\n      0x60\n        /* \"#utility.yul\":2644:2653   */\n      dup3\n        /* \"#utility.yul\":2640:2658   */\n      add\n        /* \"#utility.yul\":2632:2658   */\n      swap1\n      pop\n        /* \"#utility.yul\":2668:2739   */\n      tag_110\n        /* \"#utility.yul\":2736:2737   */\n      0x00\n        /* \"#utility.yul\":2725:2734   */\n      dup4\n        /* \"#utility.yul\":2721:2738   */\n      add\n        /* \"#utility.yul\":2712:2718   */\n      dup7\n        /* \"#utility.yul\":2668:2739   */\n      tag_38\n      jump\t// in\n    tag_110:\n        /* \"#utility.yul\":2786:2795   */\n      dup2\n        /* \"#utility.yul\":2780:2784   */\n      dup2\n        /* \"#utility.yul\":2776:2796   */\n      sub\n        /* \"#utility.yul\":2771:2773   */\n      0x20\n        /* \"#utility.yul\":2760:2769   */\n      dup4\n        /* \"#utility.yul\":2756:2774   */\n      add\n        /* \"#utility.yul\":2749:2797   */\n      mstore\n        /* \"#utility.yul\":2814:2892   */\n      tag_111\n        /* \"#utility.yul\":2887:2891   */\n      dup2\n        /* \"#utility.yul\":2878:2884   */\n      dup6\n        /* \"#utility.yul\":2814:2892   */\n      tag_43\n      jump\t// in\n    tag_111:\n        /* \"#utility.yul\":2806:2892   */\n      swap1\n      pop\n        /* \"#utility.yul\":2902:2974   */\n      tag_112\n        /* \"#utility.yul\":2970:2972   */\n      0x40\n        /* \"#utility.yul\":2959:2968   */\n      dup4\n        /* \"#utility.yul\":2955:2973   */\n      add\n        /* \"#utility.yul\":2946:2952   */\n      dup5\n        /* \"#utility.yul\":2902:2974   */\n      tag_46\n      jump\t// in\n    tag_112:\n        /* \"#utility.yul\":2448:2981   */\n      swap5\n      swap4\n      pop\n      pop\n      pop\n      pop\n      jump\t// out\n        /* \"#utility.yul\":2987:3062   */\n    tag_47:\n        /* \"#utility.yul\":3020:3026   */\n      0x00\n        /* \"#utility.yul\":3053:3055   */\n      0x40\n        /* \"#utility.yul\":3047:3056   */\n      mload\n        /* \"#utility.yul\":3037:3056   */\n      swap1\n      pop\n        /* \"#utility.yul\":2987:3062   */\n      swap1\n      jump\t// out\n        /* \"#utility.yul\":3068:3185   */\n    tag_48:\n        /* \"#utility.yul\":3177:3178   */\n      0x00\n        /* \"#utility.yul\":3174:3175   */\n      dup1\n        /* \"#utility.yul\":3167:3179   */\n      revert\n        /* \"#utility.yul\":3191:3308   */\n    tag_49:\n        /* \"#utility.yul\":3300:3301   */\n      0x00\n        /* \"#utility.yul\":3297:3298   */\n      dup1\n        /* \"#utility.yul\":3290:3302   */\n      revert\n        /* \"#utility.yul\":3314:3436   */\n    tag_50:\n        /* \"#utility.yul\":3387:3411   */\n      tag_117\n        /* \"#utility.yul\":3405:3410   */\n      dup2\n        /* \"#utility.yul\":3387:3411   */\n      tag_37\n      jump\t// in\n    tag_117:\n        /* \"#utility.yul\":3380:3385   */\n      dup2\n        /* \"#utility.yul\":3377:3412   */\n      eq\n        /* \"#utility.yul\":3367:3430   */\n      tag_118\n      jumpi\n        /* \"#utility.yul\":3426:3427   */\n      0x00\n        /* \"#utility.yul\":3423:3424   */\n      dup1\n        /* \"#utility.yul\":3416:3428   */\n      revert\n        /* \"#utility.yul\":3367:3430   */\n    tag_118:\n        /* \"#utility.yul\":3314:3436   */\n      pop\n      jump\t// out\n        /* \"#utility.yul\":3442:3581   */\n    tag_51:\n        /* \"#utility.yul\":3488:3493   */\n      0x00\n        /* \"#utility.yul\":3526:3532   */\n      dup2\n        /* \"#utility.yul\":3513:3533   */\n      calldataload\n        /* \"#utility.yul\":3504:3533   */\n      swap1\n      pop\n        /* \"#utility.yul\":3542:3575   */\n      tag_120\n        /* \"#utility.yul\":3569:3574   */\n      dup2\n        /* \"#utility.yul\":3542:3575   */\n      tag_50\n      jump\t// in\n    tag_120:\n        /* \"#utility.yul\":3442:3581   */\n      swap3\n      swap2\n      pop\n      pop\n      jump\t// out\n        /* \"#utility.yul\":3587:3704   */\n    tag_52:\n        /* \"#utility.yul\":3696:3697   */\n      0x00\n        /* \"#utility.yul\":3693:3694   */\n      dup1\n        /* \"#utility.yul\":3686:3698   */\n      revert\n        /* \"#utility.yul\":3710:3827   */\n    tag_53:\n        /* \"#utility.yul\":3819:3820   */\n      0x00\n        /* \"#utility.yul\":3816:3817   */\n      dup1\n        /* \"#utility.yul\":3809:3821   */\n      revert\n        /* \"#utility.yul\":3833:4013   */\n    tag_54:\n        /* \"#utility.yul\":3881:3958   */\n      0x4e487b7100000000000000000000000000000000000000000000000000000000\n        /* \"#utility.yul\":3878:3879   */\n      0x00\n        /* \"#utility.yul\":3871:3959   */\n      mstore\n        /* \"#utility.yul\":3978:3982   */\n      0x41\n        /* \"#utility.yul\":3975:3976   */\n      0x04\n        /* \"#utility.yul\":3968:3983   */\n      mstore\n        /* \"#utility.yul\":4002:4006   */\n      0x24\n        /* \"#utility.yul\":3999:4000   */\n      0x00\n        /* \"#utility.yul\":3992:4007   */\n      revert\n        /* \"#utility.yul\":4019:4300   */\n    tag_55:\n        /* \"#utility.yul\":4102:4129   */\n      tag_125\n        /* \"#utility.yul\":4124:4128   */\n      dup3\n        /* \"#utility.yul\":4102:4129   */\n      tag_42\n      jump\t// in\n    tag_125:\n        /* \"#utility.yul\":4094:4100   */\n      dup2\n        /* \"#utility.yul\":4090:4130   */\n      add\n        /* \"#utility.yul\":4232:4238   */\n      dup2\n        /* \"#utility.yul\":4220:4230   */\n      dup2\n        /* \"#utility.yul\":4217:4239   */\n      lt\n        /* \"#utility.yul\":4196:4214   */\n      0xffffffffffffffff\n        /* \"#utility.yul\":4184:4194   */\n      dup3\n        /* \"#utility.yul\":4181:4215   */\n      gt\n        /* \"#utility.yul\":4178:4240   */\n      or\n        /* \"#utility.yul\":4175:4263   */\n      iszero\n      tag_126\n      jumpi\n        /* \"#utility.yul\":4243:4261   */\n      tag_127\n      tag_54\n      jump\t// in\n    tag_127:\n        /* \"#utility.yul\":4175:4263   */\n    tag_126:\n        /* \"#utility.yul\":4283:4293   */\n      dup1\n        /* \"#utility.yul\":4279:4281   */\n      0x40\n        /* \"#utility.yul\":4272:4294   */\n      mstore\n        /* \"#utility.yul\":4062:4300   */\n      pop\n        /* \"#utility.yul\":4019:4300   */\n      pop\n      pop\n      jump\t// out\n        /* \"#utility.yul\":4306:4435   */\n    tag_56:\n        /* \"#utility.yul\":4340:4346   */\n      0x00\n        /* \"#utility.yul\":4367:4387   */\n      tag_129\n      tag_47\n      jump\t// in\n    tag_129:\n        /* \"#utility.yul\":4357:4387   */\n      swap1\n      pop\n        /* \"#utility.yul\":4396:4429   */\n      tag_130\n        /* \"#utility.yul\":4424:4428   */\n      dup3\n        /* \"#utility.yul\":4416:4422   */\n      dup3\n        /* \"#utility.yul\":4396:4429   */\n      tag_55\n      jump\t// in\n    tag_130:\n        /* \"#utility.yul\":4306:4435   */\n      swap2\n      swap1\n      pop\n      jump\t// out\n        /* \"#utility.yul\":4441:4749   */\n    tag_57:\n        /* \"#utility.yul\":4503:4507   */\n      0x00\n        /* \"#utility.yul\":4593:4611   */\n      0xffffffffffffffff\n        /* \"#utility.yul\":4585:4591   */\n      dup3\n        /* \"#utility.yul\":4582:4612   */\n      gt\n        /* \"#utility.yul\":4579:4635   */\n      iszero\n      tag_132\n      jumpi\n        /* \"#utility.yul\":4615:4633   */\n      tag_133\n      tag_54\n      jump\t// in\n    tag_133:\n        /* \"#utility.yul\":4579:4635   */\n    tag_132:\n        /* \"#utility.yul\":4653:4682   */\n      tag_134\n        /* \"#utility.yul\":4675:4681   */\n      dup3\n        /* \"#utility.yul\":4653:4682   */\n      tag_42\n      jump\t// in\n    tag_134:\n        /* \"#utility.yul\":4645:4682   */\n      swap1\n      pop\n        /* \"#utility.yul\":4737:4741   */\n      0x20\n        /* \"#utility.yul\":4731:4735   */\n      dup2\n        /* \"#utility.yul\":4727:4742   */\n      add\n        /* \"#utility.yul\":4719:4742   */\n      swap1\n      pop\n        /* \"#utility.yul\":4441:4749   */\n      swap2\n      swap1\n      pop\n      jump\t// out\n        /* \"#utility.yul\":4755:4903   */\n    tag_58:\n        /* \"#utility.yul\":4853:4859   */\n      dup3\n        /* \"#utility.yul\":4848:4851   */\n      dup2\n        /* \"#utility.yul\":4843:4846   */\n      dup4\n        /* \"#utility.yul\":4830:4860   */\n      calldatacopy\n        /* \"#utility.yul\":4894:4895   */\n      0x00\n        /* \"#utility.yul\":4885:4891   */\n      dup4\n        /* \"#utility.yul\":4880:4883   */\n      dup4\n        /* \"#utility.yul\":4876:4892   */\n      add\n        /* \"#utility.yul\":4869:4896   */\n      mstore\n        /* \"#utility.yul\":4755:4903   */\n      pop\n      pop\n      pop\n      jump\t// out\n        /* \"#utility.yul\":4909:5334   */\n    tag_59:\n        /* \"#utility.yul\":4987:4992   */\n      0x00\n        /* \"#utility.yul\":5012:5078   */\n      tag_137\n        /* \"#utility.yul\":5028:5077   */\n      tag_138\n        /* \"#utility.yul\":5070:5076   */\n      dup5\n        /* \"#utility.yul\":5028:5077   */\n      tag_57\n      jump\t// in\n    tag_138:\n        /* \"#utility.yul\":5012:5078   */\n      tag_56\n      jump\t// in\n    tag_137:\n        /* \"#utility.yul\":5003:5078   */\n      swap1\n      pop\n        /* \"#utility.yul\":5101:5107   */\n      dup3\n        /* \"#utility.yul\":5094:5099   */\n      dup2\n        /* \"#utility.yul\":5087:5108   */\n      mstore\n        /* \"#utility.yul\":5139:5143   */\n      0x20\n        /* \"#utility.yul\":5132:5137   */\n      dup2\n        /* \"#utility.yul\":5128:5144   */\n      add\n        /* \"#utility.yul\":5177:5180   */\n      dup5\n        /* \"#utility.yul\":5168:5174   */\n      dup5\n        /* \"#utility.yul\":5163:5166   */\n      dup5\n        /* \"#utility.yul\":5159:5175   */\n      add\n        /* \"#utility.yul\":5156:5181   */\n      gt\n        /* \"#utility.yul\":5153:5265   */\n      iszero\n      tag_139\n      jumpi\n        /* \"#utility.yul\":5184:5263   */\n      tag_140\n      tag_53\n      jump\t// in\n    tag_140:\n        /* \"#utility.yul\":5153:5265   */\n    tag_139:\n        /* \"#utility.yul\":5274:5328   */\n      tag_141\n        /* \"#utility.yul\":5321:5327   */\n      dup5\n        /* \"#utility.yul\":5316:5319   */\n      dup3\n        /* \"#utility.yul\":5311:5314   */\n      dup6\n        /* \"#utility.yul\":5274:5328   */\n      tag_58\n      jump\t// in\n    tag_141:\n        /* \"#utility.yul\":4993:5334   */\n      pop\n        /* \"#utility.yul\":4909:5334   */\n      swap4\n      swap3\n      pop\n      pop\n      pop\n      jump\t// out\n        /* \"#utility.yul\":5354:5694   */\n    tag_60:\n        /* \"#utility.yul\":5410:5415   */\n      0x00\n        /* \"#utility.yul\":5459:5462   */\n      dup3\n        /* \"#utility.yul\":5452:5456   */\n      0x1f\n        /* \"#utility.yul\":5444:5450   */\n      dup4\n        /* \"#utility.yul\":5440:5457   */\n      add\n        /* \"#utility.yul\":5436:5463   */\n      slt\n        /* \"#utility.yul\":5426:5548   */\n      tag_143\n      jumpi\n        /* \"#utility.yul\":5467:5546   */\n      tag_144\n      tag_52\n      jump\t// in\n    tag_144:\n        /* \"#utility.yul\":5426:5548   */\n    tag_143:\n        /* \"#utility.yul\":5584:5590   */\n      dup2\n        /* \"#utility.yul\":5571:5591   */\n      calldataload\n        /* \"#utility.yul\":5609:5688   */\n      tag_145\n        /* \"#utility.yul\":5684:5687   */\n      dup5\n        /* \"#utility.yul\":5676:5682   */\n      dup3\n        /* \"#utility.yul\":5669:5673   */\n      0x20\n        /* \"#utility.yul\":5661:5667   */\n      dup7\n        /* \"#utility.yul\":5657:5674   */\n      add\n        /* \"#utility.yul\":5609:5688   */\n      tag_59\n      jump\t// in\n    tag_145:\n        /* \"#utility.yul\":5600:5688   */\n      swap2\n      pop\n        /* \"#utility.yul\":5416:5694   */\n      pop\n        /* \"#utility.yul\":5354:5694   */\n      swap3\n      swap2\n      pop\n      pop\n      jump\t// out\n        /* \"#utility.yul\":5700:5822   */\n    tag_61:\n        /* \"#utility.yul\":5773:5797   */\n      tag_147\n        /* \"#utility.yul\":5791:5796   */\n      dup2\n        /* \"#utility.yul\":5773:5797   */\n      tag_45\n      jump\t// in\n    tag_147:\n        /* \"#utility.yul\":5766:5771   */\n      dup2\n        /* \"#utility.yul\":5763:5798   */\n      eq\n        /* \"#utility.yul\":5753:5816   */\n      tag_148\n      jumpi\n        /* \"#utility.yul\":5812:5813   */\n      0x00\n        /* \"#utility.yul\":5809:5810   */\n      dup1\n        /* \"#utility.yul\":5802:5814   */\n      revert\n        /* \"#utility.yul\":5753:5816   */\n    tag_148:\n        /* \"#utility.yul\":5700:5822   */\n      pop\n      jump\t// out\n        /* \"#utility.yul\":5828:5967   */\n    tag_62:\n        /* \"#utility.yul\":5874:5879   */\n      0x00\n        /* \"#utility.yul\":5912:5918   */\n      dup2\n        /* \"#utility.yul\":5899:5919   */\n      calldataload\n        /* \"#utility.yul\":5890:5919   */\n      swap1\n      pop\n        /* \"#utility.yul\":5928:5961   */\n      tag_150\n        /* \"#utility.yul\":5955:5960   */\n      dup2\n        /* \"#utility.yul\":5928:5961   */\n      tag_61\n      jump\t// in\n    tag_150:\n        /* \"#utility.yul\":5828:5967   */\n      swap3\n      swap2\n      pop\n      pop\n      jump\t// out\n        /* \"#utility.yul\":5973:6772   */\n    tag_16:\n        /* \"#utility.yul\":6060:6066   */\n      0x00\n        /* \"#utility.yul\":6068:6074   */\n      dup1\n        /* \"#utility.yul\":6076:6082   */\n      0x00\n        /* \"#utility.yul\":6125:6127   */\n      0x60\n        /* \"#utility.yul\":6113:6122   */\n      dup5\n        /* \"#utility.yul\":6104:6111   */\n      dup7\n        /* \"#utility.yul\":6100:6123   */\n      sub\n        /* \"#utility.yul\":6096:6128   */\n      slt\n        /* \"#utility.yul\":6093:6212   */\n      iszero\n      tag_152\n      jumpi\n        /* \"#utility.yul\":6131:6210   */\n      tag_153\n      tag_48\n      jump\t// in\n    tag_153:\n        /* \"#utility.yul\":6093:6212   */\n    tag_152:\n        /* \"#utility.yul\":6251:6252   */\n      0x00\n        /* \"#utility.yul\":6276:6329   */\n      tag_154\n        /* \"#utility.yul\":6321:6328   */\n      dup7\n        /* \"#utility.yul\":6312:6318   */\n      dup3\n        /* \"#utility.yul\":6301:6310   */\n      dup8\n        /* \"#utility.yul\":6297:6319   */\n      add\n        /* \"#utility.yul\":6276:6329   */\n      tag_51\n      jump\t// in\n    tag_154:\n        /* \"#utility.yul\":6266:6329   */\n      swap4\n      pop\n        /* \"#utility.yul\":6222:6339   */\n      pop\n        /* \"#utility.yul\":6406:6408   */\n      0x20\n        /* \"#utility.yul\":6395:6404   */\n      dup5\n        /* \"#utility.yul\":6391:6409   */\n      add\n        /* \"#utility.yul\":6378:6410   */\n      calldataload\n        /* \"#utility.yul\":6437:6455   */\n      0xffffffffffffffff\n        /* \"#utility.yul\":6429:6435   */\n      dup2\n        /* \"#utility.yul\":6426:6456   */\n      gt\n        /* \"#utility.yul\":6423:6540   */\n      iszero\n      tag_155\n      jumpi\n        /* \"#utility.yul\":6459:6538   */\n      tag_156\n      tag_49\n      jump\t// in\n    tag_156:\n        /* \"#utility.yul\":6423:6540   */\n    tag_155:\n        /* \"#utility.yul\":6564:6627   */\n      tag_157\n        /* \"#utility.yul\":6619:6626   */\n      dup7\n        /* \"#utility.yul\":6610:6616   */\n      dup3\n        /* \"#utility.yul\":6599:6608   */\n      dup8\n        /* \"#utility.yul\":6595:6617   */\n      add\n        /* \"#utility.yul\":6564:6627   */\n      tag_60\n      jump\t// in\n    tag_157:\n        /* \"#utility.yul\":6554:6627   */\n      swap3\n      pop\n        /* \"#utility.yul\":6349:6637   */\n      pop\n        /* \"#utility.yul\":6676:6678   */\n      0x40\n        /* \"#utility.yul\":6702:6755   */\n      tag_158\n        /* \"#utility.yul\":6747:6754   */\n      dup7\n        /* \"#utility.yul\":6738:6744   */\n      dup3\n        /* \"#utility.yul\":6727:6736   */\n      dup8\n        /* \"#utility.yul\":6723:6745   */\n      add\n        /* \"#utility.yul\":6702:6755   */\n      tag_62\n      jump\t// in\n    tag_158:\n        /* \"#utility.yul\":6692:6755   */\n      swap2\n      pop\n        /* \"#utility.yul\":6647:6765   */\n      pop\n        /* \"#utility.yul\":5973:6772   */\n      swap3\n      pop\n      swap3\n      pop\n      swap3\n      jump\t// out\n        /* \"#utility.yul\":6778:6958   */\n    tag_63:\n        /* \"#utility.yul\":6826:6903   */\n      0x4e487b7100000000000000000000000000000000000000000000000000000000\n        /* \"#utility.yul\":6823:6824   */\n      0x00\n        /* \"#utility.yul\":6816:6904   */\n      mstore\n        /* \"#utility.yul\":6923:6927   */\n      0x22\n        /* \"#utility.yul\":6920:6921   */\n      0x04\n        /* \"#utility.yul\":6913:6928   */\n      mstore\n        /* \"#utility.yul\":6947:6951   */\n      0x24\n        /* \"#utility.yul\":6944:6945   */\n      0x00\n        /* \"#utility.yul\":6937:6952   */\n      revert\n        /* \"#utility.yul\":6964:7284   */\n    tag_19:\n        /* \"#utility.yul\":7008:7014   */\n      0x00\n        /* \"#utility.yul\":7045:7046   */\n      0x02\n        /* \"#utility.yul\":7039:7043   */\n      dup3\n        /* \"#utility.yul\":7035:7047   */\n      div\n        /* \"#utility.yul\":7025:7047   */\n      swap1\n      pop\n        /* \"#utility.yul\":7092:7093   */\n      0x01\n        /* \"#utility.yul\":7086:7090   */\n      dup3\n        /* \"#utility.yul\":7082:7094   */\n      and\n        /* \"#utility.yul\":7113:7131   */\n      dup1\n        /* \"#utility.yul\":7103:7184   */\n      tag_161\n      jumpi\n        /* \"#utility.yul\":7169:7173   */\n      0x7f\n        /* \"#utility.yul\":7161:7167   */\n      dup3\n        /* \"#utility.yul\":7157:7174   */\n      and\n        /* \"#utility.yul\":7147:7174   */\n      swap2\n      pop\n        /* \"#utility.yul\":7103:7184   */\n    tag_161:\n        /* \"#utility.yul\":7231:7233   */\n      0x20\n        /* \"#utility.yul\":7223:7229   */\n      dup3\n        /* \"#utility.yul\":7220:7234   */\n      lt\n        /* \"#utility.yul\":7200:7218   */\n      dup2\n        /* \"#utility.yul\":7197:7235   */\n      sub\n        /* \"#utility.yul\":7194:7278   */\n      tag_162\n      jumpi\n        /* \"#utility.yul\":7250:7268   */\n      tag_163\n      tag_63\n      jump\t// in\n    tag_163:\n        /* \"#utility.yul\":7194:7278   */\n    tag_162:\n        /* \"#utility.yul\":7015:7284   */\n      pop\n        /* \"#utility.yul\":6964:7284   */\n      swap2\n      swap1\n      pop\n      jump\t// out\n        /* \"#utility.yul\":7290:7431   */\n    tag_64:\n        /* \"#utility.yul\":7339:7343   */\n      0x00\n        /* \"#utility.yul\":7362:7365   */\n      dup2\n        /* \"#utility.yul\":7354:7365   */\n      swap1\n      pop\n        /* \"#utility.yul\":7385:7388   */\n      dup2\n        /* \"#utility.yul\":7382:7383   */\n      0x00\n        /* \"#utility.yul\":7375:7389   */\n      mstore\n        /* \"#utility.yul\":7419:7423   */\n      0x20\n        /* \"#utility.yul\":7416:7417   */\n      0x00\n        /* \"#utility.yul\":7406:7424   */\n      keccak256\n        /* \"#utility.yul\":7398:7424   */\n      swap1\n      pop\n        /* \"#utility.yul\":7290:7431   */\n      swap2\n      swap1\n      pop\n      jump\t// out\n        /* \"#utility.yul\":7437:7530   */\n    tag_65:\n        /* \"#utility.yul\":7474:7480   */\n      0x00\n        /* \"#utility.yul\":7521:7523   */\n      0x20\n        /* \"#utility.yul\":7516:7518   */\n      0x1f\n        /* \"#utility.yul\":7509:7514   */\n      dup4\n        /* \"#utility.yul\":7505:7519   */\n      add\n        /* \"#utility.yul\":7501:7524   */\n      div\n        /* \"#utility.yul\":7491:7524   */\n      swap1\n      pop\n        /* \"#utility.yul\":7437:7530   */\n      swap2\n      swap1\n      pop\n      jump\t// out\n        /* \"#utility.yul\":7536:7643   */\n    tag_66:\n        /* \"#utility.yul\":7580:7588   */\n      0x00\n        /* \"#utility.yul\":7630:7635   */\n      dup3\n        /* \"#utility.yul\":7624:7628   */\n      dup3\n        /* \"#utility.yul\":7620:7636   */\n      shl\n        /* \"#utility.yul\":7599:7636   */\n      swap1\n      pop\n        /* \"#utility.yul\":7536:7643   */\n      swap3\n      swap2\n      pop\n      pop\n      jump\t// out\n        /* \"#utility.yul\":7649:8042   */\n    tag_67:\n        /* \"#utility.yul\":7718:7724   */\n      0x00\n        /* \"#utility.yul\":7768:7769   */\n      0x08\n        /* \"#utility.yul\":7756:7766   */\n      dup4\n        /* \"#utility.yul\":7752:7770   */\n      mul\n        /* \"#utility.yul\":7791:7888   */\n      tag_168\n        /* \"#utility.yul\":7821:7887   */\n      0xffffffffffffffffffffffffffffffffffffffffffffffffffffffffffffffff\n        /* \"#utility.yul\":7810:7819   */\n      dup3\n        /* \"#utility.yul\":7791:7888   */\n      tag_66\n      jump\t// in\n    tag_168:\n        /* \"#utility.yul\":7909:7948   */\n      tag_169\n        /* \"#utility.yul\":7939:7947   */\n      dup7\n        /* \"#utility.yul\":7928:7937   */\n      dup4\n        /* \"#utility.yul\":7909:7948   */\n      tag_66\n      jump\t// in\n    tag_169:\n        /* \"#utility.yul\":7897:7948   */\n      swap6\n      pop\n        /* \"#utility.yul\":7981:7985   */\n      dup1\n        /* \"#utility.yul\":7977:7986   */\n      not\n        /* \"#utility.yul\":7970:7975   */\n      dup5\n        /* \"#utility.yul\":7966:7987   */\n      and\n        /* \"#utility.yul\":7957:7987   */\n      swap4\n      pop\n        /* \"#utility.yul\":8030:8034   */\n      dup1\n        /* \"#utility.yul\":8020:8028   */\n      dup7\n        /* \"#utility.yul\":8016:8035   */\n      and\n        /* \"#utility.yul\":8009:8014   */\n      dup5\n        /* \"#utility.yul\":8006:8036   */\n      or\n        /* \"#utility.yul\":7996:8036   */\n      swap3\n      pop\n        /* \"#utility.yul\":7725:8042   */\n      pop\n      pop\n        /* \"#utility.yul\":7649:8042   */\n      swap4\n      swap3\n      pop\n      pop\n      pop\n      jump\t// out\n        /* \"#utility.yul\":8048:8108   */\n    tag_68:\n        /* \"#utility.yul\":8076:8079   */\n      0x00\n        /* \"#utility.yul\":8097:8102   */\n      dup2\n        /* \"#utility.yul\":8090:8102   */\n      swap1\n      pop\n        /* \"#utility.yul\":8048:8108   */\n      swap2\n      swap1\n      pop\n      jump\t// out\n        /* \"#utility.yul\":8114:8256   */\n    tag_69:\n        /* \"#utility.yul\":8164:8173   */\n      0x00\n        /* \"#utility.yul\":8197:8250   */\n      tag_172\n        /* \"#utility.yul\":8215:8249   */\n      tag_173\n        /* \"#utility.yul\":8224:8248   */\n      tag_174\n        /* \"#utility.yul\":8242:8247   */\n      dup5\n        /* \"#utility.yul\":8224:8248   */\n      tag_37\n      jump\t// in\n    tag_174:\n        /* \"#utility.yul\":8215:8249   */\n      tag_68\n      jump\t// in\n    tag_173:\n        /* \"#utility.yul\":8197:8250   */\n      tag_37\n      jump\t// in\n    tag_172:\n        /* \"#utility.yul\":8184:8250   */\n      swap1\n      pop\n        /* \"#utility.yul\":8114:8256   */\n      swap2\n      swap1\n      pop\n      jump\t// out\n        /* \"#utility.yul\":8262:8337   */\n    tag_70:\n        /* \"#utility.yul\":8305:8308   */\n      0x00\n        /* \"#utility.yul\":8326:8331   */\n      dup2\n        /* \"#utility.yul\":8319:8331   */\n      swap1\n      pop\n        /* \"#utility.yul\":8262:8337   */\n      swap2\n      swap1\n      pop\n      jump\t// out\n        /* \"#utility.yul\":8343:8612   */\n    tag_71:\n        /* \"#utility.yul\":8453:8492   */\n      tag_177\n        /* \"#utility.yul\":8484:8491   */\n      dup4\n        /* \"#utility.yul\":8453:8492   */\n      tag_69\n      jump\t// in\n    tag_177:\n        /* \"#utility.yul\":8514:8605   */\n      tag_178\n        /* \"#utility.yul\":8563:8604   */\n      tag_179\n        /* \"#utility.yul\":8587:8603   */\n      dup3\n        /* \"#utility.yul\":8563:8604   */\n      tag_70\n      jump\t// in\n    tag_179:\n        /* \"#utility.yul\":8555:8561   */\n      dup5\n        /* \"#utility.yul\":8548:8552   */\n      dup5\n        /* \"#utility.yul\":8542:8553   */\n      sload\n        /* \"#utility.yul\":8514:8605   */\n      tag_67\n      jump\t// in\n    tag_178:\n        /* \"#utility.yul\":8508:8512   */\n      dup3\n        /* \"#utility.yul\":8501:8606   */\n      sstore\n        /* \"#utility.yul\":8419:8612   */\n      pop\n        /* \"#utility.yul\":8343:8612   */\n      pop\n      pop\n      pop\n      jump\t// out\n        /* \"#utility.yul\":8618:8691   */\n    tag_72:\n        /* \"#utility.yul\":8663:8666   */\n      0x00\n        /* \"#utility.yul\":8618:8691   */\n      swap1\n      jump\t// out\n        /* \"#utility.yul\":8697:8886   */\n    tag_73:\n        /* \"#utility.yul\":8774:8806   */\n      tag_182\n      tag_72\n      jump\t// in\n    tag_182:\n        /* \"#utility.yul\":8815:8880   */\n      tag_183\n        /* \"#utility.yul\":8873:8879   */\n      dup2\n        /* \"#utility.yul\":8865:8871   */\n      dup5\n        /* \"#utility.yul\":8859:8863   */\n      dup5\n        /* \"#utility.yul\":8815:8880   */\n      tag_71\n      jump\t// in\n    tag_183:\n        /* \"#utility.yul\":8750:8886   */\n      pop\n        /* \"#utility.yul\":8697:8886   */\n      pop\n      pop\n      jump\t// out\n        /* \"#utility.yul\":8892:9078   */\n    tag_74:\n        /* \"#utility.yul\":8952:9072   */\n    tag_185:\n        /* \"#utility.yul\":8969:8972   */\n      dup2\n        /* \"#utility.yul\":8962:8967   */\n      dup2\n        /* \"#utility.yul\":8959:8973   */\n      lt\n        /* \"#utility.yul\":8952:9072   */\n      iszero\n      tag_187\n      jumpi\n        /* \"#utility.yul\":9023:9062   */\n      tag_188\n        /* \"#utility.yul\":9060:9061   */\n      0x00\n        /* \"#utility.yul\":9053:9058   */\n      dup3\n        /* \"#utility.yul\":9023:9062   */\n      tag_73\n      jump\t// in\n    tag_188:\n        /* \"#utility.yul\":8996:8997   */\n      0x01\n        /* \"#utility.yul\":8989:8994   */\n      dup2\n        /* \"#utility.yul\":8985:8998   */\n      add\n        /* \"#utility.yul\":8976:8998   */\n      swap1\n      pop\n        /* \"#utility.yul\":8952:9072   */\n      jump(tag_185)\n    tag_187:\n        /* \"#utility.yul\":8892:9078   */\n      pop\n      pop\n      jump\t// out\n        /* \"#utility.yul\":9084:9627   */\n    tag_75:\n        /* \"#utility.yul\":9185:9187   */\n      0x1f\n        /* \"#utility.yul\":9180:9183   */\n      dup3\n        /* \"#utility.yul\":9177:9188   */\n      gt\n        /* \"#utility.yul\":9174:9620   */\n      iszero\n      tag_190\n      jumpi\n        /* \"#utility.yul\":9219:9257   */\n      tag_191\n        /* \"#utility.yul\":9251:9256   */\n      dup2\n        /* \"#utility.yul\":9219:9257   */\n      tag_64\n      jump\t// in\n    tag_191:\n        /* \"#utility.yul\":9303:9332   */\n      tag_192\n        /* \"#utility.yul\":9321:9331   */\n      dup5\n        /* \"#utility.yul\":9303:9332   */\n      tag_65\n      jump\t// in\n    tag_192:\n        /* \"#utility.yul\":9293:9301   */\n      dup2\n        /* \"#utility.yul\":9289:9333   */\n      add\n        /* \"#utility.yul\":9486:9488   */\n      0x20\n        /* \"#utility.yul\":9474:9484   */\n      dup6\n        /* \"#utility.yul\":9471:9489   */\n      lt\n        /* \"#utility.yul\":9468:9517   */\n      iszero\n      tag_193\n      jumpi\n        /* \"#utility.yul\":9507:9515   */\n      dup2\n        /* \"#utility.yul\":9492:9515   */\n      swap1\n      pop\n        /* \"#utility.yul\":9468:9517   */\n    tag_193:\n        /* \"#utility.yul\":9530:9610   */\n      tag_194\n        /* \"#utility.yul\":9586:9608   */\n      tag_195\n        /* \"#utility.yul\":9604:9607   */\n      dup6\n        /* \"#utility.yul\":9586:9608   */\n      tag_65\n      jump\t// in\n    tag_195:\n        /* \"#utility.yul\":9576:9584   */\n      dup4\n        /* \"#utility.yul\":9572:9609   */\n      add\n        /* \"#utility.yul\":9559:9570   */\n      dup3\n        /* \"#utility.yul\":9530:9610   */\n      tag_74\n      jump\t// in\n    tag_194:\n        /* \"#utility.yul\":9189:9620   */\n      pop\n      pop\n        /* \"#utility.yul\":9174:9620   */\n    tag_190:\n        /* \"#utility.yul\":9084:9627   */\n      pop\n      pop\n      pop\n      jump\t// out\n        /* \"#utility.yul\":9633:9750   */\n    tag_76:\n        /* \"#utility.yul\":9687:9695   */\n      0x00\n        /* \"#utility.yul\":9737:9742   */\n      dup3\n        /* \"#utility.yul\":9731:9735   */\n      dup3\n        /* \"#utility.yul\":9727:9743   */\n      shr\n        /* \"#utility.yul\":9706:9743   */\n      swap1\n      pop\n        /* \"#utility.yul\":9633:9750   */\n      swap3\n      swap2\n      pop\n      pop\n      jump\t// out\n        /* \"#utility.yul\":9756:9925   */\n    tag_77:\n        /* \"#utility.yul\":9800:9806   */\n      0x00\n        /* \"#utility.yul\":9833:9884   */\n      tag_198\n        /* \"#utility.yul\":9881:9882   */\n      0x00\n        /* \"#utility.yul\":9877:9883   */\n      not\n        /* \"#utility.yul\":9869:9874   */\n      dup5\n        /* \"#utility.yul\":9866:9867   */\n      0x08\n        /* \"#utility.yul\":9862:9875   */\n      mul\n        /* \"#utility.yul\":9833:9884   */\n      tag_76\n      jump\t// in\n    tag_198:\n        /* \"#utility.yul\":9829:9885   */\n      not\n        /* \"#utility.yul\":9914:9918   */\n      dup1\n        /* \"#utility.yul\":9908:9912   */\n      dup4\n        /* \"#utility.yul\":9904:9919   */\n      and\n        /* \"#utility.yul\":9894:9919   */\n      swap2\n      pop\n        /* \"#utility.yul\":9807:9925   */\n      pop\n        /* \"#utility.yul\":9756:9925   */\n      swap3\n      swap2\n      pop\n      pop\n      jump\t// out\n        /* \"#utility.yul\":9930:10225   */\n    tag_78:\n        /* \"#utility.yul\":10006:10010   */\n      0x00\n        /* \"#utility.yul\":10152:10181   */\n      tag_200\n        /* \"#utility.yul\":10177:10180   */\n      dup4\n        /* \"#utility.yul\":10171:10175   */\n      dup4\n        /* \"#utility.yul\":10152:10181   */\n      tag_77\n      jump\t// in\n    tag_200:\n        /* \"#utility.yul\":10144:10181   */\n      swap2\n      pop\n        /* \"#utility.yul\":10214:10217   */\n      dup3\n        /* \"#utility.yul\":10211:10212   */\n      0x02\n        /* \"#utility.yul\":10207:10218   */\n      mul\n        /* \"#utility.yul\":10201:10205   */\n      dup3\n        /* \"#utility.yul\":10198:10219   */\n      or\n        /* \"#utility.yul\":10190:10219   */\n      swap1\n      pop\n        /* \"#utility.yul\":9930:10225   */\n      swap3\n      swap2\n      pop\n      pop\n      jump\t// out\n        /* \"#utility.yul\":10230:11625   */\n    tag_32:\n        /* \"#utility.yul\":10347:10384   */\n      tag_202\n        /* \"#utility.yul\":10380:10383   */\n      dup3\n        /* \"#utility.yul\":10347:10384   */\n      tag_39\n      jump\t// in\n    tag_202:\n        /* \"#utility.yul\":10449:10467   */\n      0xffffffffffffffff\n        /* \"#utility.yul\":10441:10447   */\n      dup2\n        /* \"#utility.yul\":10438:10468   */\n      gt\n        /* \"#utility.yul\":10435:10491   */\n      iszero\n      tag_203\n      jumpi\n        /* \"#utility.yul\":10471:10489   */\n      tag_204\n      tag_54\n      jump\t// in\n    tag_204:\n        /* \"#utility.yul\":10435:10491   */\n    tag_203:\n        /* \"#utility.yul\":10515:10553   */\n      tag_205\n        /* \"#utility.yul\":10547:10551   */\n      dup3\n        /* \"#utility.yul\":10541:10552   */\n      sload\n        /* \"#utility.yul\":10515:10553   */\n      tag_19\n      jump\t// in\n    tag_205:\n        /* \"#utility.yul\":10600:10667   */\n      tag_206\n        /* \"#utility.yul\":10660:10666   */\n      dup3\n        /* \"#utility.yul\":10652:10658   */\n      dup3\n        /* \"#utility.yul\":10646:10650   */\n      dup6\n        /* \"#utility.yul\":10600:10667   */\n      tag_75\n      jump\t// in\n    tag_206:\n        /* \"#utility.yul\":10694:10695   */\n      0x00\n        /* \"#utility.yul\":10718:10722   */\n      0x20\n        /* \"#utility.yul\":10705:10722   */\n      swap1\n      pop\n        /* \"#utility.yul\":10750:10752   */\n      0x1f\n        /* \"#utility.yul\":10742:10748   */\n      dup4\n        /* \"#utility.yul\":10739:10753   */\n      gt\n        /* \"#utility.yul\":10767:10768   */\n      0x01\n        /* \"#utility.yul\":10762:11380   */\n      dup2\n      eq\n      tag_208\n      jumpi\n        /* \"#utility.yul\":11424:11425   */\n      0x00\n        /* \"#utility.yul\":11441:11447   */\n      dup5\n        /* \"#utility.yul\":11438:11515   */\n      iszero\n      tag_209\n      jumpi\n        /* \"#utility.yul\":11490:11499   */\n      dup3\n        /* \"#utility.yul\":11485:11488   */\n      dup8\n        /* \"#utility.yul\":11481:11500   */\n      add\n        /* \"#utility.yul\":11475:11501   */\n      mload\n        /* \"#utility.yul\":11466:11501   */\n      swap1\n      pop\n        /* \"#utility.yul\":11438:11515   */\n    tag_209:\n        /* \"#utility.yul\":11541:11608   */\n      tag_210\n        /* \"#utility.yul\":11601:11607   */\n      dup6\n        /* \"#utility.yul\":11594:11599   */\n      dup3\n        /* \"#utility.yul\":11541:11608   */\n      tag_78\n      jump\t// in\n    tag_210:\n        /* \"#utility.yul\":11535:11539   */\n      dup7\n        /* \"#utility.yul\":11528:11609   */\n      sstore\n        /* \"#utility.yul\":11397:11619   */\n      pop\n        /* \"#utility.yul\":10732:11619   */\n      jump(tag_207)\n        /* \"#utility.yul\":10762:11380   */\n    tag_208:\n        /* \"#utility.yul\":10814:10818   */\n      0x1f\n        /* \"#utility.yul\":10810:10819   */\n      not\n        /* \"#utility.yul\":10802:10808   */\n      dup5\n        /* \"#utility.yul\":10798:10820   */\n      and\n        /* \"#utility.yul\":10848:10885   */\n      tag_211\n        /* \"#utility.yul\":10880:10884   */\n      dup7\n        /* \"#utility.yul\":10848:10885   */\n      tag_64\n      jump\t// in\n    tag_211:\n        /* \"#utility.yul\":10907:10908   */\n      0x00\n        /* \"#utility.yul\":10921:11129   */\n    tag_212:\n        /* \"#utility.yul\":10935:10942   */\n      dup3\n        /* \"#utility.yul\":10932:10933   */\n      dup2\n        /* \"#utility.yul\":10929:10943   */\n      lt\n        /* \"#utility.yul\":10921:11129   */\n      iszero\n      tag_214\n      jumpi\n        /* \"#utility.yul\":11014:11023   */\n      dup5\n        /* \"#utility.yul\":11009:11012   */\n      dup10\n        /* \"#utility.yul\":11005:11024   */\n      add\n        /* \"#utility.yul\":10999:11025   */\n      mload\n        /* \"#utility.yul\":10991:10997   */\n      dup3\n        /* \"#utility.yul\":10984:11026   */\n      sstore\n        /* \"#utility.yul\":11065:11066   */\n      0x01\n        /* \"#utility.yul\":11057:11063   */\n      dup3\n        /* \"#utility.yul\":11053:11067   */\n      add\n        /* \"#utility.yul\":11043:11067   */\n      swap2\n      pop\n        /* \"#utility.yul\":11112:11114   */\n      0x20\n        /* \"#utility.yul\":11101:11110   */\n      dup6\n        /* \"#utility.yul\":11097:11115   */\n      add\n        /* \"#utility.yul\":11084:11115   */\n      swap5\n      pop\n        /* \"#utility.yul\":10958:10962   */\n      0x20\n        /* \"#utility.yul\":10955:10956   */\n      dup2\n        /* \"#utility.yul\":10951:10963   */\n      add\n        /* \"#utility.yul\":10946:10963   */\n      swap1\n      pop\n        /* \"#utility.yul\":10921:11129   */\n      jump(tag_212)\n    tag_214:\n        /* \"#utility.yul\":11157:11163   */\n      dup7\n        /* \"#utility.yul\":11148:11155   */\n      dup4\n        /* \"#utility.yul\":11145:11164   */\n      lt\n        /* \"#utility.yul\":11142:11321   */\n      iszero\n      tag_215\n      jumpi\n        /* \"#utility.yul\":11215:11224   */\n      dup5\n        /* \"#utility.yul\":11210:11213   */\n      dup10\n        /* \"#utility.yul\":11206:11225   */\n      add\n        /* \"#utility.yul\":11200:11226   */\n      mload\n        /* \"#utility.yul\":11258:11306   */\n      tag_216\n        /* \"#utility.yul\":11300:11304   */\n      0x1f\n        /* \"#utility.yul\":11292:11298   */\n      dup10\n        /* \"#utility.yul\":11288:11305   */\n      and\n        /* \"#utility.yul\":11277:11286   */\n      dup3\n        /* \"#utility.yul\":11258:11306   */\n      tag_77\n      jump\t// in\n    tag_216:\n        /* \"#utility.yul\":11250:11256   */\n      dup4\n        /* \"#utility.yul\":11243:11307   */\n      sstore\n        /* \"#utility.yul\":11165:11321   */\n      pop\n        /* \"#utility.yul\":11142:11321   */\n    tag_215:\n        /* \"#utility.yul\":11367:11368   */\n      0x01\n        /* \"#utility.yul\":11363:11364   */\n      0x02\n        /* \"#utility.yul\":11355:11361   */\n      dup9\n        /* \"#utility.yul\":11351:11365   */\n      mul\n        /* \"#utility.yul\":11347:11369   */\n      add\n        /* \"#utility.yul\":11341:11345   */\n      dup9\n        /* \"#utility.yul\":11334:11370   */\n      sstore\n        /* \"#utility.yul\":10769:11380   */\n      pop\n      pop\n      pop\n        /* \"#utility.yul\":10732:11619   */\n    tag_207:\n      pop\n        /* \"#utility.yul\":10322:11625   */\n      pop\n      pop\n      pop\n        /* \"#utility.yul\":10230:11625   */\n      pop\n      pop\n      jump\t// out\n\n    auxdata: 0xa2646970667358221220a94ab580cada8429ab6f377b2e17de387d4a894d82851792a1ddc62b63f2564364736f6c634300081a0033\n}\n",
				"bytecode": {
					"linkReferences": {},
					"object": "60806040525f60035f6101000a81548160ff02191690836002811115610028576100276100bd565b5b0217905550348015610038575f80fd5b50604051610e76380380610e76833981810160405281019061005a919061026a565b815f800181905550805f600101908161007391906104c8565b50335f6002015f6101000a81548173ffffffffffffffffffffffffffffffffffffffff021916908373ffffffffffffffffffffffffffffffffffffffff1602179055505050610597565b7f4e487b71000000000000000000000000000000000000000000000000000000005f52602160045260245ffd5b5f604051905090565b5f80fd5b5f80fd5b5f819050919050565b61010d816100fb565b8114610117575f80fd5b50565b5f8151905061012881610104565b92915050565b5f80fd5b5f80fd5b5f601f19601f8301169050919050565b7f4e487b71000000000000000000000000000000000000000000000000000000005f52604160045260245ffd5b61017c82610136565b810181811067ffffffffffffffff8211171561019b5761019a610146565b5b80604052505050565b5f6101ad6100ea565b90506101b98282610173565b919050565b5f67ffffffffffffffff8211156101d8576101d7610146565b5b6101e182610136565b9050602081019050919050565b8281835e5f83830152505050565b5f61020e610209846101be565b6101a4565b90508281526020810184848401111561022a57610229610132565b5b6102358482856101ee565b509392505050565b5f82601f8301126102515761025061012e565b5b81516102618482602086016101fc565b91505092915050565b5f80604083850312156102805761027f6100f3565b5b5f61028d8582860161011a565b925050602083015167ffffffffffffffff8111156102ae576102ad6100f7565b5b6102ba8582860161023d565b9150509250929050565b5f81519050919050565b7f4e487b71000000000000000000000000000000000000000000000000000000005f52602260045260245ffd5b5f600282049050600182168061031257607f821691505b602082108103610325576103246102ce565b5b50919050565b5f819050815f5260205f209050919050565b5f6020601f8301049050919050565b5f82821b905092915050565b5f600883026103877fffffffffffffffffffffffffffffffffffffffffffffffffffffffffffffffff8261034c565b610391868361034c565b95508019841693508086168417925050509392505050565b5f819050919050565b5f6103cc6103c76103c2846100fb565b6103a9565b6100fb565b9050919050565b5f819050919050565b6103e5836103b2565b6103f96103f1826103d3565b848454610358565b825550505050565b5f90565b61040d610401565b6104188184846103dc565b505050565b5b8181101561043b576104305f82610405565b60018101905061041e565b5050565b601f821115610480576104518161032b565b61045a8461033d565b81016020851015610469578190505b61047d6104758561033d565b83018261041d565b50505b505050565b5f82821c905092915050565b5f6104a05f1984600802610485565b1980831691505092915050565b5f6104b88383610491565b9150826002028217905092915050565b6104d1826102c4565b67ffffffffffffffff8111156104ea576104e9610146565b5b6104f482546102fb565b6104ff82828561043f565b5f60209050601f831160018114610530575f841561051e578287015190505b61052885826104ad565b86555061058f565b601f19841661053e8661032b565b5f5b8281101561056557848901518255600182019150602085019450602081019050610540565b86831015610582578489015161057e601f891682610491565b8355505b6001600288020188555050505b505050505050565b6108d2806105a45f395ff3fe608060405234801561000f575f80fd5b506004361061003f575f3560e01c806323b8ca9f146100435780635424884114610061578063a46878fb14610081575b5f80fd5b61004b61009d565b60405161005891906102ba565b60405180910390f35b6100696100af565b6040516100789392919061039a565b60405180910390f35b61009b60048036038101906100969190610567565b61016a565b005b60035f9054906101000a900460ff1681565b5f805f0154908060010180546100c490610600565b80601f01602080910402602001604051908101604052809291908181526020018280546100f090610600565b801561013b5780601f106101125761010080835404028352916020019161013b565b820191905f5260205f20905b81548152906001019060200180831161011e57829003601f168201915b505050505090806002015f9054906101000a900473ffffffffffffffffffffffffffffffffffffffff16905083565b5f600281111561017d5761017c610247565b5b60035f9054906101000a900460ff16600281111561019e5761019d610247565b5b03610242575f60405180606001604052808581526020018481526020018373ffffffffffffffffffffffffffffffffffffffff168152509050805f80820151815f015560208201518160010190816101f691906107cd565b506040820151816002015f6101000a81548173ffffffffffffffffffffffffffffffffffffffff021916908373ffffffffffffffffffffffffffffffffffffffff160217905550905050505b505050565b7f4e487b71000000000000000000000000000000000000000000000000000000005f52602160045260245ffd5b6003811061028557610284610247565b5b50565b5f81905061029582610274565b919050565b5f6102a482610288565b9050919050565b6102b48161029a565b82525050565b5f6020820190506102cd5f8301846102ab565b92915050565b5f819050919050565b6102e5816102d3565b82525050565b5f81519050919050565b5f82825260208201905092915050565b8281835e5f83830152505050565b5f601f19601f8301169050919050565b5f61032d826102eb565b61033781856102f5565b9350610347818560208601610305565b61035081610313565b840191505092915050565b5f73ffffffffffffffffffffffffffffffffffffffff82169050919050565b5f6103848261035b565b9050919050565b6103948161037a565b82525050565b5f6060820190506103ad5f8301866102dc565b81810360208301526103bf8185610323565b90506103ce604083018461038b565b949350505050565b5f604051905090565b5f80fd5b5f80fd5b6103f0816102d3565b81146103fa575f80fd5b50565b5f8135905061040b816103e7565b92915050565b5f80fd5b5f80fd5b7f4e487b71000000000000000000000000000000000000000000000000000000005f52604160045260245ffd5b61044f82610313565b810181811067ffffffffffffffff8211171561046e5761046d610419565b5b80604052505050565b5f6104806103d6565b905061048c8282610446565b919050565b5f67ffffffffffffffff8211156104ab576104aa610419565b5b6104b482610313565b9050602081019050919050565b828183375f83830152505050565b5f6104e16104dc84610491565b610477565b9050828152602081018484840111156104fd576104fc610415565b5b6105088482856104c1565b509392505050565b5f82601f83011261052457610523610411565b5b81356105348482602086016104cf565b91505092915050565b6105468161037a565b8114610550575f80fd5b50565b5f813590506105618161053d565b92915050565b5f805f6060848603121561057e5761057d6103df565b5b5f61058b868287016103fd565b935050602084013567ffffffffffffffff8111156105ac576105ab6103e3565b5b6105b886828701610510565b92505060406105c986828701610553565b9150509250925092565b7f4e487b71000000000000000000000000000000000000000000000000000000005f52602260045260245ffd5b5f600282049050600182168061061757607f821691505b60208210810361062a576106296105d3565b5b50919050565b5f819050815f5260205f209050919050565b5f6020601f8301049050919050565b5f82821b905092915050565b5f6008830261068c7fffffffffffffffffffffffffffffffffffffffffffffffffffffffffffffffff82610651565b6106968683610651565b95508019841693508086168417925050509392505050565b5f819050919050565b5f6106d16106cc6106c7846102d3565b6106ae565b6102d3565b9050919050565b5f819050919050565b6106ea836106b7565b6106fe6106f6826106d8565b84845461065d565b825550505050565b5f90565b610712610706565b61071d8184846106e1565b505050565b5b81811015610740576107355f8261070a565b600181019050610723565b5050565b601f8211156107855761075681610630565b61075f84610642565b8101602085101561076e578190505b61078261077a85610642565b830182610722565b50505b505050565b5f82821c905092915050565b5f6107a55f198460080261078a565b1980831691505092915050565b5f6107bd8383610796565b9150826002028217905092915050565b6107d6826102eb565b67ffffffffffffffff8111156107ef576107ee610419565b5b6107f98254610600565b610804828285610744565b5f60209050601f831160018114610835575f8415610823578287015190505b61082d85826107b2565b865550610894565b601f19841661084386610630565b5f5b8281101561086a57848901518255600182019150602085019450602081019050610845565b868310156108875784890151610883601f891682610796565b8355505b6001600288020188555050505b50505050505056fea2646970667358221220a94ab580cada8429ab6f377b2e17de387d4a894d82851792a1ddc62b63f2564364736f6c634300081a0033",
					"opcodes": "PUSH1 0x80 PUSH1 0x40 MSTORE PUSH0 PUSH1 0x3 PUSH0 PUSH2 0x100 EXP DUP2 SLOAD DUP2 PUSH1 0xFF MUL NOT AND SWAP1 DUP4 PUSH1 0x2 DUP2 GT ISZERO PUSH2 0x28 JUMPI PUSH2 0x27 PUSH2 0xBD JUMP JUMPDEST JUMPDEST MUL OR SWAP1 SSTORE POP CALLVALUE DUP1 ISZERO PUSH2 0x38 JUMPI PUSH0 DUP1 REVERT JUMPDEST POP PUSH1 0x40 MLOAD PUSH2 0xE76 CODESIZE SUB DUP1 PUSH2 0xE76 DUP4 CODECOPY DUP2 DUP2 ADD PUSH1 0x40 MSTORE DUP2 ADD SWAP1 PUSH2 0x5A SWAP2 SWAP1 PUSH2 0x26A JUMP JUMPDEST DUP2 PUSH0 DUP1 ADD DUP2 SWAP1 SSTORE POP DUP1 PUSH0 PUSH1 0x1 ADD SWAP1 DUP2 PUSH2 0x73 SWAP2 SWAP1 PUSH2 0x4C8 JUMP JUMPDEST POP CALLER PUSH0 PUSH1 0x2 ADD PUSH0 PUSH2 0x100 EXP DUP2 SLOAD DUP2 PUSH20 0xFFFFFFFFFFFFFFFFFFFFFFFFFFFFFFFFFFFFFFFF MUL NOT AND SWAP1 DUP4 PUSH20 0xFFFFFFFFFFFFFFFFFFFFFFFFFFFFFFFFFFFFFFFF AND MUL OR SWAP1 SSTORE POP POP POP PUSH2 0x597 JUMP JUMPDEST PUSH32 0x4E487B7100000000000000000000000000000000000000000000000000000000 PUSH0 MSTORE PUSH1 0x21 PUSH1 0x4 MSTORE PUSH1 0x24 PUSH0 REVERT JUMPDEST PUSH0 PUSH1 0x40 MLOAD SWAP1 POP SWAP1 JUMP JUMPDEST PUSH0 DUP1 REVERT JUMPDEST PUSH0 DUP1 REVERT JUMPDEST PUSH0 DUP2 SWAP1 POP SWAP2 SWAP1 POP JUMP JUMPDEST PUSH2 0x10D DUP2 PUSH2 0xFB JUMP JUMPDEST DUP2 EQ PUSH2 0x117 JUMPI PUSH0 DUP1 REVERT JUMPDEST POP JUMP JUMPDEST PUSH0 DUP2 MLOAD SWAP1 POP PUSH2 0x128 DUP2 PUSH2 0x104 JUMP JUMPDEST SWAP3 SWAP2 POP POP JUMP JUMPDEST PUSH0 DUP1 REVERT JUMPDEST PUSH0 DUP1 REVERT JUMPDEST PUSH0 PUSH1 0x1F NOT PUSH1 0x1F DUP4 ADD AND SWAP1 POP SWAP2 SWAP1 POP JUMP JUMPDEST PUSH32 0x4E487B7100000000000000000000000000000000000000000000000000000000 PUSH0 MSTORE PUSH1 0x41 PUSH1 0x4 MSTORE PUSH1 0x24 PUSH0 REVERT JUMPDEST PUSH2 0x17C DUP3 PUSH2 0x136 JUMP JUMPDEST DUP2 ADD DUP2 DUP2 LT PUSH8 0xFFFFFFFFFFFFFFFF DUP3 GT OR ISZERO PUSH2 0x19B JUMPI PUSH2 0x19A PUSH2 0x146 JUMP JUMPDEST JUMPDEST DUP1 PUSH1 0x40 MSTORE POP POP POP JUMP JUMPDEST PUSH0 PUSH2 0x1AD PUSH2 0xEA JUMP JUMPDEST SWAP1 POP PUSH2 0x1B9 DUP3 DUP3 PUSH2 0x173 JUMP JUMPDEST SWAP2 SWAP1 POP JUMP JUMPDEST PUSH0 PUSH8 0xFFFFFFFFFFFFFFFF DUP3 GT ISZERO PUSH2 0x1D8 JUMPI PUSH2 0x1D7 PUSH2 0x146 JUMP JUMPDEST JUMPDEST PUSH2 0x1E1 DUP3 PUSH2 0x136 JUMP JUMPDEST SWAP1 POP PUSH1 0x20 DUP2 ADD SWAP1 POP SWAP2 SWAP1 POP JUMP JUMPDEST DUP3 DUP2 DUP4 MCOPY PUSH0 DUP4 DUP4 ADD MSTORE POP POP POP JUMP JUMPDEST PUSH0 PUSH2 0x20E PUSH2 0x209 DUP5 PUSH2 0x1BE JUMP JUMPDEST PUSH2 0x1A4 JUMP JUMPDEST SWAP1 POP DUP3 DUP2 MSTORE PUSH1 0x20 DUP2 ADD DUP5 DUP5 DUP5 ADD GT ISZERO PUSH2 0x22A JUMPI PUSH2 0x229 PUSH2 0x132 JUMP JUMPDEST JUMPDEST PUSH2 0x235 DUP5 DUP3 DUP6 PUSH2 0x1EE JUMP JUMPDEST POP SWAP4 SWAP3 POP POP POP JUMP JUMPDEST PUSH0 DUP3 PUSH1 0x1F DUP4 ADD SLT PUSH2 0x251 JUMPI PUSH2 0x250 PUSH2 0x12E JUMP JUMPDEST JUMPDEST DUP2 MLOAD PUSH2 0x261 DUP5 DUP3 PUSH1 0x20 DUP7 ADD PUSH2 0x1FC JUMP JUMPDEST SWAP2 POP POP SWAP3 SWAP2 POP POP JUMP JUMPDEST PUSH0 DUP1 PUSH1 0x40 DUP4 DUP6 SUB SLT ISZERO PUSH2 0x280 JUMPI PUSH2 0x27F PUSH2 0xF3 JUMP JUMPDEST JUMPDEST PUSH0 PUSH2 0x28D DUP6 DUP3 DUP7 ADD PUSH2 0x11A JUMP JUMPDEST SWAP3 POP POP PUSH1 0x20 DUP4 ADD MLOAD PUSH8 0xFFFFFFFFFFFFFFFF DUP2 GT ISZERO PUSH2 0x2AE JUMPI PUSH2 0x2AD PUSH2 0xF7 JUMP JUMPDEST JUMPDEST PUSH2 0x2BA DUP6 DUP3 DUP7 ADD PUSH2 0x23D JUMP JUMPDEST SWAP2 POP POP SWAP3 POP SWAP3 SWAP1 POP JUMP JUMPDEST PUSH0 DUP2 MLOAD SWAP1 POP SWAP2 SWAP1 POP JUMP JUMPDEST PUSH32 0x4E487B7100000000000000000000000000000000000000000000000000000000 PUSH0 MSTORE PUSH1 0x22 PUSH1 0x4 MSTORE PUSH1 0x24 PUSH0 REVERT JUMPDEST PUSH0 PUSH1 0x2 DUP3 DIV SWAP1 POP PUSH1 0x1 DUP3 AND DUP1 PUSH2 0x312 JUMPI PUSH1 0x7F DUP3 AND SWAP2 POP JUMPDEST PUSH1 0x20 DUP3 LT DUP2 SUB PUSH2 0x325 JUMPI PUSH2 0x324 PUSH2 0x2CE JUMP JUMPDEST JUMPDEST POP SWAP2 SWAP1 POP JUMP JUMPDEST PUSH0 DUP2 SWAP1 POP DUP2 PUSH0 MSTORE PUSH1 0x20 PUSH0 KECCAK256 SWAP1 POP SWAP2 SWAP1 POP JUMP JUMPDEST PUSH0 PUSH1 0x20 PUSH1 0x1F DUP4 ADD DIV SWAP1 POP SWAP2 SWAP1 POP JUMP JUMPDEST PUSH0 DUP3 DUP3 SHL SWAP1 POP SWAP3 SWAP2 POP POP JUMP JUMPDEST PUSH0 PUSH1 0x8 DUP4 MUL PUSH2 0x387 PUSH32 0xFFFFFFFFFFFFFFFFFFFFFFFFFFFFFFFFFFFFFFFFFFFFFFFFFFFFFFFFFFFFFFFF DUP3 PUSH2 0x34C JUMP JUMPDEST PUSH2 0x391 DUP7 DUP4 PUSH2 0x34C JUMP JUMPDEST SWAP6 POP DUP1 NOT DUP5 AND SWAP4 POP DUP1 DUP7 AND DUP5 OR SWAP3 POP POP POP SWAP4 SWAP3 POP POP POP JUMP JUMPDEST PUSH0 DUP2 SWAP1 POP SWAP2 SWAP1 POP JUMP JUMPDEST PUSH0 PUSH2 0x3CC PUSH2 0x3C7 PUSH2 0x3C2 DUP5 PUSH2 0xFB JUMP JUMPDEST PUSH2 0x3A9 JUMP JUMPDEST PUSH2 0xFB JUMP JUMPDEST SWAP1 POP SWAP2 SWAP1 POP JUMP JUMPDEST PUSH0 DUP2 SWAP1 POP SWAP2 SWAP1 POP JUMP JUMPDEST PUSH2 0x3E5 DUP4 PUSH2 0x3B2 JUMP JUMPDEST PUSH2 0x3F9 PUSH2 0x3F1 DUP3 PUSH2 0x3D3 JUMP JUMPDEST DUP5 DUP5 SLOAD PUSH2 0x358 JUMP JUMPDEST DUP3 SSTORE POP POP POP POP JUMP JUMPDEST PUSH0 SWAP1 JUMP JUMPDEST PUSH2 0x40D PUSH2 0x401 JUMP JUMPDEST PUSH2 0x418 DUP2 DUP5 DUP5 PUSH2 0x3DC JUMP JUMPDEST POP POP POP JUMP JUMPDEST JUMPDEST DUP2 DUP2 LT ISZERO PUSH2 0x43B JUMPI PUSH2 0x430 PUSH0 DUP3 PUSH2 0x405 JUMP JUMPDEST PUSH1 0x1 DUP2 ADD SWAP1 POP PUSH2 0x41E JUMP JUMPDEST POP POP JUMP JUMPDEST PUSH1 0x1F DUP3 GT ISZERO PUSH2 0x480 JUMPI PUSH2 0x451 DUP2 PUSH2 0x32B JUMP JUMPDEST PUSH2 0x45A DUP5 PUSH2 0x33D JUMP JUMPDEST DUP2 ADD PUSH1 0x20 DUP6 LT ISZERO PUSH2 0x469 JUMPI DUP2 SWAP1 POP JUMPDEST PUSH2 0x47D PUSH2 0x475 DUP6 PUSH2 0x33D JUMP JUMPDEST DUP4 ADD DUP3 PUSH2 0x41D JUMP JUMPDEST POP POP JUMPDEST POP POP POP JUMP JUMPDEST PUSH0 DUP3 DUP3 SHR SWAP1 POP SWAP3 SWAP2 POP POP JUMP JUMPDEST PUSH0 PUSH2 0x4A0 PUSH0 NOT DUP5 PUSH1 0x8 MUL PUSH2 0x485 JUMP JUMPDEST NOT DUP1 DUP4 AND SWAP2 POP POP SWAP3 SWAP2 POP POP JUMP JUMPDEST PUSH0 PUSH2 0x4B8 DUP4 DUP4 PUSH2 0x491 JUMP JUMPDEST SWAP2 POP DUP3 PUSH1 0x2 MUL DUP3 OR SWAP1 POP SWAP3 SWAP2 POP POP JUMP JUMPDEST PUSH2 0x4D1 DUP3 PUSH2 0x2C4 JUMP JUMPDEST PUSH8 0xFFFFFFFFFFFFFFFF DUP2 GT ISZERO PUSH2 0x4EA JUMPI PUSH2 0x4E9 PUSH2 0x146 JUMP JUMPDEST JUMPDEST PUSH2 0x4F4 DUP3 SLOAD PUSH2 0x2FB JUMP JUMPDEST PUSH2 0x4FF DUP3 DUP3 DUP6 PUSH2 0x43F JUMP JUMPDEST PUSH0 PUSH1 0x20 SWAP1 POP PUSH1 0x1F DUP4 GT PUSH1 0x1 DUP2 EQ PUSH2 0x530 JUMPI PUSH0 DUP5 ISZERO PUSH2 0x51E JUMPI DUP3 DUP8 ADD MLOAD SWAP1 POP JUMPDEST PUSH2 0x528 DUP6 DUP3 PUSH2 0x4AD JUMP JUMPDEST DUP7 SSTORE POP PUSH2 0x58F JUMP JUMPDEST PUSH1 0x1F NOT DUP5 AND PUSH2 0x53E DUP7 PUSH2 0x32B JUMP JUMPDEST PUSH0 JUMPDEST DUP3 DUP2 LT ISZERO PUSH2 0x565 JUMPI DUP5 DUP10 ADD MLOAD DUP3 SSTORE PUSH1 0x1 DUP3 ADD SWAP2 POP PUSH1 0x20 DUP6 ADD SWAP5 POP PUSH1 0x20 DUP2 ADD SWAP1 POP PUSH2 0x540 JUMP JUMPDEST DUP7 DUP4 LT ISZERO PUSH2 0x582 JUMPI DUP5 DUP10 ADD MLOAD PUSH2 0x57E PUSH1 0x1F DUP10 AND DUP3 PUSH2 0x491 JUMP JUMPDEST DUP4 SSTORE POP JUMPDEST PUSH1 0x1 PUSH1 0x2 DUP9 MUL ADD DUP9 SSTORE POP POP POP JUMPDEST POP POP POP POP POP POP JUMP JUMPDEST PUSH2 0x8D2 DUP1 PUSH2 0x5A4 PUSH0 CODECOPY PUSH0 RETURN INVALID PUSH1 0x80 PUSH1 0x40 MSTORE CALLVALUE DUP1 ISZERO PUSH2 0xF JUMPI PUSH0 DUP1 REVERT JUMPDEST POP PUSH1 0x4 CALLDATASIZE LT PUSH2 0x3F JUMPI PUSH0 CALLDATALOAD PUSH1 0xE0 SHR DUP1 PUSH4 0x23B8CA9F EQ PUSH2 0x43 JUMPI DUP1 PUSH4 0x54248841 EQ PUSH2 0x61 JUMPI DUP1 PUSH4 0xA46878FB EQ PUSH2 0x81 JUMPI JUMPDEST PUSH0 DUP1 REVERT JUMPDEST PUSH2 0x4B PUSH2 0x9D JUMP JUMPDEST PUSH1 0x40 MLOAD PUSH2 0x58 SWAP2 SWAP1 PUSH2 0x2BA JUMP JUMPDEST PUSH1 0x40 MLOAD DUP1 SWAP2 SUB SWAP1 RETURN JUMPDEST PUSH2 0x69 PUSH2 0xAF JUMP JUMPDEST PUSH1 0x40 MLOAD PUSH2 0x78 SWAP4 SWAP3 SWAP2 SWAP1 PUSH2 0x39A JUMP JUMPDEST PUSH1 0x40 MLOAD DUP1 SWAP2 SUB SWAP1 RETURN JUMPDEST PUSH2 0x9B PUSH1 0x4 DUP1 CALLDATASIZE SUB DUP2 ADD SWAP1 PUSH2 0x96 SWAP2 SWAP1 PUSH2 0x567 JUMP JUMPDEST PUSH2 0x16A JUMP JUMPDEST STOP JUMPDEST PUSH1 0x3 PUSH0 SWAP1 SLOAD SWAP1 PUSH2 0x100 EXP SWAP1 DIV PUSH1 0xFF AND DUP2 JUMP JUMPDEST PUSH0 DUP1 PUSH0 ADD SLOAD SWAP1 DUP1 PUSH1 0x1 ADD DUP1 SLOAD PUSH2 0xC4 SWAP1 PUSH2 0x600 JUMP JUMPDEST DUP1 PUSH1 0x1F ADD PUSH1 0x20 DUP1 SWAP2 DIV MUL PUSH1 0x20 ADD PUSH1 0x40 MLOAD SWAP1 DUP2 ADD PUSH1 0x40 MSTORE DUP1 SWAP3 SWAP2 SWAP1 DUP2 DUP2 MSTORE PUSH1 0x20 ADD DUP3 DUP1 SLOAD PUSH2 0xF0 SWAP1 PUSH2 0x600 JUMP JUMPDEST DUP1 ISZERO PUSH2 0x13B JUMPI DUP1 PUSH1 0x1F LT PUSH2 0x112 JUMPI PUSH2 0x100 DUP1 DUP4 SLOAD DIV MUL DUP4 MSTORE SWAP2 PUSH1 0x20 ADD SWAP2 PUSH2 0x13B JUMP JUMPDEST DUP3 ADD SWAP2 SWAP1 PUSH0 MSTORE PUSH1 0x20 PUSH0 KECCAK256 SWAP1 JUMPDEST DUP2 SLOAD DUP2 MSTORE SWAP1 PUSH1 0x1 ADD SWAP1 PUSH1 0x20 ADD DUP1 DUP4 GT PUSH2 0x11E JUMPI DUP3 SWAP1 SUB PUSH1 0x1F AND DUP3 ADD SWAP2 JUMPDEST POP POP POP POP POP SWAP1 DUP1 PUSH1 0x2 ADD PUSH0 SWAP1 SLOAD SWAP1 PUSH2 0x100 EXP SWAP1 DIV PUSH20 0xFFFFFFFFFFFFFFFFFFFFFFFFFFFFFFFFFFFFFFFF AND SWAP1 POP DUP4 JUMP JUMPDEST PUSH0 PUSH1 0x2 DUP2 GT ISZERO PUSH2 0x17D JUMPI PUSH2 0x17C PUSH2 0x247 JUMP JUMPDEST JUMPDEST PUSH1 0x3 PUSH0 SWAP1 SLOAD SWAP1 PUSH2 0x100 EXP SWAP1 DIV PUSH1 0xFF AND PUSH1 0x2 DUP2 GT ISZERO PUSH2 0x19E JUMPI PUSH2 0x19D PUSH2 0x247 JUMP JUMPDEST JUMPDEST SUB PUSH2 0x242 JUMPI PUSH0 PUSH1 0x40 MLOAD DUP1 PUSH1 0x60 ADD PUSH1 0x40 MSTORE DUP1 DUP6 DUP2 MSTORE PUSH1 0x20 ADD DUP5 DUP2 MSTORE PUSH1 0x20 ADD DUP4 PUSH20 0xFFFFFFFFFFFFFFFFFFFFFFFFFFFFFFFFFFFFFFFF AND DUP2 MSTORE POP SWAP1 POP DUP1 PUSH0 DUP1 DUP3 ADD MLOAD DUP2 PUSH0 ADD SSTORE PUSH1 0x20 DUP3 ADD MLOAD DUP2 PUSH1 0x1 ADD SWAP1 DUP2 PUSH2 0x1F6 SWAP2 SWAP1 PUSH2 0x7CD JUMP JUMPDEST POP PUSH1 0x40 DUP3 ADD MLOAD DUP2 PUSH1 0x2 ADD PUSH0 PUSH2 0x100 EXP DUP2 SLOAD DUP2 PUSH20 0xFFFFFFFFFFFFFFFFFFFFFFFFFFFFFFFFFFFFFFFF MUL NOT AND SWAP1 DUP4 PUSH20 0xFFFFFFFFFFFFFFFFFFFFFFFFFFFFFFFFFFFFFFFF AND MUL OR SWAP1 SSTORE POP SWAP1 POP POP POP JUMPDEST POP POP POP JUMP JUMPDEST PUSH32 0x4E487B7100000000000000000000000000000000000000000000000000000000 PUSH0 MSTORE PUSH1 0x21 PUSH1 0x4 MSTORE PUSH1 0x24 PUSH0 REVERT JUMPDEST PUSH1 0x3 DUP2 LT PUSH2 0x285 JUMPI PUSH2 0x284 PUSH2 0x247 JUMP JUMPDEST JUMPDEST POP JUMP JUMPDEST PUSH0 DUP2 SWAP1 POP PUSH2 0x295 DUP3 PUSH2 0x274 JUMP JUMPDEST SWAP2 SWAP1 POP JUMP JUMPDEST PUSH0 PUSH2 0x2A4 DUP3 PUSH2 0x288 JUMP JUMPDEST SWAP1 POP SWAP2 SWAP1 POP JUMP JUMPDEST PUSH2 0x2B4 DUP2 PUSH2 0x29A JUMP JUMPDEST DUP3 MSTORE POP POP JUMP JUMPDEST PUSH0 PUSH1 0x20 DUP3 ADD SWAP1 POP PUSH2 0x2CD PUSH0 DUP4 ADD DUP5 PUSH2 0x2AB JUMP JUMPDEST SWAP3 SWAP2 POP POP JUMP JUMPDEST PUSH0 DUP2 SWAP1 POP SWAP2 SWAP1 POP JUMP JUMPDEST PUSH2 0x2E5 DUP2 PUSH2 0x2D3 JUMP JUMPDEST DUP3 MSTORE POP POP JUMP JUMPDEST PUSH0 DUP2 MLOAD SWAP1 POP SWAP2 SWAP1 POP JUMP JUMPDEST PUSH0 DUP3 DUP3 MSTORE PUSH1 0x20 DUP3 ADD SWAP1 POP SWAP3 SWAP2 POP POP JUMP JUMPDEST DUP3 DUP2 DUP4 MCOPY PUSH0 DUP4 DUP4 ADD MSTORE POP POP POP JUMP JUMPDEST PUSH0 PUSH1 0x1F NOT PUSH1 0x1F DUP4 ADD AND SWAP1 POP SWAP2 SWAP1 POP JUMP JUMPDEST PUSH0 PUSH2 0x32D DUP3 PUSH2 0x2EB JUMP JUMPDEST PUSH2 0x337 DUP2 DUP6 PUSH2 0x2F5 JUMP JUMPDEST SWAP4 POP PUSH2 0x347 DUP2 DUP6 PUSH1 0x20 DUP7 ADD PUSH2 0x305 JUMP JUMPDEST PUSH2 0x350 DUP2 PUSH2 0x313 JUMP JUMPDEST DUP5 ADD SWAP2 POP POP SWAP3 SWAP2 POP POP JUMP JUMPDEST PUSH0 PUSH20 0xFFFFFFFFFFFFFFFFFFFFFFFFFFFFFFFFFFFFFFFF DUP3 AND SWAP1 POP SWAP2 SWAP1 POP JUMP JUMPDEST PUSH0 PUSH2 0x384 DUP3 PUSH2 0x35B JUMP JUMPDEST SWAP1 POP SWAP2 SWAP1 POP JUMP JUMPDEST PUSH2 0x394 DUP2 PUSH2 0x37A JUMP JUMPDEST DUP3 MSTORE POP POP JUMP JUMPDEST PUSH0 PUSH1 0x60 DUP3 ADD SWAP1 POP PUSH2 0x3AD PUSH0 DUP4 ADD DUP7 PUSH2 0x2DC JUMP JUMPDEST DUP2 DUP2 SUB PUSH1 0x20 DUP4 ADD MSTORE PUSH2 0x3BF DUP2 DUP6 PUSH2 0x323 JUMP JUMPDEST SWAP1 POP PUSH2 0x3CE PUSH1 0x40 DUP4 ADD DUP5 PUSH2 0x38B JUMP JUMPDEST SWAP5 SWAP4 POP POP POP POP JUMP JUMPDEST PUSH0 PUSH1 0x40 MLOAD SWAP1 POP SWAP1 JUMP JUMPDEST PUSH0 DUP1 REVERT JUMPDEST PUSH0 DUP1 REVERT JUMPDEST PUSH2 0x3F0 DUP2 PUSH2 0x2D3 JUMP JUMPDEST DUP2 EQ PUSH2 0x3FA JUMPI PUSH0 DUP1 REVERT JUMPDEST POP JUMP JUMPDEST PUSH0 DUP2 CALLDATALOAD SWAP1 POP PUSH2 0x40B DUP2 PUSH2 0x3E7 JUMP JUMPDEST SWAP3 SWAP2 POP POP JUMP JUMPDEST PUSH0 DUP1 REVERT JUMPDEST PUSH0 DUP1 REVERT JUMPDEST PUSH32 0x4E487B7100000000000000000000000000000000000000000000000000000000 PUSH0 MSTORE PUSH1 0x41 PUSH1 0x4 MSTORE PUSH1 0x24 PUSH0 REVERT JUMPDEST PUSH2 0x44F DUP3 PUSH2 0x313 JUMP JUMPDEST DUP2 ADD DUP2 DUP2 LT PUSH8 0xFFFFFFFFFFFFFFFF DUP3 GT OR ISZERO PUSH2 0x46E JUMPI PUSH2 0x46D PUSH2 0x419 JUMP JUMPDEST JUMPDEST DUP1 PUSH1 0x40 MSTORE POP POP POP JUMP JUMPDEST PUSH0 PUSH2 0x480 PUSH2 0x3D6 JUMP JUMPDEST SWAP1 POP PUSH2 0x48C DUP3 DUP3 PUSH2 0x446 JUMP JUMPDEST SWAP2 SWAP1 POP JUMP JUMPDEST PUSH0 PUSH8 0xFFFFFFFFFFFFFFFF DUP3 GT ISZERO PUSH2 0x4AB JUMPI PUSH2 0x4AA PUSH2 0x419 JUMP JUMPDEST JUMPDEST PUSH2 0x4B4 DUP3 PUSH2 0x313 JUMP JUMPDEST SWAP1 POP PUSH1 0x20 DUP2 ADD SWAP1 POP SWAP2 SWAP1 POP JUMP JUMPDEST DUP3 DUP2 DUP4 CALLDATACOPY PUSH0 DUP4 DUP4 ADD MSTORE POP POP POP JUMP JUMPDEST PUSH0 PUSH2 0x4E1 PUSH2 0x4DC DUP5 PUSH2 0x491 JUMP JUMPDEST PUSH2 0x477 JUMP JUMPDEST SWAP1 POP DUP3 DUP2 MSTORE PUSH1 0x20 DUP2 ADD DUP5 DUP5 DUP5 ADD GT ISZERO PUSH2 0x4FD JUMPI PUSH2 0x4FC PUSH2 0x415 JUMP JUMPDEST JUMPDEST PUSH2 0x508 DUP5 DUP3 DUP6 PUSH2 0x4C1 JUMP JUMPDEST POP SWAP4 SWAP3 POP POP POP JUMP JUMPDEST PUSH0 DUP3 PUSH1 0x1F DUP4 ADD SLT PUSH2 0x524 JUMPI PUSH2 0x523 PUSH2 0x411 JUMP JUMPDEST JUMPDEST DUP2 CALLDATALOAD PUSH2 0x534 DUP5 DUP3 PUSH1 0x20 DUP7 ADD PUSH2 0x4CF JUMP JUMPDEST SWAP2 POP POP SWAP3 SWAP2 POP POP JUMP JUMPDEST PUSH2 0x546 DUP2 PUSH2 0x37A JUMP JUMPDEST DUP2 EQ PUSH2 0x550 JUMPI PUSH0 DUP1 REVERT JUMPDEST POP JUMP JUMPDEST PUSH0 DUP2 CALLDATALOAD SWAP1 POP PUSH2 0x561 DUP2 PUSH2 0x53D JUMP JUMPDEST SWAP3 SWAP2 POP POP JUMP JUMPDEST PUSH0 DUP1 PUSH0 PUSH1 0x60 DUP5 DUP7 SUB SLT ISZERO PUSH2 0x57E JUMPI PUSH2 0x57D PUSH2 0x3DF JUMP JUMPDEST JUMPDEST PUSH0 PUSH2 0x58B DUP7 DUP3 DUP8 ADD PUSH2 0x3FD JUMP JUMPDEST SWAP4 POP POP PUSH1 0x20 DUP5 ADD CALLDATALOAD PUSH8 0xFFFFFFFFFFFFFFFF DUP2 GT ISZERO PUSH2 0x5AC JUMPI PUSH2 0x5AB PUSH2 0x3E3 JUMP JUMPDEST JUMPDEST PUSH2 0x5B8 DUP7 DUP3 DUP8 ADD PUSH2 0x510 JUMP JUMPDEST SWAP3 POP POP PUSH1 0x40 PUSH2 0x5C9 DUP7 DUP3 DUP8 ADD PUSH2 0x553 JUMP JUMPDEST SWAP2 POP POP SWAP3 POP SWAP3 POP SWAP3 JUMP JUMPDEST PUSH32 0x4E487B7100000000000000000000000000000000000000000000000000000000 PUSH0 MSTORE PUSH1 0x22 PUSH1 0x4 MSTORE PUSH1 0x24 PUSH0 REVERT JUMPDEST PUSH0 PUSH1 0x2 DUP3 DIV SWAP1 POP PUSH1 0x1 DUP3 AND DUP1 PUSH2 0x617 JUMPI PUSH1 0x7F DUP3 AND SWAP2 POP JUMPDEST PUSH1 0x20 DUP3 LT DUP2 SUB PUSH2 0x62A JUMPI PUSH2 0x629 PUSH2 0x5D3 JUMP JUMPDEST JUMPDEST POP SWAP2 SWAP1 POP JUMP JUMPDEST PUSH0 DUP2 SWAP1 POP DUP2 PUSH0 MSTORE PUSH1 0x20 PUSH0 KECCAK256 SWAP1 POP SWAP2 SWAP1 POP JUMP JUMPDEST PUSH0 PUSH1 0x20 PUSH1 0x1F DUP4 ADD DIV SWAP1 POP SWAP2 SWAP1 POP JUMP JUMPDEST PUSH0 DUP3 DUP3 SHL SWAP1 POP SWAP3 SWAP2 POP POP JUMP JUMPDEST PUSH0 PUSH1 0x8 DUP4 MUL PUSH2 0x68C PUSH32 0xFFFFFFFFFFFFFFFFFFFFFFFFFFFFFFFFFFFFFFFFFFFFFFFFFFFFFFFFFFFFFFFF DUP3 PUSH2 0x651 JUMP JUMPDEST PUSH2 0x696 DUP7 DUP4 PUSH2 0x651 JUMP JUMPDEST SWAP6 POP DUP1 NOT DUP5 AND SWAP4 POP DUP1 DUP7 AND DUP5 OR SWAP3 POP POP POP SWAP4 SWAP3 POP POP POP JUMP JUMPDEST PUSH0 DUP2 SWAP1 POP SWAP2 SWAP1 POP JUMP JUMPDEST PUSH0 PUSH2 0x6D1 PUSH2 0x6CC PUSH2 0x6C7 DUP5 PUSH2 0x2D3 JUMP JUMPDEST PUSH2 0x6AE JUMP JUMPDEST PUSH2 0x2D3 JUMP JUMPDEST SWAP1 POP SWAP2 SWAP1 POP JUMP JUMPDEST PUSH0 DUP2 SWAP1 POP SWAP2 SWAP1 POP JUMP JUMPDEST PUSH2 0x6EA DUP4 PUSH2 0x6B7 JUMP JUMPDEST PUSH2 0x6FE PUSH2 0x6F6 DUP3 PUSH2 0x6D8 JUMP JUMPDEST DUP5 DUP5 SLOAD PUSH2 0x65D JUMP JUMPDEST DUP3 SSTORE POP POP POP POP JUMP JUMPDEST PUSH0 SWAP1 JUMP JUMPDEST PUSH2 0x712 PUSH2 0x706 JUMP JUMPDEST PUSH2 0x71D DUP2 DUP5 DUP5 PUSH2 0x6E1 JUMP JUMPDEST POP POP POP JUMP JUMPDEST JUMPDEST DUP2 DUP2 LT ISZERO PUSH2 0x740 JUMPI PUSH2 0x735 PUSH0 DUP3 PUSH2 0x70A JUMP JUMPDEST PUSH1 0x1 DUP2 ADD SWAP1 POP PUSH2 0x723 JUMP JUMPDEST POP POP JUMP JUMPDEST PUSH1 0x1F DUP3 GT ISZERO PUSH2 0x785 JUMPI PUSH2 0x756 DUP2 PUSH2 0x630 JUMP JUMPDEST PUSH2 0x75F DUP5 PUSH2 0x642 JUMP JUMPDEST DUP2 ADD PUSH1 0x20 DUP6 LT ISZERO PUSH2 0x76E JUMPI DUP2 SWAP1 POP JUMPDEST PUSH2 0x782 PUSH2 0x77A DUP6 PUSH2 0x642 JUMP JUMPDEST DUP4 ADD DUP3 PUSH2 0x722 JUMP JUMPDEST POP POP JUMPDEST POP POP POP JUMP JUMPDEST PUSH0 DUP3 DUP3 SHR SWAP1 POP SWAP3 SWAP2 POP POP JUMP JUMPDEST PUSH0 PUSH2 0x7A5 PUSH0 NOT DUP5 PUSH1 0x8 MUL PUSH2 0x78A JUMP JUMPDEST NOT DUP1 DUP4 AND SWAP2 POP POP SWAP3 SWAP2 POP POP JUMP JUMPDEST PUSH0 PUSH2 0x7BD DUP4 DUP4 PUSH2 0x796 JUMP JUMPDEST SWAP2 POP DUP3 PUSH1 0x2 MUL DUP3 OR SWAP1 POP SWAP3 SWAP2 POP POP JUMP JUMPDEST PUSH2 0x7D6 DUP3 PUSH2 0x2EB JUMP JUMPDEST PUSH8 0xFFFFFFFFFFFFFFFF DUP2 GT ISZERO PUSH2 0x7EF JUMPI PUSH2 0x7EE PUSH2 0x419 JUMP JUMPDEST JUMPDEST PUSH2 0x7F9 DUP3 SLOAD PUSH2 0x600 JUMP JUMPDEST PUSH2 0x804 DUP3 DUP3 DUP6 PUSH2 0x744 JUMP JUMPDEST PUSH0 PUSH1 0x20 SWAP1 POP PUSH1 0x1F DUP4 GT PUSH1 0x1 DUP2 EQ PUSH2 0x835 JUMPI PUSH0 DUP5 ISZERO PUSH2 0x823 JUMPI DUP3 DUP8 ADD MLOAD SWAP1 POP JUMPDEST PUSH2 0x82D DUP6 DUP3 PUSH2 0x7B2 JUMP JUMPDEST DUP7 SSTORE POP PUSH2 0x894 JUMP JUMPDEST PUSH1 0x1F NOT DUP5 AND PUSH2 0x843 DUP7 PUSH2 0x630 JUMP JUMPDEST PUSH0 JUMPDEST DUP3 DUP2 LT ISZERO PUSH2 0x86A JUMPI DUP5 DUP10 ADD MLOAD DUP3 SSTORE PUSH1 0x1 DUP3 ADD SWAP2 POP PUSH1 0x20 DUP6 ADD SWAP5 POP PUSH1 0x20 DUP2 ADD SWAP1 POP PUSH2 0x845 JUMP JUMPDEST DUP7 DUP4 LT ISZERO PUSH2 0x887 JUMPI DUP5 DUP10 ADD MLOAD PUSH2 0x883 PUSH1 0x1F DUP10 AND DUP3 PUSH2 0x796 JUMP JUMPDEST DUP4 SSTORE POP JUMPDEST PUSH1 0x1 PUSH1 0x2 DUP9 MUL ADD DUP9 SSTORE POP POP POP JUMPDEST POP POP POP POP POP POP JUMP INVALID LOG2 PUSH5 0x6970667358 0x22 SLT KECCAK256 0xA9 BLOBBASEFEE 0xB5 DUP1 0xCA 0xDA DUP5 0x29 0xAB PUSH16 0x377B2E17DE387D4A894D82851792A1DD 0xC6 0x2B PUSH4 0xF2564364 PUSH20 0x6F6C634300081A00330000000000000000000000 "
				},
				"gasEstimates": {
					"creation": {
						"codeDepositCost": "451600",
						"executionCost": "infinite",
						"totalCost": "infinite"
					},
					"external": {
						"academyInstructor()": "infinite",
						"academyState()": "2532",
						"changeInstructor(uint256,string,address)": "infinite"
					}
				},
				"methodIdentifiers": {
					"academyInstructor()": "54248841",
					"academyState()": "23b8ca9f",
					"changeInstructor(uint256,string,address)": "a46878fb"
				}
			},
			"storageLayout": {
				"storage": [
					{
						"astId": 11,
						"contract": "contracts/instructor.sol:Academy",
						"label": "academyInstructor",
						"offset": 0,
						"slot": "0",
						"type": "t_struct(Instructor)8_storage"
					},
					{
						"astId": 20,
						"contract": "contracts/instructor.sol:Academy",
						"label": "academyState",
						"offset": 0,
						"slot": "3",
						"type": "t_enum(State)15"
					}
				],
				"types": {
					"t_address": {
						"encoding": "inplace",
						"label": "address",
						"numberOfBytes": "20"
					},
					"t_enum(State)15": {
						"encoding": "inplace",
						"label": "enum Academy.State",
						"numberOfBytes": "1"
					},
					"t_string_storage": {
						"encoding": "bytes",
						"label": "string",
						"numberOfBytes": "32"
					},
					"t_struct(Instructor)8_storage": {
						"encoding": "inplace",
						"label": "struct Instructor",
						"members": [
							{
								"astId": 3,
								"contract": "contracts/instructor.sol:Academy",
								"label": "age",
								"offset": 0,
								"slot": "0",
								"type": "t_uint256"
							},
							{
								"astId": 5,
								"contract": "contracts/instructor.sol:Academy",
								"label": "name",
								"offset": 0,
								"slot": "1",
								"type": "t_string_storage"
							},
							{
								"astId": 7,
								"contract": "contracts/instructor.sol:Academy",
								"label": "addr",
								"offset": 0,
								"slot": "2",
								"type": "t_address"
							}
						],
						"numberOfBytes": "96"
					},
					"t_uint256": {
						"encoding": "inplace",
						"label": "uint256",
						"numberOfBytes": "32"
					}
				}
			},
			"userdoc": {
				"kind": "user",
				"methods": {},
				"version": 1
			}
		}
	}
}